:100000000C9422010C94C9170C94FA170C942B1819
:100010000C945C180C948D180C94BE180C94EF186A
:100020000C9420190C944D010C944D010C944D012D
:100030000C944D010C944D010C944D010C946C03E7
:100040000C944D010C944D010C944D010C944D01F8
:100050000C944D010C944D010C944D010C945119CC
:100060000C944D010C9418130C944D010C944D01FB
:100070000C944D010C944D010C944D010C944D01C8
:100080000C944D010C944D010C944D010C944D01B8
:100090000C9459130C944D010C944D010C944D018A
:1000A0000C944D010C944D010C944D010C944D0198
:1000B0000C944D010C944D010C944D010C944D0188
:1000C0000C944D010C944D010C944D010C949A1319
:1000D0000C944D010C944D010C94DB130C944D01C8
:1000E0000C944D0100002100240027002A002D005F
:1000F0003000330001010000040107010A01000083
:100100002200250028002B002E00310034000201BF
:100110000000050108010B0100002000230026005B
:1001200029002C002F00320000010000030106010D
:10013000090105050505070508080808020202026D
:100140000A0A080804040404010101010101010173
:100150000303030303030303040707070C0C0C0C3E
:100160000C0C0C0C02020202060606060606060627
:100170000B0B0B0B0B0B0B0B0102102020080810B4
:100180002040102040800201020108040201010207
:1001900004081020408080402010080402018004E0
:1001A000020180402010080402010804020101023B
:1001B0000408102040800102040810204080000044
:1001C000090A02080B0C0D070603040100000000D9
:1001D000000000000000000000000000000000001F
:1001E00000000000000000000000100F0E000000E2
:1001F00000000000000000000000000000000000FF
:1002000000000000494E46494E4954594E414ECDDA
:10021000CCCC3D0AD7233C17B7D13877CC2B3295BD
:1002200095E6241FB14F0A000020410000C842009B
:10023000401C4620BCBE4CCA1B0E5AAEC59D740065
:100240004D05D41411241FBECFEFD1E2DEBFCDBFC8
:1002500012E0A0E0B2E0EAE5FDE300E00BBF02C07F
:1002600007900D92AC34B107D9F71BBE16E0ACE491
:10027000B2E001C01D92A432B107E1F712E0C4E47C
:10028000D2E004C02297FE010E94651EC034D1074F
:10029000C9F70E9411130C94AB1E0C940000662742
:1002A00077270C945301A0E0B0E0E9E5F1E00C946D
:1002B0007A1EEC015B016115710519F0FB01918358
:1002C0008083F9908F2D90E00E94691E892BC9F7D9
:1002D000FDE2FF1621F4F990EE24E39405C02BE231
:1002E000F21609F4F990EE248E0101501040C80175
:1002F00064E072E043E050E00E94B302892B01F514
:100300008E010E5F1F4FC80167E072E045E050E0CC
:100310000E94B302892B19F48E01095F1F4FA114AB
:10032000B10419F0F50111830083E0FC04C070E012
:1003300090E080E814C070E090E080E86FEF08C1C2
:10034000C8016CE072E043E050E00E94B302892BE8
:1003500069F4A114B10429F470E090E080EC6FE737
:10036000F7C02296F501D183C083F6CF8824992463
:1003700040E050E060E070E0EF2DE053EA30A0F59F
:10038000F2E0EF2A8E2D90E09C0128703070E2FEA2
:1003900006C0232B79F50894811C911C2BC0232BBC
:1003A00019F0089481089108DB01CA0112E0880F56
:1003B000991FAA1FBB1F1A95D1F7480F591F6A1F13
:1003C0007B1F440F551F661F771F4E0F511D611D68
:1003D000711D483929E9520729E9620729E17207A5
:1003E00048F084E0E82A06C0EE3F31F4E3FC39C06F
:1003F00098E0E92AF990C0CFE53311F0E53189F5AD
:1004000029912D3219F4E0E1EE2A05C02B3219F0C2
:1004100081E090E003C0299182E090E0E22FE05378
:10042000EA3018F0C81BD90B1CC020E030E0FCE01B
:1004300020383F075CF4C901880F991F880F991F66
:10044000280F391F220F331F2E0F311DE991E05362
:10045000EA3068F3E4FE03C0309521953F4F820EE9
:10046000931ECE2CDD24E1FE07C0A114B10421F0BF
:100470002197F501D183C083CB01BA010E94BB1C37
:100480007B018C01F3E0CF22DD2423E0C216D104EE
:1004900021F417FB109517F9109557016801C80151
:1004A000B70120E030E040E050E00E941E1C8823AD
:1004B00009F44AC097FE0DC023E2E22E22E0F22E9C
:1004C0009094819491089394C0E2D0E000E010E011
:1004D00012C09BE3E92E92E0F92EF6CFF7012591A9
:1004E000359145915491C601B5010E94711D5B0182
:1004F0006C018C1A9D0A8C169D0684F7D595C795BC
:100500000F5F1F4F0630110529F08CEF9FEFE80EAB
:10051000F91EF1CFC501D6017C018D018C2D880F0C
:100520008D2D881F8F3F51F0C601B50120E030E0CE
:1005300040E050E00E941E1C882331F482E290E0EB
:1005400090932306809322067E2D9F2D802F612F6E
:10055000272F392F482F562FB901CA01CDB7DEB743
:10056000ECE00C94961EFB01DC014150504088F0F9
:100570008D9181341CF08B350CF4805E6591613473
:100580001CF06B350CF4605E861B611171F3990BE6
:100590000895881BFCCFF999FECF72BD61BDF89A12
:1005A00080B50895F999FECF1FBA72BD61BD40BDF7
:1005B0000FB6F894FA9AF99A0FBE0895FC0180914B
:1005C0004D02843028F48F5F80934D02808308951C
:1005D00010820895FC012081822F8150843050F5D3
:1005E00082E06E3E78071CF46EEE72E006C088E092
:1005F0006B3C780714F06AEC78E0AB01485050404F
:1006000030E0CA01880F892F881F990BF901EE0F7E
:10061000FF1FE20FF31FE25BFD4F818390E0969591
:10062000982F882797958795841B950B880F991F7E
:100630008150828308951F93CF93DF93EC01162F8F
:1006400080915D02882311F5E2E5F2E02BE097E569
:10065000843010F4208391838F5F33968430C1F708
:100660008FE080934F0210925E0210925F02109210
:1006700070001092B00082E08093B1001092B2003E
:1006800081E087BB8093700080935D02888188231E
:10069000F1F0812F61E00E948D1A888190E0FC01C9
:1006A000EE0FFF1FE80FF91FE25BFD4F1F71808106
:1006B000807E812B8083888190E0FC01EE0FFF1FFC
:1006C000E80FF91FE25BFD4F8081806280838881A3
:1006D000DF91CF911F9108951F920F920FB60F9245
:1006E0000BB60F9211242F933F934F935F936F9309
:1006F0007F938F939F93AF93BF93EF93FF938091DB
:100700005F028F5F80935F0220915F0280915E02A3
:1007100090E0FC01EE0FFF1FE80FF91FE25BFD4FB9
:100720008181281771F480915E0290E0FC01EE0F48
:10073000FF1FE80FF91FE25BFD4F82818093B2003B
:1007400061C020915F0280915E0290E0FC01EE0F9B
:10075000FF1FE80FF91FE25BFD4F8181821708F050
:1007600051C080915E0290E0FC01EE0FFF1FE80F88
:10077000F91FE25BFD4F808185FF0FC080915E0213
:1007800090E0FC01EE0FFF1FE80FF91FE25BFD4F49
:1007900080818F7160E00E94AD1A80915E028F5F50
:1007A00080935E0210925F021092B20080915E020E
:1007B000882321F180915E02853000F580915E02F0
:1007C00090E0FC01EE0FFF1FE80FF91FE25BFD4F09
:1007D000808185FF17C080915E0290E0FC01EE0FE2
:1007E000FF1FE80FF91FE25BFD4F80818F7161E011
:1007F0000E94AD1A07C010925E0204C080915E0292
:100800008530C8F7FF91EF91BF91AF919F918F9184
:100810007F916F915F914F913F912F910F900BBE00
:100820000F900FBE0F901F901895EF92FF920F93AD
:100830001F937B018C012AE037ED43E25CE30E94C9
:10084000BA1B9B01AC01C801B7010E94221C9B018D
:10085000AC016093B6027093B7028093B802909394
:10086000B90260E070E080E89FE30E94B91B6093EA
:10087000BA027093BB028093BC029093BD021F9199
:100880000F91FF90EF9008952F923F924F925F92B9
:100890006F927F928F929F92AF92BF92CF92DF9290
:1008A000EF92FF920F931F93DF93CF9300D000D06E
:1008B00000D0CDB7DEB719012A011E830D830E9437
:1008C000B91B69837A838B839C83F80120893189E2
:1008D000428953890E94BA1B7B018C01ED81FE8104
:1008E000608B718B828B938BA0909203B09093035B
:1008F000C0909403D09095033501460197FA9094E7
:1009000097F89094A40193010E941E1C88233CF444
:10091000ED81FE81608A718A828A938A0EC0C80145
:10092000B701A60195010E946D1D181634F4ED81E2
:10093000FE81A08AB18AC28AD38AC201B101ED8147
:10094000FE8124853585468557850E94B91BED813A
:10095000FE8120853185428553850E94711D5B0192
:100960006C01ED81FE812486358646865786698135
:100970007A818B819C8120813181428153810E94C7
:10098000711D7B018C01ED81FE8164817581868101
:10099000978120893189428953890E94711D9B0169
:1009A000AC01C801B7010E94BA1BA60195010E94C3
:1009B000BA1B26960FB6F894DEBF0FBECDBFCF91FF
:1009C000DF911F910F91FF90EF90DF90CF90BF903C
:1009D000AF909F908F907F906F905F904F903F90DF
:1009E0002F900895FF920F931F93CF93DF93EC0105
:1009F0008B016150704028C0D901AA0FBB1FAC0FFA
:100A0000BD1F4D915C911197F9013196EE0FFF1FBB
:100A1000EC0FFD1F20813181241735072CF4518301
:100A200040832D933C9390E08F5F282F30E0261772
:100A3000370714F3913041F480E0A0E0B0E040E0EB
:100A400050E060E070E01CC091E080E0EECFEE0F7F
:100A5000FF1FEC0FFD1F20813181A217B30724F483
:100A6000D90141E050E005C02A173B0711F44F5F60
:100A70005F4F641775071CF4922FF32EBA018F5F36
:100A8000E82FF0E0E017F10714F3892F9F2DDF9195
:100A9000CF911F910F91FF90089580E692E00E9400
:100AA000DE0281E692E00E94DE0282E692E00E948F
:100AB000DE0283E692E00E94DE0208952F923F92CA
:100AC0004F925F926F927F928F929F92AF92BF925E
:100AD000CF92DF92EF92FF920F931F93CF93DF930A
:100AE000809199038F5F809399038091990365E0CA
:100AF0000E94F31D992309F07DC010927B02109291
:100B00007A0221C0EE0FFF1FDF01A25EBD4F0D91E3
:100B10001C91E65DFD4F808161E028EA31E640E00E
:100B200050E00E94381B000F111F02591D4FF801A1
:100B30007183608380917A0290917B0201969093F9
:100B40007B0280937A02E0917A02F0917B02E63098
:100B5000F105C4F260907C0270907D0280907E026C
:100B600090907F027EE3272E72E0372E66E3462EBA
:100B700062E0562EC0E0D0E02EC0FE01EE0FFF1F57
:100B8000E259FD4F60817181F101E190F1901F0107
:100B90006E197F09882777FD8095982F0E94BD1CCC
:100BA000A40193010E94711D5B016C010027F7FCF9
:100BB0000095102FC801B7010E94BD1C9B01AC011C
:100BC000C601B5010E94BA1B0E948A1CF201619302
:100BD00071932F012196C330D1057CF2D09381020D
:100BE000C0938002809174029091750290933D02AF
:100BF00080933C028091990365E00E94F31D92303E
:100C000019F481E080939803DF91CF911F910F91A8
:100C1000FF90EF90DF90CF90BF90AF909F908F901C
:100C20007F906F905F904F903F902F90089580E05D
:100C30006EE575E043E050E00E944D1708958EEB9D
:100C400095E06CE20E949B150895109298038091A4
:100C50004402823509F4A3C2833534F4813471F03F
:100C6000843409F0C5C219C1843509F42BC2843516
:100C70000CF491C0853509F0BBC246C14091A20376
:100C80005091A3036091A4037091A5038EEB95E0AE
:100C90000E946E160E941F0610928102109280021E
:100CA00015C0EE0FFF1FE456FD4F608171818EEB82
:100CB00095E00E9495160E941F06809180029091F7
:100CC000810201969093810280938002E0918002DC
:100CD000F0918102E330F10524F360917402709188
:100CE00075028EEB95E00E9495160E941F061092E9
:100CF00081021092800215C0EE0FFF1FEC59FD4FCC
:100D0000608171818EEB95E00E9495160E941F060E
:100D1000809180029091810201969093810280934C
:100D20008002E0918002F0918102E330F10524F32A
:100D300010926B0210926A0215C0EE0FFF1FE25F65
:100D4000FD4F608171818EEB95E00E9495160E94A7
:100D50001F0680916A0290916B02019690936B023C
:100D600080936A02E0916A02F0916B02E430F1052F
:100D700024F34091960350E060E070E08EEB95E044
:100D800022E030E00E94AD160E941F0660917602BC
:100D900070917702FFC1109281021092800215C0FB
:100DA000EE0FFF1FE855FD4F608171818EEB95E0DE
:100DB0000E9495160E941F068091800290918102E8
:100DC00001969093810280938002E0918002F091DD
:100DD0008102E330F10524F3109281021092800227
:100DE00015C0EE0FFF1FE257FD4F608171818EEB42
:100DF00095E00E9495160E941F06809180029091B6
:100E0000810201969093810280938002E09180029A
:100E1000F0918102E330F10524F3109281021092E7
:100E2000800215C0EE0FFF1FEC56FD4F60817181EF
:100E30008EEB95E00E9495160E941F06809180021D
:100E40009091810201969093810280938002E091BB
:100E50008002F0918102E230F10524F34091AE026C
:100E60005091AF026091B0027091B1028EEB95E0AB
:100E70000E9449170E941F064091B2025091B3028E
:100E80006091B4027091B5028EEB95E00E94491713
:100E90008EEB95E00E94BB15089584E00E945D1AD8
:100EA000BC018EEB95E00E9495160E941F0683E020
:100EB0000E945D1ABC018EEB95E00E9495160E947F
:100EC0001F0685E00E945D1ABC018EEB95E00E9432
:100ED00095160E941F0681E00E945D1ABC018EEBF0
:100EE00095E00E9495160E941F0680E00E945D1A00
:100EF000BC018EEB95E00E9495160E941F0682E0D1
:100F00000E945D1ABC0146C140912E0350912F03EF
:100F100060913003709131038EEB95E00E94491788
:100F20000E941F06409132035091330360913403B5
:100F3000709135038EEB95E00E9449170E941F06C1
:100F40004091360350913703609138037091390313
:100F50008EEB95E00E9449170E941F0640916A039C
:100F600050916B0360916C0370916D038EEB95E073
:100F70000E9449170E941F0640916E0350916F0313
:100F800060917003709171038EEB95E00E94491798
:100F90000E941F0640917203509173036091740385
:100FA000709175038EEB95E00E9449170E941F0611
:100FB0004091560350915703609158037091590323
:100FC0008EEB95E00E9449170E941F0640915A033C
:100FD00050915B0360915C0370915D038EEB95E033
:100FE0000E9449170E941F0640915E0350915F03C3
:100FF00060916003709161038EEB95E00E94491748
:101000000E941F06409192035091930360919403B4
:10101000709195038EEB95E00E9449170E941F0680
:1010200060919802709199028EEB95E00E9495165E
:101030000E941F0660919A0270919B028EEB95E0D0
:101040000E9495160E941F0640917C0250917D02DD
:1010500060917E0270917F028EEB95E00E944917AD
:101060000E941F0640912603509127036091280398
:10107000709129038EEB95E00E9449170E941F068C
:1010800040912A0350912B0360912C0370912D0302
:101090008EEB95E00E9449170E941F064091BE0208
:1010A0005091BF026091C0027091C1028EEB95E039
:1010B0000E9449178EEB95E00E94BB1588E580934E
:1010C0004402089540917C0250917D0260917E021D
:1010D00070917F028EEB95E00E9449170E941F06D7
:1010E000109281021092800215C0EE0FFF1FEA5C81
:1010F000FD4F608171818EEB95E00E9495160E94F4
:101100001F06809180029091810201969093810246
:1011100080938002E0918002F0918102E330F1053A
:1011200024F3109281021092800215C0EE0FFF1F6F
:10113000EC56FD4F608171818EEB95E00E94951613
:101140000E941F06809180029091810201969093E7
:10115000810280938002E0918002F0918102E2306E
:10116000F10524F360916402709165028EEB95E0C5
:101170000E9495160E941F06609166027091670298
:101180008EEB95E00E9495160E941F066091680202
:10119000709169028EEB95E00E949D160895109261
:1011A0007B0210927A0215C0EE0FFF1FE259FD4F2D
:1011B000608171818EEB95E00E9495160E941F065A
:1011C00080917A0290917B02019690937B028093AA
:1011D0007A02E0917A02F0917B02E530F10524F386
:1011E00060917802709179028EEB95E00E949D16D5
:1011F00008950F931F93CF93DF9310928102109263
:1012000080022BC0E0918002F0918102EE0FFF1F5F
:10121000EE5FFD4F80810E945D1A8993999383E070
:10122000C632D80779F7009180021091810282ECD2
:1012300092E062E370E00E94F204000F111F0E556D
:101240001D4FF801918380838091800290918102EB
:101250000196909381028093800280918002909108
:10126000810203971CF4C2ECD2E0CCCFDF91CF9186
:101270001F910F910895EF92FF920F931F93DF93A9
:10128000CF93CDB7DEB7C058D0400FB6F894DEBFCD
:101290000FBECDBF19821A821B821C82FE013596B9
:1012A0008CE7DF011D928A95E9F700E010E07E01EE
:1012B0000894E11CF11C8EEB95E00E9485148823B4
:1012C00041F46AE070E080E090E00E94CF191F5F77
:1012D0000AC08EEB95E00E949914F701E00FF11D12
:1012E00080830F5F10E0802F90E00197BFEF8F3F6A
:1012F0009B0719F4E0E0F0E006C0FC01813891059D
:1013000014F0E0E8F0E0EE0DFF1D80818B3321F05A
:10131000153010F407FFCFCFCE0101960E944F0188
:10132000C058DF4F0FB6F894DEBF0FBECDBFCF91D0
:10133000DF911F910F91FF90EF9008950F931F93EE
:101340008C0180E692E0B8010E94EA0281E692E018
:10135000B8010E94EA0282E692E0B8010E94EA0225
:1013600083E692E0B8010E94EA021F910F9108956E
:101370000F931F93082F10E015C08AE194E00E949C
:101380009E096AEF70E080E090E00E94CF1988EE3D
:1013900093E00E949E096AEF70E080E090E00E9476
:1013A000CF191F5F101748F31F910F910895609197
:1013B0000E0270910F0280E692E00E94EA026091B4
:1013C00010027091110281E692E00E94EA0260919F
:1013D00012027091130282E692E00E94EA0260918A
:1013E00014027091150283E692E00E94EA020895C9
:1013F00080E692E068E070E00E941B0381E692E0E4
:1014000069E070E00E941B0382E692E06AE070E00F
:101410000E941B0383E692E06BE070E00E941B03D6
:101420000895CF92DF92EF92FF920F931F93DF9375
:10143000CF9300D000D0CDB7DEB77A0169837A832D
:101440008B839C8300E010E06E010894C11CD11CCA
:10145000B8016E0D7F1DF601E00FF11F8CE492E0E4
:1014600040810E94D2020F5F1F4F0430110581F7A7
:101470000F900F900F900F90CF91DF911F910F91D0
:10148000FF90EF90DF90CF9008958EEB95E00E9453
:101490008514882309F4E3C18DE060E00E94AD1A51
:1014A0008EEB95E00E94991480934402833409F0F6
:1014B000EBC00E943B0960932E0370932F0380932F
:1014C0003003909331030E943B0960933203709381
:1014D000330380933403909335030E943B09609358
:1014E000360370933703809338039093390380E079
:1014F00090E0A0E0B0E080933A0390933B03A09388
:101500003C03B0933D0380933E0390933F03A0932D
:101510004003B0934103E2E4F3E0DF01549784E138
:101520000D9001928150E1F70E943B0960936A039C
:1015300070936B0380936C0390936D030E943B093F
:1015400060936E0370936F038093700390937103A5
:101550000E943B096093720370937303809374033A
:101560009093750380E090E0A0E0B0E08093760374
:1015700090937703A0937803B093790380937A03D1
:1015800090937B03A0937C03B0937D03EEE7F3E09D
:10159000DF01549784E10D9001928150E1F70E94A0
:1015A0003B096093560370935703809358039093BD
:1015B00059030E943B0960935A0370935B03809325
:1015C0005C0390935D030E943B0960935E037093FC
:1015D0005F03809360039093610380E090E0A0E05C
:1015E000B0E08093620390936303A0936403B0938D
:1015F00065038093660390936703A0936803B09399
:1016000069030E943B096093920370939303809354
:101610009403909395030E943B090E948A1C709347
:101620009902609398020E943B090E948A1C709361
:101630009B0260939A020E943B0960937C02709324
:101640007D0280937E0290937F020E943B0960930B
:1016500026037093270380932803909329030E9405
:101660003B0960932A0370932B0380932C03909380
:101670002D030E943B096093BE027093BF028093CA
:10168000C0029093C102E7C0873509F0E4C06091C1
:101690002E0370912F03809130039091310340E02D
:1016A00050E00E94110A60913203709133038091DF
:1016B00034039091350344E050E00E94110A609198
:1016C000360370913703809138039091390348E0D5
:1016D00050E00E94110A60916A0370916B0380913F
:1016E0006C0390916D034CE050E00E94110A6091F0
:1016F0006E0370916F03809170039091710340E1CC
:1017000050E00E94110A60917203709173038091FE
:1017100074039091750344E150E00E94110A6091B6
:10172000560370915703809158039091590348E1F3
:1017300050E00E94110A60915A0370915B038091FE
:101740005C0390915D034CE150E00E94110A6091AE
:101750005E0370915F03809160039091610340E2AA
:1017600050E00E94110A609192037091930380915E
:1017700094039091950344E250E00E94110A609115
:10178000980270919902882777FD8095982F0E9482
:10179000BD1C48E250E00E94110A60919A027091CB
:1017A0009B02882777FD8095982F0E94BD1C4CE2F4
:1017B00050E00E94110A60917C0270917D0280913C
:1017C0007E0290917F0240E350E00E94110A6091F6
:1017D000260370912703809128039091290344E305
:1017E00050E00E94110A60912A0370912B038091AE
:1017F0002C0390912D0348E350E00E94110A609160
:10180000BE027091BF028091C0029091C10248E473
:1018100050E00E94110AEEE3F3E080E090E020E067
:1018200030E040E050E006C02083318342835383A0
:101830000196749685309105BCF390938102809354
:1018400080026091BE027091BF028091C0029091AF
:10185000C1020E9415048DE061E00E94AD1A089556
:101860000F931F93CF93DF93109281021092800207
:101870002BC0E0918002F0918102EE0FFF1FE85F24
:10188000FD4F80810E945D1A8993999383E0C6324F
:10189000D80779F7009180021091810282EC92E0E2
:1018A00062E370E00E94F204000F111F08571D4F01
:1018B000F80191838083809180029091810201964A
:1018C00090938102809380028091800290918102A6
:1018D00002971CF4C2ECD2E0CCCF8BEF91E0909356
:1018E0008D0280938C026091880270918902882712
:1018F00077FD8095982F0E94BD1C40E450E00E9427
:10190000110A60918A0270918B02882777FD809579
:10191000982F0E94BD1C4CE350E00E94110A609178
:101920008C0270918D02882777FD8095982F0E94F8
:10193000BD1C44E450E00E94110ADF91CF911F9139
:101940000F910895CF92DF92EF92FF920F931F9322
:10195000DF93CF9300D000D0CDB7DEB77C0100E09D
:1019600010E06E010894C11CD11CB8016E0D7F1DE2
:101970008CE492E00E94CB02F601E00FF11F80831D
:101980000F5F1F4F0430110581F729813A814B8188
:101990005C81B901CA010F900F900F900F90CF9109
:1019A000DF911F910F91FF90EF90DF90CF900895FE
:1019B000AF92BF92CF92DF92EF92FF920F931F935D
:1019C000CF93DF93109281021092800264E1E62EA1
:1019D000F12C0F2EF0E0AF2EF0E0BF2EF0E0CF2E76
:1019E000F0E0DF2EF02D59C080E090E00E94A20CC4
:1019F000CE9DF001CF9DF00DDE9DF00D1124E25D36
:101A0000FC4F6083718382839383009180021091E5
:101A1000810284E090E00E94A20CF801EE0FFF1F0B
:101A2000EE0FFF1FE00FF11FEE0FFF1FEE0FFF1F66
:101A3000EE5CFC4F6083718382839383009180020C
:101A40001091810288E090E00E94A20C0E9DF001AE
:101A50000F9DF00D1E9DF00D1124E25DFC4F60877F
:101A600071878287938780918002909181028E9DF9
:101A7000F0018F9DF00D9E9DF00D1124E25DFC4F55
:101A8000A486B586C686D786A08AB18AC28AD38A3A
:101A900001969093810280938002C0918002D09140
:101AA0008102C230D1050CF49FCF88E190E00E9402
:101AB000A20C60935603709357038093580390933E
:101AC00059038CE190E00E94A20C60935A0370933A
:101AD0005B0380935C0390935D0380E290E00E943F
:101AE000A20C60935E0370935F03809360039093F6
:101AF000610380E090E0A0E0B0E080936203909307
:101B00006303A0936403B09365038093660390938B
:101B10006703A0936803B093690383E090E0909318
:101B200081028093800234E1E32EF12C0F2EF0E04D
:101B3000AF2EF0E0BF2EF0E0CF2EF0E0DF2EF02D44
:101B400059C08CE090E00E94A20CCE9DF001CF9D88
:101B5000F00DDE9DF00D1124E25DFC4F608371837A
:101B600082839383009180021091810280E190E052
:101B70000E94A20CF801EE0FFF1FEE0FFF1FE00FF7
:101B8000F11FEE0FFF1FEE0FFF1FEE5CFC4F608397
:101B9000718382839383009180021091810284E19A
:101BA00090E00E94A20C0E9DF0010F9DF00D1E9D75
:101BB000F00D1124E25DFC4F608771878287938767
:101BC00080918002909181028E9DF0018F9DF00D99
:101BD0009E9DF00D1124E25DFC4FA486B586C6865D
:101BE000D786A08AB18AC28AD38A0196909381024D
:101BF00080938002C0918002D0918102C530D105CE
:101C00000CF49FCF84E290E00E94A20C60939203B8
:101C100070939303809394039093950388E290E0EC
:101C20000E94A20C0E948A1C7093990260939802F1
:101C30008CE290E00E94A20C0E948A1C70939B028E
:101C400060939A0280E390E00E94A20C60937C0271
:101C500070937D0280937E0290937F0284E390E0F4
:101C60000E94A20C6093260370932703809328039D
:101C70009093290388E390E00E94A20C60932A03CA
:101C800070932B0380932C0390932D0380E490E0BA
:101C90000E94A20C0E948A1C7093890260938802A1
:101CA0008CE390E00E94A20C0E948A1C70938B022D
:101CB00060938A0284E490E00E94A20C0E948A1C35
:101CC00070938D0260938C0288E490E00E94A20CD5
:101CD0006093BE027093BF028093C0029093C102D2
:101CE000DF91CF911F910F91FF90EF90DF90CF90F8
:101CF000BF90AF9008952F923F924F925F926F9254
:101D00007F928F929F92AF92BF92CF92DF92EF928B
:101D1000FF920F931F93DF93CF93CDB7DEB72E972C
:101D20000FB6F894DEBF0FBECDBF0E94C1199B0154
:101D3000AC0120939E0330939F034093A0035093E4
:101D4000A10380919A0390919B03A0919C03B09171
:101D50009D0379018A01E81AF90A0A0B1B0BE0922C
:101D6000A203F092A3030093A4031093A50320936E
:101D70009A0330939B0340939C0350939D0380915F
:101D8000A6039091A703A091A803B091A90301967F
:101D9000A11DB11D8093A6039093A703A093A80350
:101DA000B093A9038091740290917502825F934071
:101DB0000CF08CC00EE313E0F80180E090E020E02E
:101DC00030E040E050E006C02083318342835383FB
:101DD0000196749685309105BCF3909381028093AF
:101DE000800280917202909173028D56974054F058
:101DF00080919603813031F41092960388EE93E03F
:101E00000E949E0980917202909173028D569740B4
:101E100024F180916E0290916F028C549440ECF406
:101E20000E94F9080E94300CEEE3F3E080E090E0BD
:101E300020E030E040E050E006C020833183428360
:101E400053830196749685309105BCF3909381027B
:101E50008093800283E00E94B80980917202909181
:101E600073028C5494403CF580919603882319F5B5
:101E7000809197038130F9F48093960380E090E09D
:101E800020E030E040E050E009C0D8012D933D93C0
:101E90004D935C93139701960C5E1F4F853091050F
:101EA000A4F390938102809380028AE194E090935E
:101EB0006D0280936C0280917202909173028D5436
:101EC0009440ACF081E08093970311C0809174023C
:101ED000909175028551954054F0809174029091D3
:101EE0007502885C904090936D0280936C028091A3
:101EF0007402909175028A51944034F48AE194E01E
:101F000090936D0280936C02109281021092800275
:101F100037C0EE0FFF1FEE5FFD4F80810E945D1AFC
:101F2000E0918002F0918102EE0FFF1FAF01485552
:101F30005D4FDF01AE55BD4F2D913C91821B930B40
:101F4000DA018D939C93E85FFD4F80810E945D1ABA
:101F50004091800250918102FA01EE0FFF1FDF01D4
:101F6000A857BD4F2D913C91821B930BE257FD4F1B
:101F7000918380834F5F5F4F509381024093800233
:101F8000E0918002F0918102E330F10514F220909B
:101F90002603309027034090280350902903609037
:101FA0002A0370902B0380902C0390902D03E8EA75
:101FB000F2E0FC83EB839CE9A92E92E0B92E0EE8B7
:101FC00012E01E830D8382E8C82E82E0D82EF887A7
:101FD000EF831A8309831E861D8674C0D5016D9117
:101FE0007C91882777FD8095982F0E94BD1C7B01EE
:101FF0008C0160E070E080E89FE3A20191010E9403
:10200000B91B9B01AC01C801B7010E94711D7B0186
:102010008C01EF81F88561917191F887EF838827B2
:1020200077FD8095982F0E94BD1CA20191010E940E
:10203000711D9B01AC01C801B7010E94BA1B0E942F
:102040008A1CD5016D937D935D01F60160817181DC
:10205000882777FD8095982F0E94BD1C7B018C01FD
:1020600060E070E080E89FE3A40193010E94B91B47
:102070009B01AC01C801B7010E94711D7B018C015D
:10208000A981BA816D917D91BA83A983882777FD53
:102090008095982F0E94BD1CA40193010E94711D80
:1020A0009B01AC01C801B7010E94BA1B0E948A1CA7
:1020B000F601619371936F010D851E850F5F1F4FB0
:1020C0001E870D878D859E8503970CF487CF6091C1
:1020D000A2037091A3038091A4039091A5030E9491
:1020E000BD1C20E030E04AE754E40E94221C4B0172
:1020F0005C016093AA037093AB038093AC0390934D
:10210000AD03E090B602F090B7020091B8021091D2
:10211000B902E986FA860B871C874090BA02509074
:10212000BB026090BC027090BD021EEAC12E12E09C
:10213000D12E2224332460C0AB81BC816D917D916E
:10214000BC83AB83882777FD8095982F0E94BD1CA8
:1021500020E030E040E85AE30E94711D26E933E4B4
:1021600046EE51E40E94711DA50194010E94711D6B
:10217000F60120813181428153810E94BA1B9B016B
:10218000AC0169857A858B859C850E94711D7B01D8
:102190008C01AD81BE816D917D91BE83AD83882719
:1021A00077FD8095982F0E94BD1C20E030E040E82C
:1021B0005AE30E94711D21EE3AE74CE251E40E947D
:1021C000711D9B01AC01C301B2010E94711D21EE82
:1021D0003EE245E652E40E94711D9B01AC01C8013C
:1021E000B7010E94BA1BF601619371938193919399
:1021F0006F010894211C311CF2E02F1631040CF4FD
:102200009BCF309281022092800280917602909141
:1022100077028C5D95404CF41092950210929402D6
:1022200010929702109296026FC020919A023091FC
:102230009B02442737FD4095542F6091A60370916F
:10224000A7038091A8039091A9030E94341E6115F1
:1022500071058105910509F057C010928102109215
:102260008002B4E1CB2ED12C46C0F501EE0FFF1F4A
:10227000EE0FFF1FE255FD4F2081318142815381D6
:1022800083E090E0A80EB91EAC9C8001AD9C100DBF
:10229000BC9C100D1124ADEFBFEFAA0EBB1E025D5A
:1022A0001C4F60E070E080E090E00E9444040E94D7
:1022B0008A1C409198025091990222273327241BAF
:1022C000350B621773072CF09B01461757070CF468
:1022D0009A01AA0CBB1CE4E9F2E0AE0EBF1ED501C8
:1022E0002D933C938091800290918102019690936E
:1022F000810280938002A0908002B0908102B2E0BF
:10230000AB16B1040CF4B1CF609136027091370274
:102310002091940230919502621B730B882777FD00
:102320008095982F0E94BD1C7B018C0160919C02BE
:1023300070919D02882777FD8095982F0E94BD1C83
:102340002091160230911702409118025091190203
:102350000E94711D20911A0230911B0240911C02B3
:1023600050911D020E94BA1B9B01AC01C801B7012C
:102370000EE213E00E9444040E948A1C70936502DE
:1023800060936402609196027091970220913802E6
:1023900030913902620F731F882777FD8095982F3F
:1023A0000E94BD1C7B018C0160919E0270919F0276
:1023B000882777FD8095982F0E94BD1C20911602DA
:1023C0003091170240911802509119020E94711D1C
:1023D00020911A0230911B0240911C0250911D0263
:1023E0000E94BA1B9B01AC01C801B70102E413E0D3
:1023F0000E9444040E948A1C7093670260936602E4
:1024000060913A0270913B02882777FD8095982F62
:102410000E94BD1C7B018C016091A0027091A10201
:10242000882777FD8095982F0E94BD1C2091160269
:102430003091170240911802509119020E94711DAB
:1024400020911A0230911B0240911C0250911D02F2
:102450000E94BA1B9B01AC01C801B70106E513E05D
:102460000E9444040E948A1CDB01709369026093FD
:10247000680280919603882309F465C080919703D0
:10248000882309F460C060913C0270913D02E091A4
:102490006602F09167029F01260F371F2A1B3B0B34
:1024A00040916C0250916D022417350714F49A0183
:1024B00006C007E0213D300714F020ED37E03093EF
:1024C0000F0220930E029B012E1B3F0B2A1B3B0B7E
:1024D0002417350714F49A0106C017E0213D31078F
:1024E00014F020ED37E03093110220931002E091B8
:1024F0006402F09165029F01260F371F2A0F3B1FD0
:102500002417350714F49A0106C087E0213D3807E7
:1025100014F020ED37E030931302209312029B0158
:102520002E1B3F0B2A0F3B1F241735073CF0A90138
:1025300097E0213D390714F040ED57E05093150224
:102540004093140211C0EEE0F2E080E090E028EE4B
:1025500033E003C021933193019684309105D4F385
:1025600090936B0280936A020E94D7090E94450AE9
:1025700080919803882311F00E9425062E960FB6AD
:10258000F894DEBF0FBECDBFCF91DF911F910F91A9
:10259000FF90EF90DF90CF90BF90AF909F908F9083
:1025A0007F906F905F904F903F902F9008958EEBAB
:1025B00095E040E052EC61E070E00E941C1480E085
:1025C0000E945A1A8DE061E00E948D1A8DE060E051
:1025D0000E94AD1A0E94F80988EE93E00E949E09BD
:1025E0000E94D80C0E9417060E94F9086091BE0252
:1025F0007091BF028091C0029091C1020E941504A7
:102600000E94C11960939A0370939B0380939C036B
:1026100090939D038DE061E00E94AD1A10929703A4
:1026200008950E94F9190E94D7120E947B0EFDCFD7
:102630001F920F920FB60F920BB60F9211242F9389
:102640003F934F935F936F937F938F939F93AF933A
:10265000BF93EF93FF934091C600E0912E04F09159
:102660002F04CF01019660E870E00E94FF1D9C01DD
:1026700080913004909131042817390739F0E255E0
:10268000FC4F408330932F0420932E04FF91EF9151
:10269000BF91AF919F918F917F916F915F914F917A
:1026A0003F912F910F900BBE0F900FBE0F901F9078
:1026B00018951F920F920FB60F920BB60F9211241E
:1026C0002F933F934F935F936F937F938F939F933A
:1026D000AF93BF93EF93FF934091CE00E091B2048C
:1026E000F091B304CF01019660E870E00E94FF1DF5
:1026F0009C018091B4049091B5042817390739F0F2
:10270000EE5CFB4F40833093B3042093B204FF91FF
:10271000EF91BF91AF919F918F917F916F915F9159
:102720004F913F912F910F900BBE0F900FBE0F90C6
:102730001F9018951F920F920FB60F920BB60F9223
:1027400011242F933F934F935F936F937F938F93B6
:102750009F93AF93BF93EF93FF934091D600E09187
:102760003605F0913705CF01019660E870E00E94D0
:10277000FF1D9C0180913805909139052817390774
:1027800039F0EA54FB4F40833093370520933605E8
:10279000FF91EF91BF91AF919F918F917F916F9139
:1027A0005F914F913F912F910F900BBE0F900FBEF5
:1027B0000F901F9018951F920F920FB60F920BB6A5
:1027C0000F9211242F933F934F935F936F937F93B7
:1027D0008F939F93AF93BF93EF93FF9340913601F5
:1027E000E091BA05F091BB05CF01019660E870E079
:1027F0000E94FF1D9C018091BC059091BD0528178A
:10280000390739F0E65CFA4F40833093BB052093DB
:10281000BA05FF91EF91BF91AF919F918F917F91F9
:102820006F915F914F913F912F910F900BBE0F9041
:102830000FBE0F901F901895AF92BF92CF92DF926C
:10284000EF92FF920F931F93CF93DF936C017A0166
:102850008B01DC011496AD90BC901597CB01BA01A9
:1028600022E030E040E050E00E94341E205C3D4B0E
:10287000404F5F4FCA01B901A80197010E94341E61
:10288000C901DA010197A109B109292F3A2F4B2F6C
:10289000552747FD5A950196A11DB11DE5012883D5
:1028A000E601EE81FF8181508083EA85FB852081EE
:1028B00041E050E0CA010E8402C0880F991F0A94BB
:1028C000E2F7282B2083EA85FB852081CA010F844B
:1028D00002C0880F991F0A94E2F7282B2083EA850B
:1028E000FB858081088802C0440F551F0A94E2F7D7
:1028F000842B8083DF91CF911F910F91FF90EF90F8
:10290000DF90CF90BF90AF900895DC011296ED91CB
:10291000FC911397E058FF4F8191919180589F4F00
:1029200020813181821B930B60E870E00E94FF1DC3
:102930000895CF93DF93DC011296ED91FC911397EC
:10294000EF01CE57DF4F48815981E058FF4F80811A
:102950009181E058F0408417950719F42FEF3FEF6D
:102960000CC0E40FF51F2081CA01019660E870E0F9
:102970000E94FF1D9983888330E0C901DF91CF91C8
:102980000895FC01A085B18521898C9190E0022EEB
:1029900002C0959587950A94E2F780FFF6CF0484EC
:1029A000F585E02D608308952AE432E03093BF0579
:1029B0002093BE058EEA93E09093C1058093C005F5
:1029C00085EC90E09093C3058093C20584EC90E081
:1029D0009093C5058093C40580EC90E09093C70563
:1029E0008093C60581EC90E09093C9058093C8055B
:1029F00086EC90E09093CB058093CA0574E07093C9
:102A0000CC0563E06093CD0557E05093CE0545E0DB
:102A10004093CF053093D1052093D00582E394E015
:102A20009093D3058093D2058DEC90E09093D505DB
:102A30008093D4058CEC90E09093D7058093D605D5
:102A400088EC90E09093D9058093D80589EC90E0CC
:102A50009093DB058093DA058EEC90E09093DD0592
:102A60008093DC057093DE056093DF055093E005ED
:102A70004093E1053093E3052093E20586EB94E073
:102A80009093E5058093E40585ED90E09093E7054C
:102A90008093E60584ED90E09093E9058093E80546
:102AA00080ED90E09093EB058093EA0581ED90E056
:102AB0009093ED058093EC0586ED90E09093EF0503
:102AC0008093EE057093F0056093F1055093F20545
:102AD0004093F3053093F5052093F4058AE395E0E0
:102AE0009093F7058093F60585E391E09093F905BF
:102AF0008093F80584E391E09093FB058093FA05B9
:102B000080E391E09093FD058093FC0581E391E0E3
:102B10009093FF058093FE0586E391E09093010674
:102B20008093000670930206609303065093040698
:102B3000409305060895DC01ED91FC910190F08130
:102B4000E02D099508950F931F93CF93DF938C0188
:102B5000EB0109C02196D801ED91FC910190F08123
:102B6000E02DC801099568816623A1F7DF91CF9117
:102B70001F910F9108950F931F938C01DC01ED912C
:102B8000FC910190F081E02D6DE00995D801ED9167
:102B9000FC910190F081E02DC8016AE009951F9138
:102BA0000F9108952F923F924F925F926F927F9272
:102BB0008F929F92AF92BF92CF92DF92EF92FF924D
:102BC0000F931F93DF93CF93CDB7DEB7A0970FB6C8
:102BD000F894DEBF0FBECDBF1C016A017B01411519
:102BE00051056105710549F4DC01ED91FC910190FD
:102BF000F081E02D60E3099554C0882499245401A4
:102C0000422E55246624772401E010E00C0F1D1F8E
:102C1000080D191DC701B601A30192010E94121EE1
:102C2000F80160830894811C911CA11CB11CC70190
:102C3000B601A30192010E94121EC901DA016C01C2
:102C40007D01C114D104E104F104F1F681E0E82E24
:102C5000F12CEC0EFD1EE80CF91C3E010894611CE1
:102C6000711CD501C4010197A109B1096C01C818F3
:102C7000D90814C0F601EE0DFF1D60816A3010F412
:102C8000605D01C0695CD101ED91FC910190F08122
:102C9000E02DC10109950894E108F1086E147F0444
:102CA00049F7A0960FB6F894DEBF0FBECDBFCF9107
:102CB000DF911F910F91FF90EF90DF90CF90BF9029
:102CC000AF909F908F907F906F905F904F903F90CC
:102CD0002F9008952AE00E94D2150895EF92FF9256
:102CE0000F931F93CF93DF93EC017A018B0177FF52
:102CF0000FC0E881F9810190F081E02D6DE2099526
:102D000010950095F094E094E11CF11C011D111D3B
:102D1000CE01B801A7012AE00E94D215DF91CF9120
:102D20001F910F91FF90EF900895AB01662757FD1B
:102D30006095762F0E946E1608950F931F938C0155
:102D4000AB01662757FD6095762F0E946E16C8016D
:102D50000E94BB151F910F910895DC0121153105CB
:102D600041F4ED91FC910190F081E02D642F0995E3
:102D700008952A30310519F40E946E1608950E94B4
:102D8000D21508959F92AF92BF92CF92DF92EF92A9
:102D9000FF920F931F93CF93DF93EC017A018B0186
:102DA000922ECB01BA0120E030E040E050E00E94DA
:102DB0001E1C882364F4E881F9810190F081E02DE4
:102DC000CE016DE2099517FB109517F9109520E0DB
:102DD00030E040E05FE3AA240BC0CA01B90120E063
:102DE00030E040E251E40E94221C9B01AC01A3941C
:102DF000A91498F3C801B7010E94BA1B5B016C01CA
:102E00000E948F1C7B018C01CE01B801A7010E949A
:102E10006A16992029F0CE0160E072E00E94A315A5
:102E2000C801B7010E94BB1C9B01AC01C601B501E2
:102E30000E94B91B20C020E030E040E251E40E9433
:102E4000711D7B018C010E948A1C5B016C01CC24EA
:102E5000B7FCC094DC2CCE01B601A5010E946E1611
:102E6000C601B5010E94BD1C9B01AC01C801B701A0
:102E70000E94B91B9A949920F1F6DF91CF911F918E
:102E80000F91FF90EF90DF90CF90BF90AF909F9009
:102E9000089522E00E94C2160895883008F078C094
:102EA000E82FF0E0EE0FFF1FEA5FF94F71836083B8
:102EB0008330D9F0843030F4813009F444C082305A
:102EC00060F439C0853051F18530D8F0863009F48E
:102ED00046C0873009F05CC04FC0809169008C7F8C
:102EE000842B80936900E89A089580916900440FCB
:102EF000551F440F551F837F842B80936900E99AE7
:102F000008958091690074E0440F551F7A95E1F7A8
:102F10008F7C842B80936900EA9A089580916900E0
:102F200066E0440F551F6A95E1F78F73842B8093F9
:102F30006900EB9A089580916A008C7F842B8093BE
:102F40006A00EC9A089580916A00440F551F440F5F
:102F5000551F837F842B80936A00ED9A089580919A
:102F60006A0024E0440F551F2A95E1F78F7C842BDB
:102F700080936A00EE9A089580916A0096E0440F6B
:102F8000551F9A95E1F78F73842B80936A00EF9A0F
:102F900008951F920F920FB60F920BB60F92112445
:102FA0002F933F934F935F936F937F938F939F9351
:102FB000AF93BF93EF93FF9380910A0690910B0616
:102FC000892B29F0E0910A06F0910B060995FF91F3
:102FD000EF91BF91AF919F918F917F916F915F9191
:102FE0004F913F912F910F900BBE0F900FBE0F90FE
:102FF0001F9018951F920F920FB60F920BB60F925B
:1030000011242F933F934F935F936F937F938F93ED
:103010009F93AF93BF93EF93FF9380910C06909192
:103020000D06892B29F0E0910C06F0910D0609950B
:10303000FF91EF91BF91AF919F918F917F916F9190
:103040005F914F913F912F910F900BBE0F900FBE4C
:103050000F901F9018951F920F920FB60F920BB6FC
:103060000F9211242F933F934F935F936F937F930E
:103070008F939F93AF93BF93EF93FF9380910E062F
:1030800090910F06892B29F0E0910E06F0910F0622
:103090000995FF91EF91BF91AF919F918F917F9192
:1030A0006F915F914F913F912F910F900BBE0F90B9
:1030B0000FBE0F901F9018951F920F920FB60F9290
:1030C0000BB60F9211242F933F934F935F936F93FF
:1030D0007F938F939F93AF93BF93EF93FF938091D1
:1030E000100690911106892B29F0E0911006F091BD
:1030F00011060995FF91EF91BF91AF919F918F912B
:103100007F916F915F914F913F912F910F900BBEE7
:103110000F900FBE0F901F9018951F920F920FB631
:103120000F920BB60F9211242F933F934F935F93FF
:103130006F937F938F939F93AF93BF93EF93FF937F
:103140008091060690910706892B29F0E0910606EA
:10315000F09107060995FF91EF91BF91AF919F9173
:103160008F917F916F915F914F913F912F910F9030
:103170000BBE0F900FBE0F901F9018951F920F92CD
:103180000FB60F920BB60F9211242F933F934F93CC
:103190005F936F937F938F939F93AF93BF93EF93BF
:1031A000FF938091080690910906892B29F0E09100
:1031B0000806F09109060995FF91EF91BF91AF9133
:1031C0009F918F917F916F915F914F913F912F913F
:1031D0000F900BBE0F900FBE0F901F9018951F926F
:1031E0000F920FB60F920BB60F9211242F933F93AD
:1031F0004F935F936F937F938F939F93AF93BF93FF
:10320000EF93FF938091120690911306892B29F07A
:10321000E0911206F09113060995FF91EF91BF918D
:10322000AF919F918F917F916F915F914F913F915E
:103230002F910F900BBE0F900FBE0F901F901895FF
:103240001F920F920FB60F920BB60F9211242F936D
:103250003F934F935F936F937F938F939F93AF931E
:10326000BF93EF93FF938091140690911506892BDD
:1032700029F0E0911406F09115060995FF91EF9160
:10328000BF91AF919F918F917F916F915F914F917E
:103290003F912F910F900BBE0F900FBE0F901F907C
:1032A00018951F920F920FB60F9211242F938F93A0
:1032B0009F93AF93BF938091160690911706A091AC
:1032C0001806B09119060196A11DB11D809316062E
:1032D00090931706A0931806B093190680911A06CA
:1032E00090911B06A0911C06B0911D068050904C39
:1032F000AF4FBF4F80931A0690931B06A0931C06F6
:10330000B0931D0627C080911A0690911B06A091CC
:103310001C06B0911D0680589E43A040B04080938B
:103320001A0690931B06A0931C06B0931D0680916D
:103330001E0690911F06A0912006B09121060196CD
:10334000A11DB11D80931E0690931F06A093200619
:10335000B093210680911A0690911B06A0911C063D
:10336000B0911D0681589E43A040B04060F6BF91C9
:10337000AF919F918F912F910F900FBE0F901F9043
:1033800018958FB7F89420911E0630911F06409132
:103390002006509121068FBFB901CA010895EF920E
:1033A000FF920F931F937B018C018FB7F89440918C
:1033B0001E0650911F0660912006709121068FBF56
:1033C0002FB7F89480911E0690911F06A0912006B9
:1033D000B09121062FBF841B950BA60BB70BE816E7
:1033E000F9060A071B0760F71F910F91FF90EF90F6
:1033F0000895789484B5826084BD84B5816084BD6D
:1034000085B5826085BD85B5816085BDEEE6F0E05D
:10341000808181608083E1E8F0E080818260808348
:10342000808181608083E0E8F0E08081816080833A
:10343000E1EBF0E0808184608083E0EBF0E080816C
:1034400081608083E1E9F0E0808182608083808117
:1034500081608083E1EAF0E0808182608083808106
:1034600081608083E1E2F1E08081826080838081FD
:1034700081608083E0E9F0E0808181608083E0EA20
:10348000F0E0808181608083E0E2F1E08081816012
:103490008083EAE7F0E080818460808380818260BD
:1034A00080838081816080838081806880831092A6
:1034B000C1000895809345020895382F37702091F8
:1034C00045022295220F220F207C232B20937C0083
:1034D00020917B0086958695869590E0817090700E
:1034E00033E0880F991F3A95E1F7277F282B209327
:1034F0007B0080917A00806480937A0080917A00CA
:1035000086FDFCCF2091780040917900942F80E0D7
:1035100030E0282B392BC9010895282F30E0C9014C
:1035200088589E4FFC0194912E5C3E4FF901849186
:10353000882391F0E82FF0E0EE0FFF1FEC51FF4FD2
:10354000A591B491662329F48C91909589238C934D
:1035500008958C91892B8C930895482F50E0CA01CF
:1035600082549E4FFC012491CA0188589E4FFC0151
:1035700094914E5C5E4FFA013491332309F477C085
:10358000222309F462C0233021F4809180008F77D8
:1035900005C0243031F4809180008F7D80938000BD
:1035A00054C0213019F484B58F7704C0223021F43F
:1035B00084B58F7D84BD49C0263021F48091B00050
:1035C0008F7705C0273031F48091B0008F7D8093D4
:1035D000B0003BC0283021F4809190008F7705C067
:1035E000293031F4809190008F7D809390002DC020
:1035F0002A3021F480919000877FF7CF2B3021F47F
:103600008091A0008F770BC02C3021F48091A00016
:103610008F7D05C02D3031F48091A000877F80938D
:10362000A00013C02E3021F4809120018F770BC0B1
:103630002F3021F4809120018F7D05C0203129F4A5
:1036400080912001877F80932001E32FF0E0EE0F2F
:10365000FF1FE250FF4FA591B491662329F48C918E
:10366000909589238C9308958C91892B8C93089540
:10367000DF92EF92FF920F931F93A82FB0E0CD013E
:1036800088589E4FFC01D490AE5CBE4FFD018491E2
:10369000662311F490E001C09D2D6FEFE62E6FEFD1
:1036A000F62E6FEF062F6FE0162FE222F32204238F
:1036B0001523682F70E0660F771F685E7E4F20E04D
:1036C00030E040E050E0FB01A591B4910AC02E1516
:1036D0003F054007510709F440C02F5F3F4F4F4F50
:1036E0005F4F8C918D21891791F30AC02E153F05EC
:1036F0004007510791F12F5F3F4F4F4F5F4F03C07E
:10370000FB01A591B4918C918D21891779F720E067
:1037100030E040E050E0FB01A591B49104C02F5F80
:103720003F4F4F4F5F4F8C918D218917C1F3CA01D5
:10373000B9012AE030E040E050E00E94D41D9B0136
:10374000AC01205F3F4F4F4F5F4F84E05695479548
:10375000379527958A95D1F704C020E030E040E006
:1037600050E0B901CA011F910F91FF90EF90DF90D7
:1037700008955058BB27AA270ED075C166D130F0E6
:103780006BD120F031F49F3F11F41EF45BC10EF4B5
:10379000E095E7FB51C1E92F77D180F3BA176207B3
:1037A00073078407950718F071F49EF58FC10EF426
:1037B000E0950B2EBA2FA02D0B01B90190010C0141
:1037C000CA01A0011124FF27591B99F0593F50F459
:1037D000503E68F11A16F040A22F232F342F4427B1
:1037E000585FF3CF469537952795A795F0405395A9
:1037F000C9F77EF41F16BA0B620B730B840BBAF079
:103800009150A1F0FF0FBB1F661F771F881FC2F7E3
:103810000EC0BA0F621F731F841F48F487957795F7
:103820006795B795F7959E3F08F0B3CF9395880FAE
:1038300008F09927EE0F979587950895D9D008F449
:1038400081E008950CD00FC107D140F0FED030F0D8
:1038500021F45F3F19F0F0C0511139C1F3C014D108
:1038600098F39923C9F35523B1F3951B550BBB2747
:10387000AA2762177307840738F09F5F5F4F220FF4
:10388000331F441FAA1FA9F333D00E2E3AF0E0E8ED
:1038900030D091505040E695001CCAF729D0FE2F39
:1038A00027D0660F771F881FBB1F261737074807CB
:1038B000AB07B0E809F0BB0B802DBF01FF27935881
:1038C0005F4F2AF09E3F510568F0B6C000C15F3FD0
:1038D000ECF3983EDCF3869577956795B795F79569
:1038E0009F5FC9F7880F911D9695879597F9089561
:1038F000E1E0660F771F881FBB1F621773078407FD
:10390000BA0720F0621B730B840BBA0BEE1F88F70B
:10391000E095089504D06894B111D9C00895BCD041
:1039200088F09F5790F0B92F9927B751A0F0D1F0A8
:10393000660F771F881F991F1AF0BA95C9F712C032
:10394000B13081F0C3D0B1E00895C0C0672F782FA7
:103950008827B85F39F0B93FCCF38695779567959E
:10396000B395D9F73EF490958095709561957F4F0A
:103970008F4F9F4F0895E89409C097FB3EF49095B0
:103980008095709561957F4F8F4F9F4F9923A9F038
:10399000F92F96E9BB279395F695879577956795C7
:1039A000B795F111F8CFFAF4BB0F11F460FF1BC00B
:1039B0006F5F7F4F8F4F9F4F16C0882311F096E99E
:1039C00011C0772321F09EE8872F762F05C066234C
:1039D00071F096E8862F70E060E02AF09A95660F05
:1039E000771F881FDAF7880F9695879597F90895BE
:1039F000990F0008550FAA0BE0E8FEEF1616170600
:103A0000E807F907C0F012161306E407F50798F067
:103A1000621B730B840B950B39F40A2661F0232B80
:103A2000242B252B21F408950A2609F4A140A695FC
:103A30008FEF811D811D089597F99F6780E870E0E1
:103A400060E008959FEF80EC089500240A94161614
:103A5000170618060906089500240A94121613067C
:103A6000140605060895092E0394000C11F488230A
:103A700052F0BB0F40F4BF2B11F460FF04C06F5F26
:103A80007F4F8F4F9F4F089557FD9058440F551FFC
:103A900059F05F3F71F04795880F97FB991F61F0D0
:103AA0009F3F79F087950895121613061406551F47
:103AB000F2CF4695F1DF08C0161617061806991FB3
:103AC000F1CF86957105610508940895E894BB27A8
:103AD00066277727CB0197F908958ADF08F48FEFDF
:103AE00008950BD0C0CFB1DF28F0B6DF18F09523D2
:103AF00009F0A2CFA7CF1124EACFC6DFA0F3959F8C
:103B0000D1F3950F50E0551F629FF001729FBB27C4
:103B1000F00DB11D639FAA27F00DB11DAA1F649F70
:103B20006627B00DA11D661F829F2227B00DA11D23
:103B3000621F739FB00DA11D621F839FA00D611DA9
:103B4000221F749F3327A00D611D231F849F600DCA
:103B5000211D822F762F6A2F11249F5750408AF003
:103B6000E1F088234AF0EE0FFF1FBB1F661F771F8F
:103B7000881F91505040A9F79E3F510570F05CCFCF
:103B8000A6CF5F3FECF3983EDCF38695779567957B
:103B9000B795F795E7959F5FC1F7FE2B880F911DAD
:103BA0009695879597F90895629FD001739FF001CC
:103BB000829FE00DF11D649FE00DF11D929FF00DBD
:103BC000839FF00D749FF00D659FF00D9927729FF4
:103BD000B00DE11DF91F639FB00DE11DF91FBD017F
:103BE000CF0111240895991B79E004C0991F9617FD
:103BF00008F0961B881F7A95C9F78095089597FB62
:103C0000092E07260AD077FD04D049D006D000201F
:103C10001AF4709561957F4F0895F6F79095819508
:103C20009F4F0895A1E21A2EAA1BBB1BFD010DC0D8
:103C3000AA1FBB1FEE1FFF1FA217B307E407F5075C
:103C400020F0A21BB30BE40BF50B661F771F881F38
:103C5000991F1A9469F760957095809590959B01CE
:103C6000AC01BD01CF01089597FB092E05260ED0AA
:103C700057FD04D0D7DF0AD0001C38F4509540958A
:103C8000309521953F4F4F4F5F4F0895F6F7909530
:103C90008095709561957F4F8F4F9F4F0895AA1B18
:103CA000BB1B51E107C0AA1FBB1FA617B70710F027
:103CB000A61BB70B881F991F5A95A9F78095909559
:103CC000BC01CD010895EE0FFF1F0590F491E02D8A
:103CD0000994911106C0803219F089508550D0F7AF
:103CE00008959927882708952F923F924F925F92C7
:103CF0006F927F928F929F92AF92BF92CF92DF92FC
:103D0000EF92FF920F931F93CF93DF93CDB7DEB760
:103D1000CA1BDB0B0FB6F894DEBF0FBECDBF0994F4
:103D20002A88398848885F846E847D848C849B844B
:103D3000AA84B984C884DF80EE80FD800C811B8159
:103D4000AA81B981CE0FD11D0FB6F894DEBF0FBE88
:0A3D5000CDBFED010895F894FFCFF8
:103D5A002E00040003000500010000000200E80331
:103D6A00E803E803E8036EA3893F0080BB44000030
:103D7A00050004000100030002000200050007001C
:103D8A00030004000600DC05DC05DC05E803DC05AD
:0C3D9A00DC05DC05580100000000C1142D
:00000001FF
