:100000000C9481000C9471150C949E150C94A9000D
:100010000C94A9000C94A9000C94A9000C94A900BC
:100020000C94A9000C94C8020C94A9000C94A9008B
:100030000C94A9000C94A9000C94A9000C94A9009C
:100040000C94CB150C94A9000C9470120C94A9007C
:100050000C94A9000C94A9000C94A9000C94A9007C
:100060000C94A9000C94A9000000000024002700B3
:100070002A0000000000250028002B0000000000DE
:1000800023002600290004040404040404040202DA
:100090000202020203030303030301020408102007
:1000A0004080010204081020010204081020000012
:1000B0000007000201000003040600000000000029
:1000C0000000494E46494E4954594E414ECDCCCC84
:1000D0003D0AD7233C17B7D13877CC2B329595E61C
:1000E000241FB14F0A000020410000C84200401CFC
:1000F0004620BCBE4CCA1B0E5AAEC59D7400A5045A
:10010000651311241FBECFEFD8E0DEBFCDBF11E0D5
:10011000A0E0B1E0E0E6F5E302C005900D92AC345A
:10012000B107D9F713E0ACE4B1E001C01D92A635E8
:10013000B107E1F710E0C2E0D1E004C02297FE0170
:100140000E94681ACE3FD107C9F70E9469120C9429
:10015000AE1A0C940000662777270C94AF00A0E03D
:10016000B0E0E5EBF0E00C947D1AEC015B01611569
:10017000710519F0FB0191838083F9908F2D90E038
:100180000E946C1A892BC9F7FDE2FF1621F4F99041
:10019000EE24E39405C02BE2F21609F4F990EE2464
:1001A0008E0101501040C80162EC70E043E050E065
:1001B0000E940F02892B01F58E010E5F1F4FC801AF
:1001C00065EC70E045E050E00E940F02892B19F4C5
:1001D0008E01095F1F4FA114B10419F0F5011183BD
:1001E0000083E0FC04C070E090E080E814C070E0A0
:1001F00090E080E86FEF08C1C8016AEC70E043E06E
:1002000050E00E940F02892B69F4A114B10429F473
:1002100070E090E080EC6FE7F7C02296F501D183A3
:10022000C083F6CF8824992440E050E060E070E07D
:10023000EF2DE053EA30A0F5F2E0EF2A8E2D90E0AA
:100240009C0128703070E2FE06C0232B79F50894DB
:10025000811C911C2BC0232B19F008948108910854
:10026000DB01CA0112E0880F991FAA1FBB1F1A9554
:10027000D1F7480F591F6A1F7B1F440F551F661F78
:10028000771F4E0F511D611D711D483929E9520715
:1002900029E9620729E1720748F084E0E82A06C0EC
:1002A000EE3F31F4E3FC39C098E0E92AF990C0CF81
:1002B000E53311F0E53189F529912D3219F4E0E1AA
:1002C000EE2A05C02B3219F081E090E003C029919D
:1002D00082E090E0E22FE053EA3018F0C81BD90B1F
:1002E0001CC020E030E0FCE020383F075CF4C9018E
:1002F000880F991F880F991F280F391F220F331F4E
:100300002E0F311DE991E053EA3068F3E4FE03C09B
:10031000309521953F4F820E931ECE2CDD24E1FEB9
:1003200007C0A114B10421F02197F501D183C08346
:10033000CB01BA010E94BE187B018C01F3E0CF22F1
:10034000DD2423E0C216D10421F417FB109517F920
:10035000109557016801C801B70120E030E040E086
:1003600050E00E942118882309F44AC097FE0DC06E
:1003700021EEE22E20E0F22E909481949108939445
:10038000C0E2D0E000E010E012C099EFE92E90E06A
:10039000F92EF6CFF7012591359145915491C6017B
:1003A000B5010E9474195B016C018C1A9D0A8C16B0
:1003B0009D0684F7D595C7950F5F1F4F0630110531
:1003C00029F08CEF9FEFE80EF91EF1CFC501D601A1
:1003D0007C018D018C2D880F8D2D881F8F3F51F052
:1003E000C601B50120E030E040E050E00E94211855
:1003F000882331F482E290E0909355038093540374
:100400007E2D9F2D802F612F272F392F482F562F7C
:10041000B901CA01CDB7DEB7ECE00C94991AFB0123
:10042000DC014150504088F08D9181341CF08B35B7
:100430000CF4805E659161341CF06B350CF4605EE9
:10044000861B611171F3990B0895881BFCCFF999F4
:10045000FECF72BD61BDF89A80B50895F999FECFBF
:100460001FBA72BD61BD40BD0FB6F894FA9AF99AF1
:100470000FBE0895FC0180914D01843028F48F5FF8
:1004800080934D018083089510820895FC0120819E
:10049000822F8150843050F582E06E3E78071CF444
:1004A0006EEE72E006C088E06B3C780714F06AECF0
:1004B00078E0AB014850504030E0CA01880F892FE6
:1004C000881F990BF901EE0FFF1FE20FF31FE25B8C
:1004D000FE4F818390E09695982F88279795879572
:1004E000841B950B880F991F8150828308951F9359
:1004F000CF93DF93EC01162F80915D01882311F5D6
:10050000E2E5F1E02BE097E5843010F4208391835D
:100510008F5F33968430C1F78FE080934F01109244
:100520005E0110925F01109270001092B00082E0A4
:100530008093B1001092B20081E087BB809370007D
:1005400080935D0188818823F1F0812F61E00E9412
:10055000CE16888190E0FC01EE0FFF1FE80FF91F17
:10056000E25BFE4F1F718081807E812B80838881BA
:1005700090E0FC01EE0FFF1FE80FF91FE25BFE4F5A
:100580008081806280838881DF91CF911F9108955F
:100590001F920F920FB60F9211242F933F934F93F8
:1005A0005F936F937F938F939F93AF93BF93EF93DB
:1005B000FF9380915F018F5F80935F0120915F01C6
:1005C00080915E0190E0FC01EE0FFF1FE80FF91F24
:1005D000E25BFE4F8181281771F480915E0190E00B
:1005E000FC01EE0FFF1FE80FF91FE25BFE4F828157
:1005F0008093B20061C020915F0180915E0190E024
:10060000FC01EE0FFF1FE80FF91FE25BFE4F818137
:10061000821708F051C080915E0190E0FC01EE0F5E
:10062000FF1FE80FF91FE25BFE4F808185FF0FC0BF
:1006300080915E0190E0FC01EE0FFF1FE80FF91FB3
:10064000E25BFE4F80818F7160E00E94EE16809128
:100650005E018F5F80935E0110925F011092B20085
:1006600080915E01882321F180915E01853000F543
:1006700080915E0190E0FC01EE0FFF1FE80FF91F73
:10068000E25BFE4F808185FF17C080915E0190E0A4
:10069000FC01EE0FFF1FE80FF91FE25BFE4F8081A8
:1006A0008F7161E00E94EE1607C010925E0104C0D7
:1006B00080915E018530C8F7FF91EF91BF91AF91B6
:1006C0009F918F917F916F915F914F913F912F916A
:1006D0000F900FBE0F901F901895EF92FF920F93FF
:1006E0001F937B018C012AE037ED43E25CE30E941B
:1006F000BD179B01AC01C801B7010E9425189B01E1
:10070000AC016093B6017093B7018093B8019093E8
:10071000B90160E070E080E89FE30E94BC1760933D
:10072000BA017093BB018093BC019093BD011F91EE
:100730000F91FF90EF9008952F923F924F925F920A
:100740006F927F928F929F92AF92BF92CF92DF92E1
:10075000EF92FF920F931F93DF93CF9300D000D0BF
:1007600000D0CDB7DEB719012A011E830D830E9488
:10077000BC1769837A838B839C83F8012089318934
:10078000428953890E94BD177B018C01ED81FE8156
:10079000608B718B828B938BA0909202B0909302AE
:1007A000C0909402D09095023501460197FA90943A
:1007B00097F89094A40193010E94211888233CF497
:1007C000ED81FE81608A718A828A938A0EC0C80197
:1007D000B701A60195010E947019181634F4ED8135
:1007E000FE81A08AB18AC28AD38AC201B101ED8199
:1007F000FE8124853585468557850E94BC17ED818D
:10080000FE8120853185428553850E9474195B01E4
:100810006C01ED81FE812486358646865786698186
:100820007A818B819C8120813181428153810E9418
:1008300074197B018C01ED81FE8164817581868153
:10084000978120893189428953890E9474199B01BB
:10085000AC01C801B7010E94BD17A60195010E9415
:10086000BD1726960FB6F894DEBF0FBECDBFCF9151
:10087000DF911F910F91FF90EF90DF90CF90BF908D
:10088000AF909F908F907F906F905F904F903F9030
:100890002F900895FF920F931F93CF93DF93EC0156
:1008A0008B016150704028C0D901AA0FBB1FAC0F4B
:1008B000BD1F4D915C911197F9013196EE0FFF1F0D
:1008C000EC0FFD1F20813181241735072CF4518353
:1008D00040832D933C9390E08F5F282F30E02617C4
:1008E000370714F3913041F480E0A0E0B0E040E03D
:1008F00050E060E070E01CC091E080E0EECFEE0FD1
:10090000FF1FEC0FFD1F20813181A217B30724F4D4
:10091000D90141E050E005C02A173B0711F44F5FB1
:100920005F4F641775071CF4922FF32EBA018F5F87
:10093000E82FF0E0E017F10714F3892F9F2DDF91E6
:10094000CF911F910F91FF90089580E691E00E9452
:100950003A0281E691E00E943A0282E691E00E942A
:100960003A0283E691E00E943A0208952F923F9264
:100970004F925F926F927F928F929F92AF92BF92AF
:10098000CF92DF92EF92FF920F931F93CF93DF935B
:10099000809199028F5F809399028091990265E01E
:1009A0000E94F619992309F07DC010927B011092E4
:1009B0007A0121C0EE0FFF1FDF01A25EBE4F0D9135
:1009C0001C91E65DFE4F808161E028EA31E640E05F
:1009D00050E00E943B17000F111F02591E4FF801F3
:1009E0007183608380917A0190917B01019690934D
:1009F0007B0180937A01E0917A01F0917B01E630EE
:100A0000F105C4F260907C0170907D0180907E01C0
:100A100090907F017EE3272E71E0372E66E3462E0D
:100A200061E0562EC0E0D0E02EC0FE01EE0FFF1FA9
:100A3000E259FE4F60817181F101E190F1901F0157
:100A40006E197F09882777FD8095982F0E94C0181E
:100A5000A40193010E9474195B016C010027F7FC4B
:100A60000095102FC801B7010E94C0189B01AC016E
:100A7000C601B5010E94BD170E948D18F201619355
:100A800071932F012196C330D1057CF2D09381015F
:100A9000C0938001809174019091750190933D0104
:100AA00080933C018091990265E00E94F619923092
:100AB00019F481E080939802DF91CF911F910F91FB
:100AC000FF90EF90DF90CF90BF90AF909F908F906E
:100AD0007F906F905F904F903F902F90089580E0AF
:100AE00066EB74E043E050E00E944E15089582E307
:100AF00093E06CE20E949C130895109298028091FA
:100B00004401823509F4A3C2833534F4813471F091
:100B1000843409F0C5C219C1843509F42BC2843567
:100B20000CF491C0853509F0BBC246C14091A202C8
:100B30005091A3026091A4027091A50282E393E018
:100B40000E946F140E94770510928101109280011B
:100B500015C0EE0FFF1FE456FE4F6081718182E3E6
:100B600093E00E9496140E947705809180019091F5
:100B7000810101969093810180938001E091800131
:100B8000F0918101E330F10524F3609174017091DB
:100B9000750182E393E00E9496140E9477051092FB
:100BA00081011092800115C0EE0FFF1FEC59FE4F1E
:100BB0006081718182E393E00E9496140E94770520
:100BC00080918001909181010196909381018093A1
:100BD0008001E0918001F0918101E330F10524F37F
:100BE00010926B0110926A0115C0EE0FFF1FE25FB9
:100BF000FE4F6081718182E393E00E9496140E940F
:100C0000770580916A0190916B01019690936B0139
:100C100080936A01E0916A01F0916B01E430F10583
:100C200024F34091960250E060E070E082E393E0AC
:100C300022E030E00E94AE140E94770560917601B8
:100C400070917701FFC1109281011092800115C04F
:100C5000EE0FFF1FE855FE4F6081718182E393E044
:100C60000E9496140E9477058091800190918101E5
:100C700001969093810180938001E0918001F09131
:100C80008101E330F10524F310928101109280017B
:100C900015C0EE0FFF1FE257FE4F6081718182E3A6
:100CA00093E00E9496140E947705809180019091B4
:100CB000810101969093810180938001E0918001F0
:100CC000F0918101E330F10524F31092810110923B
:100CD000800115C0EE0FFF1FEC56FE4F6081718141
:100CE00082E393E00E9496140E9477058091800130
:100CF0009091810101969093810180938001E09110
:100D00008001F0918101E230F10524F34091AE01C0
:100D10005091AF016091B0017091B10182E393E015
:100D20000E944A150E9477054091B2015091B3018B
:100D30006091B4017091B50182E393E00E944A157D
:100D400082E393E00E94BC13089581E00E94B016F4
:100D5000BC0182E393E00E9496140E94770580E034
:100D60000E94B016BC0182E393E00E9496140E9498
:100D7000770582E00E94B016BC0182E393E00E94F6
:100D800096140E94770585E00E94B016BC0182E3AC
:100D900093E00E9496140E94770584E00E94B016AA
:100DA000BC0182E393E00E9496140E94770583E0E1
:100DB0000E94B016BC0146C140912E0250912F02F4
:100DC000609130027091310282E393E00E944A15F3
:100DD0000E947705409132025091330260913402B3
:100DE0007091350282E393E00E944A150E947705D4
:100DF0004091360250913702609138027091390269
:100E000082E393E00E944A150E94770540916A02AE
:100E100050916B0260916C0270916D0282E393E0DD
:100E20000E944A150E94770540916E0250916F0210
:100E3000609170027091710282E393E00E944A1502
:100E40000E94770540917202509173026091740282
:100E50007091750282E393E00E944A150E94770523
:100E60004091560250915702609158027091590278
:100E700082E393E00E944A150E94770540915A024E
:100E800050915B0260915C0270915D0282E393E09D
:100E90000E944A150E94770540915E0250915F02C0
:100EA000609160027091610282E393E00E944A15B2
:100EB0000E947705409192025091930260919402B2
:100EC0007091950282E393E00E944A150E94770593
:100ED000609198017091990182E393E00E949614C9
:100EE0000E94770560919A0170919B0182E393E0E3
:100EF0000E9496140E94770540917C0150917D01DB
:100F000060917E0170917F0182E393E00E944A1517
:100F10000E94770540912602509127026091280295
:100F20007091290282E393E00E944A150E9477059E
:100F300040912A0250912B0260912C0270912D0257
:100F400082E393E00E944A150E9477054091BE011A
:100F50005091BF016091C0017091C10182E393E0A3
:100F60000E944A1582E393E00E94BC1388E58093B7
:100F70004401089540917C0150917D0160917E0172
:100F800070917F0182E393E00E944A150E947705E9
:100F9000109281011092800115C0EE0FFF1FEA5CD4
:100FA000FE4F6081718182E393E00E9496140E945B
:100FB0007705809180019091810101969093810144
:100FC00080938001E0918001F0918101E330F1058F
:100FD00024F3109281011092800115C0EE0FFF1FC3
:100FE000EC56FE4F6081718182E393E00E9496147B
:100FF0000E947705809180019091810101969093E4
:10100000810180938001E0918001F0918101E230C3
:10101000F10524F3609164017091650182E393E02E
:101020000E9496140E947705609166017091670195
:1010300082E393E00E9496140E9477056091680114
:101040007091690182E393E00E949E1408951092CA
:101050007B0110927A0115C0EE0FFF1FE259FE4F7F
:101060006081718182E393E00E9496140E9477056B
:1010700080917A0190917B01019690937B018093FE
:101080007A01E0917A01F0917B01E530F10524F3DA
:10109000609178017091790182E393E00E949E143F
:1010A00008950F931F93CF93DF93109281011092B5
:1010B00080012BC0E0918001F0918101EE0FFF1FB4
:1010C000EE5FFE4F80810E94B0168993999382E073
:1010D000C632D80779F7009180011091810182EC26
:1010E00091E062E370E00E944A04000F111F0E5568
:1010F0001E4FF8019183808380918001909181013E
:10110000019690938101809380018091800190915C
:10111000810103971CF4C2ECD1E0CCCFDF91CF91D9
:101120001F910F910895EF92FF920F931F93DF93FA
:10113000CF93CDB7DEB7C058D0400FB6F894DEBF1E
:101140000FBECDBF19821A821B821C82FE0135960A
:101150008CE7DF011D928A95E9F700E010E07E013F
:101160000894E11CF11C82E393E00E94161388238B
:1011700041F46AE070E080E090E00E9449161F5F51
:101180000AC082E393E00E942A13F701E00FF11DE9
:1011900080830F5F10E0802F90E00197BFEF8F3FBB
:1011A0009B0719F4E0E0F0E006C0FC0181389105EE
:1011B00014F0E0E8F0E0EE0DFF1D80818B3321F0AC
:1011C000153010F407FFCFCFCE0101960E94AB007F
:1011D000C058DF4F0FB6F894DEBF0FBECDBFCF9122
:1011E000DF911F910F91FF90EF9008950F931F9340
:1011F0008C0180E691E0B8010E94460281E691E010
:10120000B8010E94460282E691E0B8010E944602BF
:1012100083E691E0B8010E9446021F910F91089564
:101220000F931F93082F10E015C08AE194E00E94ED
:10123000F6086AEF70E080E090E00E94491688EEC0
:1012400093E00E94F6086AEF70E080E090E00E9470
:1012500049161F5F101748F31F910F910895609171
:101260000E0170910F0180E691E00E9446026091AC
:1012700010017091110181E691E00E944602609197
:1012800012017091130182E691E00E944602609182
:1012900014017091150183E691E00E9446020895C1
:1012A00080E691E068E070E00E94770281E691E0DC
:1012B00069E070E00E94770282E691E06AE070E007
:1012C0000E94770283E691E06BE070E00E94770273
:1012D0000895CF92DF92EF92FF920F931F93DF93C7
:1012E000CF9300D000D0CDB7DEB77A0169837A837F
:1012F0008B839C8300E010E06E010894C11CD11C1C
:10130000B8016E0D7F1DF601E00FF11F8CE491E036
:1013100040810E942E020F5F1F4F0430110581F79C
:101320000F900F900F900F90CF91DF911F910F9121
:10133000FF90EF90DF90CF90089582E393E00E94BA
:101340001613882309F4E3C18DE060E00E94EE16D5
:1013500082E393E00E942A1380934401833409F0CE
:10136000EBC00E94930860932E0270932F0280932B
:101370003002909331020E9493086093320270937E
:10138000330280933402909335020E949308609355
:10139000360270933702809338029093390280E0CE
:1013A00090E0A0E0B0E080933A0290933B02A093DB
:1013B0003C02B0933D0280933E0290933F02A09383
:1013C0004002B0934102E2E4F2E0DF01549784E18D
:1013D0000D9001928150E1F70E94930860936A0298
:1013E00070936B0280936C0290936D020E9493083D
:1013F00060936E0270936F028093700290937102FB
:101400000E94930860937202709373028093740237
:101410009093750280E090E0A0E0B0E080937602C7
:1014200090937702A0937802B093790280937A0226
:1014300090937B02A0937C02B0937D02EEE7F2E0F2
:10144000DF01549784E10D9001928150E1F70E94F1
:1014500093086093560270935702809358029093BA
:1014600059020E94930860935A0270935B02809322
:101470005C0290935D020E94930860935E027093F9
:101480005F02809360029093610280E090E0A0E0B0
:10149000B0E08093620290936302A0936402B093E1
:1014A00065028093660290936702A0936802B093EE
:1014B00069020E9493086093920270939302809352
:1014C0009402909395020E9493080E948D18709345
:1014D0009901609398010E9493080E948D1870935F
:1014E0009B0160939A010E94930860937C01709322
:1014F0007D0180937E0190937F010E949308609309
:1015000026027093270280932802909329020E945A
:10151000930860932A0270932B0280932C0290937D
:101520002D020E9493086093BE017093BF018093C7
:10153000C0019093C101E7C0873509F0E4C0609114
:101540002E0270912F02809130029091310240E082
:1015500050E00E94690960913202709133028091DB
:1015600034029091350244E050E00E946909609194
:10157000360270913702809138029091390248E02A
:1015800050E00E94690960916A0270916B0280913B
:101590006C0290916D024CE050E00E9469096091EC
:1015A0006E0270916F02809170029091710240E121
:1015B00050E00E94690960917202709173028091FB
:1015C00074029091750244E150E00E9469096091B3
:1015D000560270915702809158029091590248E149
:1015E00050E00E94690960915A0270915B028091FB
:1015F0005C0290915D024CE150E00E9469096091AB
:101600005E0270915F02809160029091610240E2FF
:1016100050E00E946909609192027091930280915A
:1016200094029091950244E250E00E946909609111
:10163000980170919901882777FD8095982F0E94D5
:10164000C01848E250E00E94690960919A017091C7
:101650009B01882777FD8095982F0E94C0184CE247
:1016600050E00E94690960917C0170917D01809138
:101670007E0190917F0140E350E00E9469096091F2
:10168000260270912702809128029091290244E35A
:1016900050E00E94690960912A0270912B028091AA
:1016A0002C0290912D0248E350E00E94690960915C
:1016B000BE017091BF018091C0019091C10148E4C9
:1016C00050E00E946909EEE3F2E080E090E020E063
:1016D00030E040E050E006C02083318342835383F2
:1016E0000196749685309105BCF3909381018093A7
:1016F00080016091BE017091BF018091C001909105
:10170000C1010E946D038DE061E00E94EE16089514
:101710000F931F93CF93DF9310928101109280015A
:101720002BC0E0918001F0918101EE0FFF1FE85F77
:10173000FE4F80810E94B0168993999382E0C63251
:10174000D80779F7009180011091810182EC91E036
:1017500062E370E00E944A04000F111F08571E4FF9
:10176000F80191838083809180019091810101969D
:1017700090938101809380018091800190918101FB
:1017800002971CF4C2ECD1E0CCCF8BEF91E09093A8
:101790008D0180938C016091880170918901882767
:1017A00077FD8095982F0E94C01840E450E00E9479
:1017B000690960918A0170918B01882777FD809576
:1017C000982F0E94C0184CE350E00E946909609174
:1017D0008C0170918D01882777FD8095982F0E944C
:1017E000C01844E450E00E946909DF91CF911F9135
:1017F0000F910895CF92DF92EF92FF920F931F9374
:10180000DF93CF9300D000D0CDB7DEB77C0100E0EE
:1018100010E06E010894C11CD11CB8016E0D7F1D33
:101820008CE491E00E942702F601E00FF11F808313
:101830000F5F1F4F0430110581F729813A814B81D9
:101840005C81B901CA010F900F900F900F90CF915A
:10185000DF911F910F91FF90EF90DF90CF9008954F
:10186000AF92BF92CF92DF92EF92FF920F931F93AE
:10187000CF93DF93109281011092800164E1E62EF4
:10188000F12C0F2EF0E0AF2EF0E0BF2EF0E0CF2EC7
:10189000F0E0DF2EF02D59C080E090E00E94FA0BBE
:1018A000CE9DF001CF9DF00DDE9DF00D1124E25D87
:1018B000FD4F608371838283938300918001109137
:1018C000810184E090E00E94FA0BF801EE0FFF1F07
:1018D000EE0FFF1FE00FF11FEE0FFF1FEE0FFF1FB8
:1018E000EE5CFD4F6083718382839383009180015E
:1018F0001091810188E090E00E94FA0B0E9DF001AA
:101900000F9DF00D1E9DF00D1124E25DFD4F6087CF
:1019100071878287938780918001909181018E9D4C
:10192000F0018F9DF00D9E9DF00D1124E25DFD4FA5
:10193000A486B586C686D786A08AB18AC28AD38A8B
:1019400001969093810180938001C0918001D09194
:101950008101C230D1050CF49FCF88E190E00E9454
:10196000FA0B60935602709357028093580290933B
:1019700059028CE190E00E94FA0B60935A02709336
:101980005B0280935C0290935D0280E290E00E9493
:10199000FA0B60935E0270935F02809360029093F3
:1019A000610280E090E0A0E0B0E08093620290935A
:1019B0006302A0936402B0936502809366029093E1
:1019C0006702A0936802B093690283E090E090936D
:1019D00081018093800134E1E32EF12C0F2EF0E0A1
:1019E000AF2EF0E0BF2EF0E0CF2EF0E0DF2EF02D96
:1019F00059C08CE090E00E94FA0BCE9DF001CF9D83
:101A0000F00DDE9DF00D1124E25DFD4F60837183CA
:101A100082839383009180011091810180E190E0A5
:101A20000E94FA0BF801EE0FFF1FEE0FFF1FE00FF1
:101A3000F11FEE0FFF1FEE0FFF1FEE5CFD4F6083E7
:101A4000718382839383009180011091810184E1ED
:101A500090E00E94FA0B0E9DF0010F9DF00D1E9D6F
:101A6000F00D1124E25DFD4F6087718782879387B7
:101A700080918001909181018E9DF0018F9DF00DEC
:101A80009E9DF00D1124E25DFD4FA486B586C686AD
:101A9000D786A08AB18AC28AD38A0196909381019F
:101AA00080938001C0918001D0918101C530D10522
:101AB0000CF49FCF84E290E00E94FA0B60939202B4
:101AC00070939302809394029093950288E290E041
:101AD0000E94FA0B0E948D187093990160939801EF
:101AE0008CE290E00E94FA0B0E948D1870939B018B
:101AF00060939A0180E390E00E94FA0B60937C016E
:101B000070937D0180937E0190937F0184E390E048
:101B10000E94FA0B6093260270932702809328029A
:101B20009093290288E390E00E94FA0B60932A02C6
:101B300070932B0280932C0290932D0280E490E00E
:101B40000E94FA0B0E948D1870938901609388019E
:101B50008CE390E00E94FA0B0E948D1870938B0129
:101B600060938A0184E490E00E94FA0B0E948D1831
:101B700070938D0160938C0188E490E00E94FA0BD1
:101B80006093BE017093BF018093C0019093C10127
:101B9000DF91CF911F910F91FF90EF90DF90CF9049
:101BA000BF90AF9008952F923F924F925F926F92A5
:101BB0007F928F929F92AF92BF92CF92DF92EF92DD
:101BC000FF920F931F93DF93CF93CDB7DEB72E977E
:101BD0000FB6F894DEBF0FBECDBF0E943B169B012F
:101BE000AC0120939E0230939F024093A002509339
:101BF000A10280919A0290919B02A0919C02B091C7
:101C00009D0279018A01E81AF90A0A0B1B0BE0927E
:101C1000A202F092A3020093A4021093A5022093C3
:101C20009A0230939B0240939C0250939D028091B4
:101C3000A6029091A702A091A802B091A9020196D4
:101C4000A11DB11D8093A6029093A702A093A802A4
:101C5000B093A9028091740190917501825F9340C5
:101C60000CF08CC00EE312E0F80180E090E020E080
:101C700030E040E050E006C020833183428353834C
:101C80000196749685309105BCF390938101809301
:101C9000800180917201909173018D56974054F0AC
:101CA00080919602813031F41092960288EE93E092
:101CB0000E94F60880917201909173018D569740B1
:101CC00024F180916E0190916F018C549440ECF45A
:101CD0000E9451080E94880BEEE3F2E080E090E061
:101CE00020E030E040E050E006C0208331834283B2
:101CF00053830196749685309105BCF390938101CE
:101D00008093800183E00E9410098091720190917C
:101D100073018C5494403CF580919602882319F508
:101D2000809197028130F9F48093960280E090E0F0
:101D300020E030E040E050E009C0D8012D933D9311
:101D40004D935C93139701960C5E1F4F8530910560
:101D5000A4F390938101809380018AE194E09093B1
:101D60006D0180936C0180917201909173018D548B
:101D70009440ACF081E08093970211C0809174018F
:101D8000909175018551954054F080917401909126
:101D90007501885C904090936D0180936C018091F7
:101DA0007401909175018A51944034F48AE194E071
:101DB00090936D0180936C011092810110928001CB
:101DC00037C0EE0FFF1FEE5FFE4F80810E94B016FE
:101DD000E0918001F0918101EE0FFF1FAF014855A6
:101DE0005E4FDF01AE55BE4F2D913C91821B930B90
:101DF000DA018D939C93E85FFE4F80810E94B016BC
:101E00004091800150918101FA01EE0FFF1FDF0127
:101E1000A857BE4F2D913C91821B930BE257FE4F6A
:101E2000918380834F5F5F4F509381014093800186
:101E3000E0918001F0918101E330F10514F22090EE
:101E4000260230902702409028025090290260908C
:101E50002A0270902B0280902C0290902D02E8EACA
:101E6000F1E0FC83EB839CE9A92E91E0B92E0EE80A
:101E700011E01E830D8382E8C82E81E0D82EF887FA
:101E8000EF831A8309831E861D8674C0D5016D9168
:101E90007C91882777FD8095982F0E94C0187B0140
:101EA0008C0160E070E080E89FE3A20191010E9454
:101EB000BC179B01AC01C801B7010E9474197B01DA
:101EC0008C01EF81F88561917191F887EF83882704
:101ED00077FD8095982F0E94C018A20191010E9461
:101EE00074199B01AC01C801B7010E94BD170E9483
:101EF0008D18D5016D937D935D01F601608171812F
:101F0000882777FD8095982F0E94C0187B018C014F
:101F100060E070E080E89FE3A40193010E94BC1799
:101F20009B01AC01C801B7010E9474197B018C01AF
:101F3000A981BA816D917D91BA83A983882777FDA4
:101F40008095982F0E94C018A40193010E947419D3
:101F50009B01AC01C801B7010E94BD170E948D18FA
:101F6000F601619371936F010D851E850F5F1F4F01
:101F70001E870D878D859E8503970CF487CF609112
:101F8000A2027091A3028091A4029091A5020E94E6
:101F9000C01820E030E04AE754E40E9425184B01C5
:101FA0005C016093AA027093AB028093AC029093A1
:101FB000AD02E090B601F090B7010091B801109128
:101FC000B901E986FA860B871C874090BA015090C8
:101FD000BB016090BC017090BD011EEAC12E11E0F2
:101FE000D12E2224332460C0AB81BC816D917D91C0
:101FF000BC83AB83882777FD8095982F0E94C018FB
:1020000020E030E040E85AE30E94741926E933E406
:1020100046EE51E40E947419A50194010E947419BE
:10202000F60120813181428153810E94BD179B01BD
:10203000AC0169857A858B859C850E9474197B012A
:102040008C01AD81BE816D917D91BE83AD8388276A
:1020500077FD8095982F0E94C01820E030E040E87E
:102060005AE30E94741921EE3AE74CE251E40E94CF
:1020700074199B01AC01C301B2010E94741921EED5
:102080003EE245E652E40E9474199B01AC01C8018E
:10209000B7010E94BD17F6016193719381939193EB
:1020A0006F010894211C311CF2E02F1631040CF44E
:1020B0009BCF309281012092800180917601909196
:1020C00077018C5D95404CF410929501109294012B
:1020D00010929701109296016FC020919A01309151
:1020E0009B01442737FD4095542F6091A6027091C3
:1020F000A7028091A8029091A9020E94371A611547
:1021000071058105910509F057C010928101109267
:102110008001B4E1CB2ED12C46C0F501EE0FFF1F9C
:10212000EE0FFF1FE255FE4F208131814281538126
:1021300083E090E0A80EB91EAC9C8001AD9C100D10
:10214000BC9C100D1124ADEFBFEFAA0EBB1E025DAB
:102150001D4F60E070E080E090E00E949C030E94D0
:102160008D18409198015091990122273327241B03
:10217000350B621773072CF09B01461757070CF4B9
:102180009A01AA0CBB1CE4E9F1E0AE0EBF1ED5011A
:102190002D933C93809180019091810101969093C1
:1021A000810180938001A0908001B0908101B2E014
:1021B000AB16B1040CF4B1CF6091360170913701C8
:1021C0002091940130919501621B730B882777FD54
:1021D0008095982F0E94C0187B018C0160919C0112
:1021E00070919D01882777FD8095982F0E94C018D7
:1021F0002091160130911701409118015091190159
:102200000E94741920911A0130911B0140911C0108
:1022100050911D010E94BD179B01AC01C801B7017F
:102220000EE212E00E949C030E948D1870936501DB
:10223000609364016091960170919701209138013B
:1022400030913901620F731F882777FD8095982F91
:102250000E94C0187B018C0160919E0170919F01CA
:10226000882777FD8095982F0E94C018209116012D
:102270003091170140911801509119010E94741971
:1022800020911A0130911B0140911C0150911D01B8
:102290000E94BD179B01AC01C801B70102E412E026
:1022A0000E949C030E948D187093670160936601E1
:1022B00060913A0170913B01882777FD8095982FB6
:1022C0000E94C0187B018C016091A0017091A10156
:1022D000882777FD8095982F0E94C01820911601BD
:1022E0003091170140911801509119010E94741901
:1022F00020911A0130911B0140911C0150911D0148
:102300000E94BD179B01AC01C801B70106E512E0B0
:102310000E949C030E948D18DB01709369016093F9
:10232000680180919602882309F465C08091970224
:10233000882309F460C060913C0170913D01E091F7
:102340006601F09167019F01260F371F2A0F3B1F7F
:1023500040916C0150916D012417350714F49A01D6
:1023600006C007E0213D300714F020ED37E0309340
:102370000F0120930E019B012E1B3F0B2A0F3B1FC9
:102380002417350714F49A0106C017E0213D3107E0
:1023900014F020ED37E03093110120931001E0910B
:1023A0006401F09165019B012E1B3F0B2A1B3B0B27
:1023B0002417350714F49A0106C087E0213D380739
:1023C00014F020ED37E030931301209312019F01A8
:1023D000260F371F2A1B3B0B241735073CF0A9019A
:1023E00097E0213D390714F040ED57E05093150177
:1023F0004093140111C0EEE0F1E080E090E028EE9F
:1024000033E003C021933193019684309105D4F3D6
:1024100090936B0180936A010E942F090E949D098D
:1024200080919802882311F00E947D052E960FB6A8
:10243000F894DEBF0FBECDBFCF91DF911F910F91FA
:10244000FF90EF90DF90CF90BF90AF909F908F90D4
:102450007F906F905F904F903F902F90089582E310
:1024600093E040E052EC61E070E00E94AD1280E049
:102470000E94AD168DE061E00E94CE168DE060E016
:102480000E94EE160E94500988EE93E00E94F60822
:102490000E94300C0E946F050E9451086091BE019D
:1024A0007091BF018091C0019091C1010E946D03A4
:1024B0000E943B1660939A0270939B0280939C0249
:1024C00090939D028DE061E00E94EE1610929702BB
:1024D00008950E9473160E942F120E94D30DFDCF03
:1024E0001F920F920FB60F9211242F933F934F9389
:1024F0005F936F937F938F939F93AF93BF93EF936C
:10250000FF934091C600E0912E03F0912F03CF017D
:10251000019660E870E00E94021A9C0180913003ED
:10252000909131032817390739F0E255FD4F408368
:1025300030932F0320932E03FF91EF91BF91AF9122
:102540009F918F917F916F915F914F913F912F91CB
:102550000F900FBE0F901F901895AF92BF92CF9221
:10256000DF92EF92FF920F931F93CF93DF936C0153
:102570007A018B01DC011496AD90BC901597CB01CC
:10258000BA0122E030E040E050E00E94371A205CBF
:102590003D4B404F5F4FCA01B901A80197010E940E
:1025A000371AC901DA010197A109B109292F3A2F78
:1025B0004B2F552747FD5A950196A11DB11DE501E9
:1025C0002883E601EE81FF8181508083EA85FB85C7
:1025D000208141E050E0CA010E8402C0880F991F9B
:1025E0000A94E2F7282B2083EA85FB852081CA0123
:1025F0000F8402C0880F991F0A94E2F7282B2083CA
:10260000EA85FB858081088802C0440F551F0A9423
:10261000E2F7842B8083DF91CF911F910F91FF9080
:10262000EF90DF90CF90BF90AF900895DC011296AD
:10263000ED91FC911397E058FF4F81919191805853
:102640009F4F20813181821B930B60E870E00E94D4
:10265000021A0895CF93DF93DC011296ED91FC915D
:102660001397EF01CE57DF4F48815981E058FF4F54
:1026700080819181E058F0408417950719F42FEF7D
:102680003FEF0CC0E40FF51F2081CA01019660E8FE
:1026900070E00E94021A9983888330E0C901DF91BB
:1026A000CF910895FC01A085B18521898C9190E09E
:1026B000022E02C0959587950A94E2F780FFF6CF27
:1026C0000484F585E02D608308958AE491E0909379
:1026D0003303809332038EEA92E090933503809324
:1026E000340385EC90E0909337038093360384ECB9
:1026F00090E0909339038093380380EC90E09093BE
:102700003B0380933A0381EC90E090933D038093E8
:102710003C0386EC90E090933F0380933E0384E07B
:102720008093400383E08093410387E080934203DA
:1027300085E0809343030895DC01ED91FC910190C5
:10274000F081E02D099508950F931F93CF93DF93A8
:102750008C01EB0109C02196D801ED91FC9101900B
:10276000F081E02DC801099568816623A1F7DF910A
:10277000CF911F910F9108950F931F938C01DC014E
:10278000ED91FC910190F081E02D6DE00995D8016B
:10279000ED91FC910190F081E02DC8016AE009956E
:1027A0001F910F9108952F923F924F925F926F92D7
:1027B0007F928F929F92AF92BF92CF92DF92EF92D1
:1027C000FF920F931F93DF93CF93CDB7DEB7A09700
:1027D0000FB6F894DEBF0FBECDBF1C016A017B01AE
:1027E000411551056105710549F4DC01ED91FC913C
:1027F0000190F081E02D60E3099554C0882499246C
:102800005401422E55246624772401E010E00C0F79
:102810001D1F080D191DC701B601A30192010E94D9
:10282000151AF80160830894811C911CA11CB11C2D
:10283000C701B601A30192010E94151AC901DA016C
:102840006C017D01C114D104E104F104F1F681E0D1
:10285000E82EF12CEC0EFD1EE80CF91C3E0108944C
:10286000611C711CD501C4010197A109B1096C015A
:10287000C818D90814C0F601EE0DFF1D60816A303A
:1028800010F4605D01C0695CD101ED91FC91019093
:10289000F081E02DC10109950894E108F1086E145A
:1028A0007F0449F7A0960FB6F894DEBF0FBECDBFE8
:1028B000CF91DF911F910F91FF90EF90DF90CF901C
:1028C000BF90AF909F908F907F906F905F904F9050
:1028D0003F902F9008952AE00E94D3130895EF921D
:1028E000FF920F931F93CF93DF93EC017A018B013B
:1028F00077FF0FC0E881F9810190F081E02D6DE252
:10290000099510950095F094E094E11CF11C011DCF
:10291000111DCE01B801A7012AE00E94D313DF9157
:10292000CF911F910F91FF90EF900895AB01662713
:1029300057FD6095762F0E946F1408950F931F9393
:102940008C01AB01662757FD6095762F0E946F14AE
:10295000C8010E94BC131F910F910895DC0121153D
:10296000310541F4ED91FC910190F081E02D642F4F
:10297000099508952A30310519F40E946F140895BD
:102980000E94D31308959F92AF92BF92CF92DF928D
:10299000EF92FF920F931F93CF93DF93EC017A0195
:1029A0008B01922ECB01BA0120E030E040E050E0F4
:1029B0000E942118882364F4E881F9810190F08154
:1029C000E02DCE016DE2099517FB109517F91095D2
:1029D00020E030E040E05FE3AA240BC0CA01B90167
:1029E00020E030E040E251E40E9425189B01AC0158
:1029F000A394A91498F3C801B7010E94BD175B0105
:102A00006C010E9492187B018C01CE01B801A701D4
:102A10000E946B14992029F0CE0160E071E00E94C1
:102A2000A413C801B7010E94BE189B01AC01C601E6
:102A3000B5010E94BC1720C020E030E040E251E424
:102A40000E9474197B018C010E948D185B016C013E
:102A5000CC24B7FCC094DC2CCE01B601A5010E94A9
:102A60006F14C601B5010E94C0189B01AC01C801DA
:102A7000B7010E94BC179A949920F1F6DF91CF918B
:102A80001F910F91FF90EF90DF90CF90BF90AF908C
:102A90009F90089522E00E94C3140895823000F5AB
:102AA000E82FF0E0EE0FFF1FEC5BFC4F71836083BB
:102AB000882319F08130A1F408C0809169008C7FCF
:102AC000842B80936900E89A089580916900440FEF
:102AD000551F440F551F837F842B80936900E99A0B
:102AE00008951F920F920FB60F9211242F933F93C8
:102AF0004F935F936F937F938F939F93AF93BF9306
:102B0000EF93FF938091440390914503892B29F023
:102B1000E0914403F09145030995FF91EF91BF9136
:102B2000AF919F918F917F916F915F914F913F9165
:102B30002F910F900FBE0F901F9018951F920F921C
:102B40000FB60F9211242F933F934F935F936F9380
:102B50007F938F939F93AF93BF93EF93FF93809156
:102B6000460390914703892B29F0E0914603F091A9
:102B700047030995FF91EF91BF91AF919F918F917D
:102B80007F916F915F914F913F912F910F900FBE69
:102B90000F901F9018951F920F920FB60F9211244D
:102BA0002F938F939F93AF93BF93809148039091FE
:102BB0004903A0914A03B0914B030196A11DB11D99
:102BC0008093480390934903A0934A03B0934B0327
:102BD00080914C0390914D03A0914E03B0914F030F
:102BE0008050904CAF4FBF4F80934C0390934D0358
:102BF000A0934E03B0934F0327C080914C03909154
:102C00004D03A0914E03B0914F0380589E43A040C6
:102C1000B04080934C0390934D03A0934E03B09328
:102C20004F038091500390915103A0915203B091B2
:102C300053030196A11DB11D80935003909351033E
:102C4000A0935203B093530380914C0390914D0392
:102C5000A0914E03B0914F0381589E43A040B040D5
:102C600060F6BF91AF919F918F912F910F900FBE02
:102C70000F901F9018958FB7F894209150033091C2
:102C8000510340915203509153038FBFB901CA01C0
:102C90000895EF92FF920F931F937B018C018FB7E2
:102CA000F8944091500350915103609152037091F8
:102CB00053038FBF2FB7F894809150039091510325
:102CC000A0915203B09153032FBF841B950BA60B09
:102CD000B70BE816F9060A071B0760F71F910F915B
:102CE000FF90EF900895789484B5826084BD84B598
:102CF000816084BD85B5826085BD85B5816085BDF7
:102D0000EEE6F0E0808181608083E1E8F0E08081A0
:102D100082608083808181608083E0E8F0E0808150
:102D200081608083E1EBF0E0808184608083E0EB70
:102D3000F0E0808181608083EAE7F0E08081846058
:102D400080838081826080838081816080838081B4
:102D5000806880831092C100089580934501089592
:102D60008770909145019295990F990F907C982BBF
:102D700090937C0080917A00806480937A008091A7
:102D80007A0086FDFCCF2091780040917900942F45
:102D900080E030E0282B392BC9010895282F30E03E
:102DA000C90186569F4FFC0194912A573F4FF90164
:102DB0008491882391F0E82FF0E0EE0FFF1FE8598F
:102DC000FF4FA591B491662329F48C9190958923A6
:102DD0008C9308958C91892B8C930895482F50E003
:102DE000CA0182559F4FFC012491CA0186569F4F0C
:102DF000FC0194914A575F4FFA0134913323D1F18A
:102E0000222331F1233021F4809180008F7705C097
:102E1000243031F4809180008F7D8093800018C031
:102E2000213019F484B58F7704C0223021F484B5A1
:102E30008F7D84BD0DC0263021F48091B0008F7746
:102E400005C0273029F48091B0008F7D8093B000B9
:102E5000E32FF0E0EE0FFF1FEE58FF4FA591B49166
:102E6000662329F48C91909589238C9308958C91F5
:102E7000892B8C930895DF92EF92FF920F931F930B
:102E8000A82FB0E0CD0186569F4FFC01D490AA57E1
:102E9000BF4FFD018491662311F490E001C09D2D88
:102EA0006FEFE62E6FEFF62E6FEF062F6FE0162F07
:102EB000E222F32204231523682F70E0660F771FA8
:102EC00064587F4F20E030E040E050E0FB01A591E6
:102ED000B4910AC02E153F054007510709F440C0C0
:102EE0002F5F3F4F4F4F5F4F8C918D21891791F38B
:102EF0000AC02E153F054007510791F12F5F3F4F44
:102F00004F4F5F4F03C0FB01A591B4918C918D2170
:102F1000891779F720E030E040E050E0FB01A5910F
:102F2000B49104C02F5F3F4F4F4F5F4F8C918D2165
:102F30008917C1F3CA01B9012AE030E040E050E04E
:102F40000E94D7199B01AC01205F3F4F4F4F5F4F4D
:102F500084E056954795379527958A95D1F704C013
:102F600020E030E040E050E0B901CA011F910F912C
:102F7000FF90EF90DF9008955058BB27AA270ED0FE
:102F800075C166D130F06BD120F031F49F3F11F460
:102F90001EF45BC10EF4E095E7FB51C1E92F77D138
:102FA00080F3BA17620773078407950718F071F466
:102FB0009EF58FC10EF4E0950B2EBA2FA02D0B01BC
:102FC000B90190010C01CA01A0011124FF27591B6E
:102FD00099F0593F50F4503E68F11A16F040A22F74
:102FE000232F342F4427585FF3CF469537952795E5
:102FF000A795F0405395C9F77EF41F16BA0B620BE4
:10300000730B840BBAF09150A1F0FF0FBB1F661F2A
:10301000771F881FC2F70EC0BA0F621F731F841F6D
:1030200048F4879577956795B795F7959E3F08F093
:10303000B3CF9395880F08F09927EE0F9795879552
:103040000895D9D008F481E008950CD00FC107D1BC
:1030500040F0FED030F021F45F3F19F0F0C0511184
:1030600039C1F3C014D198F39923C9F35523B1F3AF
:10307000951B550BBB27AA2762177307840738F0E7
:103080009F5F5F4F220F331F441FAA1FA9F333D046
:103090000E2E3AF0E0E830D091505040E695001CFA
:1030A000CAF729D0FE2F27D0660F771F881FBB1FB6
:1030B000261737074807AB07B0E809F0BB0B802D90
:1030C000BF01FF2793585F4F2AF09E3F510568F0DC
:1030D000B6C000C15F3FECF3983EDCF38695779570
:1030E0006795B795F7959F5FC9F7880F911D9695DE
:1030F000879597F90895E1E0660F771F881FBB1F3A
:10310000621773078407BA0720F0621B730B840BE6
:10311000BA0BEE1F88F7E095089504D06894B111BA
:10312000D9C00895BCD088F09F5790F0B92F992747
:10313000B751A0F0D1F0660F771F881F991F1AF0C2
:10314000BA95C9F712C0B13081F0C3D0B1E008958B
:10315000C0C0672F782F8827B85F39F0B93FCCF30C
:10316000869577956795B395D9F73EF490958095B8
:10317000709561957F4F8F4F9F4F0895E89409C0D8
:1031800097FB3EF490958095709561957F4F8F4F9A
:103190009F4F9923A9F0F92F96E9BB279395F695B0
:1031A000879577956795B795F111F8CFFAF4BB0F2E
:1031B00011F460FF1BC06F5F7F4F8F4F9F4F16C092
:1031C000882311F096E911C0772321F09EE8872F1C
:1031D000762F05C0662371F096E8862F70E060E0D8
:1031E0002AF09A95660F771F881FDAF7880F969551
:1031F000879597F90895990F0008550FAA0BE0E8F5
:10320000FEEF16161706E807F907C0F012161306A8
:10321000E407F50798F0621B730B840B950B39F4E8
:103220000A2661F0232B242B252B21F408950A264E
:1032300009F4A140A6958FEF811D811D089597F98E
:103240009F6780E870E060E008959FEF80EC08954C
:1032500000240A9416161706180609060895002475
:103260000A9412161306140605060895092E0394EF
:10327000000C11F4882352F0BB0F40F4BF2B11F463
:1032800060FF04C06F5F7F4F8F4F9F4F089557FDC2
:103290009058440F551F59F05F3F71F04795880FC4
:1032A00097FB991F61F09F3F79F08795089512165B
:1032B00013061406551FF2CF4695F1DF08C0161607
:1032C00017061806991FF1CF8695710561050894B8
:1032D0000895E894BB2766277727CB0197F90895CF
:1032E0008ADF08F48FEF08950BD0C0CFB1DF28F04C
:1032F000B6DF18F0952309F0A2CFA7CF1124EACFAB
:10330000C6DFA0F3959FD1F3950F50E0551F629F44
:10331000F001729FBB27F00DB11D639FAA27F00D2E
:10332000B11DAA1F649F6627B00DA11D661F829F55
:103330002227B00DA11D621F739FB00DA11D621F3A
:10334000839FA00D611D221F749F3327A00D611D57
:10335000231F849F600D211D822F762F6A2F112439
:103360009F5750408AF0E1F088234AF0EE0FFF1F8C
:10337000BB1F661F771F881F91505040A9F79E3FC3
:10338000510570F05CCFA6CF5F3FECF3983EDCF3C5
:10339000869577956795B795F795E7959F5FC1F700
:1033A000FE2B880F911D9695879597F90895629F3A
:1033B000D001739FF001829FE00DF11D649FE00D2D
:1033C000F11D929FF00D839FF00D749FF00D659F8E
:1033D000F00D9927729FB00DE11DF91F639FB00D8D
:1033E000E11DF91FBD01CF0111240895991B79E05A
:1033F00004C0991F961708F0961B881F7A95C9F785
:103400008095089597FB092E07260AD077FD04D0F2
:1034100049D006D000201AF4709561957F4F089529
:10342000F6F7909581959F4F0895A1E21A2EAA1B59
:10343000BB1BFD010DC0AA1FBB1FEE1FFF1FA21764
:10344000B307E407F50720F0A21BB30BE40BF50B61
:10345000661F771F881F991F1A9469F760957095EA
:10346000809590959B01AC01BD01CF01089597FB1C
:10347000092E05260ED057FD04D0D7DF0AD0001C38
:1034800038F450954095309521953F4F4F4F5F4F01
:103490000895F6F790958095709561957F4F8F4FC1
:1034A0009F4F0895AA1BBB1B51E107C0AA1FBB1F5A
:1034B000A617B70710F0A61BB70B881F991F5A95C0
:1034C000A9F780959095BC01CD010895EE0FFF1FDF
:1034D0000590F491E02D0994911106C0803219F005
:1034E00089508550D0F708959927882708952F92FD
:1034F0003F924F925F926F927F928F929F92AF9284
:10350000BF92CF92DF92EF92FF920F931F93CF93D0
:10351000DF93CDB7DEB7CA1BDB0B0FB6F894DEBF67
:103520000FBECDBF09942A88398848885F846E848D
:103530007D848C849B84AA84B984C884DF80EE80D7
:10354000FD800C811B81AA81B981CE0FD11D0FB6E0
:10355000F894DEBF0FBECDBFED010895F894FFCF04
:103560002E00010000000200050004000300E80333
:10357000E803E803E8036EA3893F0080BB44000032
:10358000050004000100030002000200050007001E
:10359000030004000600DC05DC05DC05E803DC05AF
:0C35A000DC05DC0558010000000052139F
:00000001FF
