:020000040801F1
:100000000000022075AE0108213E0108253E0108CE
:10001000293E01082D3E0108313E010871AE01085C
:1000200071AE010871AE010871AE01087D4A010888
:1000300071AE010871AE0108A14A0108013701083B
:1000400071AE010871AE010871AE010871AE010810
:1000500071AE010871AE0108B5320108BB3201086A
:10006000C1320108C7320108CD3201084931010807
:1000700059310108693101087931010889310108D4
:1000800099310108A931010871AE010871AE01086A
:1000900071AE010871AE010871AE0108D3320108DA
:1000A000813A0108913A0108A13A0108AD3A0108E4
:1000B000B93A0108C53A0108D13A01087135010879
:1000C000893501087D3501089535010871AE0108B3
:1000D00071AE0108C53C0108D13C0108DD3C0108B6
:1000E000DB32010871AE010871AE0108093B01085D
:1000F000193B0108293B0108353B0108B9310108CA
:1001000071AE010871AE0108DD3A010871AE010857
:10011000E93C0108F53C0108E93A0108F93A01080F
:10012000C9310108D9310108E9310108F931010863
:100130000932010871AE010871AE010871AE010803
:1001400071AE010871AE010871AE01083D4E0108A3
:1001500019320108293201083932010871AE01084B
:1001600071AE010871AE010871AE010871AE0108EF
:1001700071AE010871AE010871AE010871AE0108DF
:1001800071AE010871AE01080C4BDA68D1030ED4D0
:10019000D868C2060DD4D96811F0EF0F0BD1DA6818
:1001A00002F00203002B0CBF05200C207047012039
:1001B0007047032070470B20704700BF003C02408F
:1001C00013B50446FFF7E0FF0CE000230193FF2383
:1001D00001E00198431E019301990029F9D1FFF72D
:1001E000D3FF013C012803D1002CEED1062002E010
:1001F000002C08BF06201CBD70B5044641B1012982
:1002000008D0022914BF4FF440764FF4007603E083
:100210000E4601E04FF4807640F6FF70FFF7D0FF06
:10022000052820D1104D286920F440732B612A69DC
:1002300016432E61296921F0F80028612B6943F0EB
:10024000020214432C61296941F48030286140F690
:10025000FF70FFF7B5FF2B6923F002022A612969BD
:1002600021F0F8032B6170BD003C024000F178439F
:10027000B3F5803F05DA002BBCBF074BC3189B13B7
:1002800006E0B3F5003F02DB5B14043300E0042317
:10029000D8000321FFF7B0BFFF3F00F8134B00F178
:1002A00078429A4270B504460E461CD81F20FFF7CC
:1002B00087FF052818D10E4D296921F44070286167
:1002C0002B6943F480722A61296941F00100286199
:1002D0001F202680FFF774FF062805D02B6923F026
:1002E00001022A6170BD072070BD00BFFEFF07003C
:1002F000003C0240044B1A69002A03DA034904480F
:1003000059605860704700BF003C024023016745B8
:10031000AB89EFCD30B50D480D4D03680C49AA6887
:1003200000BF00BF0468A342F7D10868C00301D52D
:100330008A680133C2F524324032A821B2FBF1F2BF
:100340004FF47A7000FB032030BD00BF202B00204B
:1003500010E000E0124B9A6810689A89821A92B2F3
:100360006FF4617C02EB0C0140F2AE4389B299421A
:1003700010B50C4B08D8197809290DD80A4C24F867
:1003800011200131197007E040F6C4118A4201D9E9
:10039000002200E00A221A70014B988110BD00BFB4
:1003A00030260020E4260020100C002003F036BF89
:1003B00070470000234B10B51860234B40F2DC520D
:1003C0001A605A609A604FF47A72DA601A615A6160
:1003D0009A61DA611A625A62012100231B4A03E022
:1003E00042F823100133DBB28342F9DB184B40F2B1
:1003F000DC521A605A609A604FF07E540023154A0E
:1004000004E002EB830101330C60DBB28342F8DBD2
:100410000023114A4FF07E5404E002EB83010133C4
:100420000C60DBB28342F8DB00230C4A4FF07E54B1
:1004300004E002EB830101330C60DBB28342F8DBA2
:1004400010BD00BF3C290020BC260020082700204A
:10045000F82800204C29002014290020082600201C
:100460002DE9F0410024334E334FDFF8F08034E0C3
:100470003249334D095DA300FA1838F8111092ED96
:10048000007A304A06EE901AD218D2ED007AF8EED1
:10049000E66A2D4A46EE877AFDEEE77A17EE901A65
:1004A00042F82410294AD31855F8242006EE102AC1
:1004B000F8EEE77AB8EEC66A17EE900A16EE101A52
:1004C0001A6802F0A5FD06EE100AFDEEC67A17EED8
:1004D000901A45F824100134E4B232689442C7DB24
:1004E0001B4B1C4D1C48164C93ED007A00235E59A3
:1004F0001959891B06EE101AF8EEC66A06EE106A44
:10050000F8EEC67A46EE877AFDEEE77A17EE906A45
:100510001E5004330C2BEAD103230F48084C05E08E
:1005200054F8231040F823100133DBB29342F7DB79
:10053000BDE8F0813C2900204C290020D0BC0108F6
:100540000827002014290020C025002008260020AC
:10055000B8280020F8280020BC260020100C00201D
:10056000084B53F82020084B53F82030D31A07EEDD
:10057000903AB8EEE77ADFED057A67EE277A17EE64
:10058000900A7047BC260020F82800200BD7A33B18
:100590001F4B93ED007A92ED046AB8EE477A1D4B3B
:1005A00037EE466ADFED1C6A07EE901A82ED047A98
:1005B0001B7807EE100A86EE266A77EE676A33B17B
:1005C00092ED057A06EE867A82ED057A01E0002347
:1005D000536192ED037AD2ED025A37EEC77AC2ED3B
:1005E000037A27EE257ADFED0D5A26EE256AD2ED45
:1005F000057A87EE067AD2ED015A92ED006A65EE31
:10060000A77A46EE867A77EE877A17EE900A7047D9
:100610004C260020B1280020002474490000C84264
:10062000074BD3ED007A074BF8EE677A03F1C0026F
:100630000021196043ED017A18339342F9D17047D4
:100640004C2600206827002091ED005A9FED203AAB
:1006500005EE900ADFED1F3A65EE037A45EEA37AC8
:10066000D1ED014ADFED1C2A44EEA27A91ED024A57
:1006700044EE037A91ED033A43EE237A91ED047A46
:10068000DFED163A47EE237AD1ED056ADFED143A35
:1006900046EEE37A91ED066ADFED123A46EE237AF2
:1006A00091ED073ADFED103A43EE637A086081ED91
:1006B000034AC1ED024A81ED015A81ED076AC1ED9D
:1006C000066A81ED057AC1ED047A17EE900A70474B
:1006D000D58111BB7932F83A1A1B5E3B382F57404F
:1006E000200B89400A771C404CF3063F0D4B00223B
:1006F0001A605A609A60DA601A615A619A61DA6126
:100700001A625A629A62DA621A635A639A63DA6305
:10071000054A1A645A649A64DA641A655A659A65D5
:10072000DA657047302800206DE71CC1F8B5044633
:100730000E460079002115461F4604F05DF9237A24
:1007400066F07F0646EA03012046C9B204F088F845
:10075000EE1905E02046002104F082F805F8010BAF
:10076000731B002BF6DC20790121BDE8F84004F072
:1007700043B9000010B5084C0121207904F03CF980
:100780002079002104F0F6F82046052101220323F8
:10079000BDE8104003F0EABF2428002010B50A4C41
:1007A000204604F011F82079012104F025F9207980
:1007B000002104F0DFF8012120460A460323BDE8AA
:1007C000104003F0D3BF00BF2428002070B50D4CAB
:1007D00006460D462079002104F00EF9237A46EAF8
:1007E00003012046C9B204F03BF82946204604F034
:1007F00037F82079012104F0FFF80120BDE87040AE
:1008000004F0A6B82428002013B5012301460DF1F9
:1008100007020548FFF78AFF9DF80740012004F012
:1008200097F820461CBD00BF2428002008B5FFF71C
:10083000A1FF7520FFF7E8FF00F07E00682834D1A3
:100840001A4B1A68802142F003026B201A60FFF7EE
:10085000BDFF642004F07CF86A201021FFF7B6FF8A
:100860006B200321FFF7B2FF6C200021FFF7AEFFE2
:1008700019200021FFF7AAFF1A200321FFF7A6FF86
:100880001B201021FFF7A2FF08211C20FFF79EFF6D
:10089000FFF784FF3720FFF7B7FF40F00201C9B22E
:1008A0003720BDE80840FFF791BF08BD7829002038
:1008B000022391FBF3F107E010F8023C10F8012C41
:1008C00000F8013C00F8022C013902304B1CF3D136
:1008D0007047000010B5064C06483B2122460E2307
:1008E000FFF724FF20460E21BDE81040FFF7E0BFD0
:1008F000B025002024280020024A034B1A60FFF78D
:1009000095BF00BF58A00B3A8C29002008B5FFF70F
:1009100001FD134BDFED137A93ED027AB4EEE77A23
:10092000F1EE10FA06DCDFED107AB4EEE77AF1EEC4
:1009300010FA11D50D4A0E4B1268821A07EE902A52
:10094000F8EE676ADFED0B7AC6EEA76AD3ED007AA0
:1009500047EE267AC3ED007A044B186008BD00BF4D
:100960004827002035FA8E3C35FA8EBCCC28002072
:10097000FC2500200024744910B50D4B0D491C685E
:100980000D4AB1F90800106020181860B1F90A008A
:10099000B1F90C105C68506091609A682018511889
:1009A00058609960054B1A7801321A7010BD00BF6B
:1009B00090290020B02500203C270020D0280020CE
:1009C00030B51D4B1D481C6801781D4A94FBF1F59C
:1009D00014682C1B06EE104A5C6894FBF1F5546811
:1009E0009268641B06EE904A9C6894FBF1F1511AE0
:1009F00000221A605A609A60124B0270D3ED007A9E
:100A0000F8EEE66A104B66EEA76AB8EEC66AC3ED6A
:100A1000016A06EE901AB8EEE67A26EE276A67EECD
:100A2000277A85B083ED006AC3ED027A05B0BDE890
:100A30003040FFF76BBF00BF90290020D028002076
:100A4000A02900208C290020482700202DE9F04112
:100A5000B2B032AF002547F8C85D184E24E0FFF76A
:100A600039FF01ABB8F1000F02D1B6F9082006E05A
:100A7000B8F1010F0CBFB6F90A20B6F90C201A51D3
:100A80000A20043403F064FFC42CE8D1312101A80A
:100A90006A4602F0D5FA009B232B09DC084B43F889
:100AA00025000135032D05D000245FFA85F8D6E72F
:100AB000002000E0012032B0BDE8F081B025002028
:100AC000A02900200A4B0B4A1968B2F90000091846
:100AD0001960B2F90200596809185960B2F9041096
:100AE0009A6852189A60044B1A7801321A7070474B
:100AF000B0260020B025002080260020F0B5124B43
:100B0000DFF854C01F78114A114E124D00231846C9
:100B10009958985091FBF7F107EE901AF11891ED62
:100B2000007AE918F8EEE76AD1ED007A46EE877AA6
:100B30000CEB030404330C2BC4ED007AE8D1024B18
:100B400000221A70F0BD00BF80260020B0260020D1
:100B5000E8260020AC29002040290020F8B5FFF746
:100B6000CDFF022003F0F4FE002408E0FFF7B2FE00
:100B7000FFF7A8FF40F6C41003F0F6FE0134B4F509
:100B8000C87FF3D100231F4F1F49204EDFED206A9D
:100B900018465D58585007EE105AF8EEC77AF51807
:100BA00087EEA67AFC1804330C2B164AD5ED007A92
:100BB00067EE277AC4ED007AEBD1164B0021D2ED17
:100BC000007A1970144BF1EE677AC3ED007AD2ED1A
:100BD000017AF1EE677AC3ED017A92ED027ADFEDE8
:100BE0000F7A77EEC77AC3ED027A77EE277A0C4B4D
:100BF000F5EEC07AF1EE10FAD8BFF1EE677AC3EDE8
:100C0000007AF8BD40290020B0260020E826002008
:100C10000000C84380260020AC2900206DE71CC1DD
:100C2000C828002010B54620002103F0A3FE0024B0
:100C3000462004F00101013403F0DEFEE4B232206C
:100C400003F086FE0A2CF3D14520002103F092FE2A
:100C50004520002103F0D0FE4520002103F08AFE4C
:100C60004520002103F0C8FE2020032103F082FE6E
:100C70001020032103F07EFE2420032103F07AFEDE
:100C80001120032103F076FE2520032103F072FEDC
:100C90002220032103F06EFE0321232003F06AFECD
:100CA0003720002103F066FE4020002103F062FEA1
:100CB0004120002103F05EFE3420002103F05AFEA3
:100CC00004481721162203F0B9FEBDE81040FFF7D3
:100CD000ADBD00BFE0290020034B044A1A60044A5E
:100CE0005A60044A9A607047E826002036069D3A0A
:100CF0006D8C9DBA75029ABA38B5094C094DFFF74B
:100D000009FB23682860C01AB0F57A7F07D3FFF784
:100D1000E1FDFFF731FEFFF7D5FE2B68236038BDFC
:100D20005026002010290020024B00221A605A6031
:100D30009A60704714280020F8B52DED068B9DEDC4
:100D40000E7AF6EE007A67EE277A08EE103A9DEDFD
:100D50000C9A874B874C884E884DC3ED007A69EE1C
:100D6000097A48EE087ADDED0D8A48EEA87A0AEE97
:100D7000900A17EE900A09EE902A0AEE101A09F06E
:100D8000B9F80AF085F909F0EBFB7D4B07EE900A04
:100D900089EE277A286888EE274AC8EEA78AD3ED1D
:100DA000007A784BD3ED006A774BD3ED005A774B3E
:100DB00093ED006A65EE864A57EEA64A34EEA45AD1
:100DC00066EE264A45EEA74A67EEA77A55EEA57A63
:100DD00046EE467A46EEA67A74EEA44A27EE879A45
:100DE00014EEA89A24EE848A65EE288A57EE848A47
:100DF00015EE078AD4ED007A96ED007A49EE077A6F
:100E000019EE101AC4ED007A02F041F908B100237E
:100E100023605F4C96ED007AD4ED007A48EE877A35
:100E200085ED009A5B4D18EE901A2868C4ED007AA3
:100E300002F02DF908B100232360574C4E4BD4ED3E
:100E4000007A93ED007A48EE077AC5ED008A534D9B
:100E500018EE101A2868C4ED007A02F018F908B1EB
:100E6000002323604E4B464E464C474FD3ED007A4D
:100E7000404B47EE89AA93ED007A07EEA8AA444BAF
:100E800085ED008AD3ED006A404D434B47EE889ACA
:100E90003AEE875AD5ED004A3AEE267AD3ED007A3B
:100EA00096ED003A39EEA74A64EE877A53EE457A1A
:100EB00094ED006A2E4B46EE447AD7ED003AD3ED1E
:100EC000005AF0EE632A47EEA52A64EE847A43EED8
:100ED000857A46EE477A63EE046A53EE876AB0EE8F
:100EE000432A07EEA52A23EE077A46EE056A03EEAB
:100EF000847AF0EE427A04EEC57A86ED002AB0EEEE
:100F0000642A06EEA52A67EEA77A42EEA27A07EED9
:100F1000256A42EE027A46EE067AC7ED002A17EEFF
:100F2000900A85ED002A84ED006A08F0E3FF0AF0DC
:100F3000AFF809F015FB97ED007A07EE900A87EEFF
:100F4000277A87ED007A96ED007A87EE277A86ED8C
:100F5000007A95ED007A87EE277A85ED007A94ED98
:100F6000007AC7EE277AC4ED007ABDEC068BF8BD97
:100F7000E4280020B4280020042700208826002030
:100F8000A4260020AC260020A0260020A8260020B1
:100F9000842600208C260020582600204826002089
:100FA000342700202DE9F047DFF8F890DFF8F8A0AB
:100FB0003A4FDFF8F8803A4E2DED048B9AED007A27
:100FC000D9ED008A97ED008AD8ED007A28EE877A6D
:100FD00008EE277AB7EE009A37EE077A17EE100A76
:100FE00008F088FF68EEA87A48EE087A044677EEA3
:100FF000A77A0D4679EE677A17EE900A08F07AFF25
:1010000002460B46204629460AF040F809F0A8FAA5
:1010100097ED006ADAED007AD8ED006A99ED007A72
:1010200066EE277A56EE877A306077EEA77A17EE6B
:10103000900A08F05FFF09F0D5FF09F091FA99EDE9
:10104000008A97ED007AD8ED007ADAED008A28EE72
:10105000077A08EEA77A706037EE077A17EE100A63
:1010600008F048FF68EEA87A48EE087A044677EE62
:10107000A77A0D4679EE677A17EE900A08F03AFFE4
:1010800002460B46204629460AF000F809F068FAA5
:10109000B060BDEC048BBDE8F08700BFA426002043
:1010A00014280020A8260020AC260020A02600201E
:1010B00008B5FFF739FE0F4B4FF07E521A600E4A0B
:1010C000002313600D4A13600D4A13600D4A13602C
:1010D0000D4A13600D4A13600D4A13600D4A1360E8
:1010E0000D4A13600D4A0E4B1A600E4A0E4B1A60E1
:1010F00008BD00BFA0260020A4260020A8260020AE
:10110000AC260020B4280020842600205826002089
:10111000882600208C26002048260020CDCC4C3E7E
:10112000342700206F12033A042700201FB5069CC5
:101130000094079C0194054C24680294FFF7FCFD81
:1011400004B0BDE81040FFF72DBF00BF280C002001
:10115000F8B5234D29600C68561EB300012707FA25
:1011600003F704F13402D2187B006C60AA602E6190
:101170006B612B68187902F0ADFA1A4BB0FBF3F0F3
:10118000431EA3624FF6FF73E36200232360E3680C
:1011900023F00103E360236A23EA070323626A69F9
:1011A000236A012E23EA02032362D4BF04F1180349
:1011B00004F11C0306F001061968F600FF2202FA8A
:1011C00006F221EA02021A601A68612101FA06F6A3
:1011D00016431E60236A1F43012327622360F8BD64
:1011E0003026002040420F0038B50F4C0F4BD4F88A
:1011F000F45308221A70ADB1D4F8F00394F8FC133C
:101200000A2202F09FF8294694F8FD2340F2DC50B0
:10121000FFF79EFF94F8FD13054A2846BDE83840C5
:1012200002F070BB38BD00BF94190020E4260020F6
:101230005503010808B5FFF7BDF8BDE80840FFF702
:10124000D3BF00000B4BF0B518680B4C0B4D0C4E88
:1012500000230CE01A5D36F8237005EB021201330F
:101260005168527B0968013A343141F82270834257
:10127000F0DBF0BD9C290020DABC010894190020A5
:10128000602600200A4B70B580B21C68094D0A4EDA
:1012900000230AE05A5D06EB021201335168527BCB
:1012A0000968013A343141F82200A342F2DB70BDF3
:1012B0009C290020DABC01089419002007282DE998
:1012C000F843204B02DD08221A6000E01860002479
:1012D0001C4FDFF87C80DFF8749017E014F808509A
:1012E00009EB051601347368187902F0F3F9164A10
:1012F0007368B0FBF2F01B68421E92B29A6240F62D
:10130000C412DA622846072103F034FB3A6894429B
:10131000E4DB00230D490E4801240AE01D5C01EBCB
:10132000051501336D682D6814356D0105F184458F
:101330002C609342F2DB4FF47A70BDE8F843FFF77C
:10134000A1BF00BF9C29002040420F00941900203B
:10135000DABC010838B5054600240FE040F24C40E5
:10136000FFF790FFFA2003F0F3FA4FF47A70FFF7DB
:1013700089FFFA2003F0ECFA0134E4B2AC42EDD17B
:1013800038BD00000C4B70B51C680C4B18680C4B3A
:1013900019680C4B251A1A680B4B20186E18441844
:1013A0006D1A411AB61AAD18A4188A1A1E605D602B
:1013B000DC609A6070BD00BF0C0C00200426002089
:1013C0007C2900200429002060260020F8B52DED9E
:1013D000028B364B1B78012B39D1354D354E2B689E
:1013E0003268354CD31A07EE103A9FED348AF8EE86
:1013F000C77A2168324A67EE887A17EE900AFFF7BB
:10140000C7F872686B6861682E4CD31A07EE103A01
:10141000F8EEC77A074667EE887A81F0004117EE4A
:10142000900A294AFFF7B4F82168284A0546384649
:10143000FFF7AEF807EE100A254B6168254AFDEE6E
:10144000C77A2846C3ED007A81F0004122E01D4DA5
:10145000214C0020FFF784F895ED007AD4ED007A56
:1014600067EE277A1D4A17EE901AFFF791F807EEFC
:10147000100A174BFDEEC77A0120C3ED007AFFF783
:101480006FF895ED017AD4ED007A67EE677A144A29
:1014900017EE901AFFF77CF807EE100A114BFDEEDD
:1014A000C77AC3ED007ABDEC028BF8BD7429002029
:1014B000F8280020BC26002014280020A69BC43A4F
:1014C0009C27002048270020B4270020E427002084
:1014D0007C290020FC270020000C0020542700203D
:1014E0006C2700200426002010B51D4B1A781D4BD8
:1014F000032A0CD0052A19D0012A0CBF4FF4FA6236
:101500004FF47A721A605A609A60DA6024E0164AE0
:101510001268B2F5966FB4BF11464FF49661B2F5FA
:101520007A7FACBF0A464FF47A72EBE70F4800228D
:1015300040F2E7341158A14205DDB1F5966FA8BF1E
:101540004FF4966101E04FF47A71D1500432102AC1
:10155000F0D1074B01221A70BDE81040FFF772BEB0
:101560002028002060260020080C0020D42800201D
:1015700080290020074A1368B3F57A7F05DB40F223
:101580003A718B42A8BF0B4601E04FF47A731360A7
:10159000704700BF0C0C0020144B15491868154B00
:1015A0004FF4FA6210B51A605A609A60DA60124A13
:1015B0000860136848608860C86051689942B8BF85
:1015C000194693689942B8BF1946D3689942B8BF83
:1015D0001946C1F5FA640023B1F5FA6F02DD985897
:1015E000001998500433102BF6D110BD302700207D
:1015F000EC250020E82800206026002010B5614B73
:101600001B78012B40F087805F4BDFED607A93ED14
:10161000007A5F4B67EE277A9FED5E6AC3ED007A32
:101620005D4B93ED007A77EE465A77EEC76AF4EE9B
:10163000E57AF1EE10FA98BFDFED585A37EE067AE8
:1016400098BF76EEA56A564BF4EEC77AF1EE10FA23
:10165000C3ED006A08DB524B9FED507AD3ED006A70
:1016600036EEC77A83ED007A4E4AD36840F24C4199
:101670008B424D4B47DD9268A2F2C352322A0FD9FA
:10168000454AC2ED007A00221A60484BC3F88C200C
:10169000474B00221A70474B1A68474B1A603AE0D2
:1016A0003F4A92ED007AF5EE006AB4EEE67AF1EE8A
:1016B00010FA07D5FDEE006AB4EEE67AF1EE10FA04
:1016C00000DD23E03A4A3C4C137883B9394B21685A
:1016D0001B683A48591A81421DD923602E4B0121BB
:1016E000C3ED007A304B117000221A6013E0002025
:1016F00017EE101A324AFEF74BFF2B4B18602D4B9A
:101700001B68236007E0244AC2ED007A00221A60B9
:10171000264BC3F88C20234B9A682A4B9B68D31A1C
:1017200007EE103A204BF8EEC76ADFED277A93ED0B
:10173000007A67EE277A9FED257A46EE877A9FED4D
:10174000247AF4EEC77AF1EE10FA09D49FED217AEB
:10175000F4EE477AF1EE10FAC8BFF0EE477A01E0F6
:10176000F0EE477A1C4B1D4A996817EE900AFEF777
:101770000FFF07EE100A1A4BFDEEC77AC3ED007A91
:1017800010BD00BFB0280020FC250020E12E6542DE
:101790009026002000003443F42600200000B443CB
:1017A0009C260020BC260020FC2600205427002078
:1017B0005C2600204C2600203827002020A10700AE
:1017C000CC270020F828002035FA8E3C0BD7A33B0D
:1017D000DB0F49C0DB0F4940482700208427002049
:1017E0000429002070B5FFF7F1FDFFF707FF294B33
:1017F0001B68DA0705D4284BDA68284B1A60FFF714
:10180000B9FE274B1B7823B1264B1B780BB1FFF792
:10181000B9FDFFF7C1FE204BDA6840F24B439A4214
:1018200005DD2149214D224E00230C4614E0214BB9
:101830001E4D1A68204B1E491878204B4FF4FA664B
:101840001C7800235A5110B10CB9CE5000E0CA5098
:101850000433102BF6D1E4E758585A59904203DB71
:101860009A598242A8BF0246E2500433102BF3D1AA
:101870000B4B1A781C460AB9FFF736FE2378012B6A
:1018800007D1084B1B78012B03D1BDE87040FFF74F
:10189000D9BC70BD00270020BC2600200C0C002005
:1018A000E82500208029002060260020EC2500206B
:1018B000E828002030270020B128002074290020CB
:1018C00070B5094D86B23146284601F06FFB002401
:1018D000B11C60F30F0489B2284601F067FB60F386
:1018E0001F44204670BD00BFB829002070B5084DC8
:1018F00004468EB23146A2B2284601F05FFBB11C0D
:10190000284689B2220CBDE8704001F057BB00BFE9
:10191000B829002038B50B4B182404FB00340846C6
:101920000D46FFF7CDFF2060281DFFF7C9FF60605F
:1019300005F10800FFF7C4FF0023A060E3606361C6
:1019400038BD00BF5427002038B5094B182404FBCC
:1019500000340D462068FFF7C9FF6068291DFFF7B6
:10196000C5FFA06805F10801BDE83840FFF7BEBF1C
:1019700054270020002008B50146FFF7CBFF0120C7
:101980002421FFF7C7FF02201821FFF7C3FF032020
:101990000C21FFF7BFFF04203021FFF7BBFF05201C
:1019A0003C21FFF7B7FF06204821FFF7B3FF542182
:1019B0000720FFF7AFFF4FF4A270FFF781FF194B2D
:1019C00018604FF48E70FFF77BFF07EE100A164B7E
:1019D000FDEEC77A4FF49070C3ED007AFFF770FF09
:1019E000124B18604FF49270FFF76AFF07EE900AEF
:1019F000FCEEE77A0E4B17EE900A18704FF49670D3
:101A0000FFF75EFF0B4B18604FF49470FFF758FF21
:101A100007EE100ABCEEC77A074B17EE100A1870D3
:101A200008BD00BF000C002030270020F826002051
:101A300074290020C8280020B02800202DE9F0419A
:101A400072B600200146FFF77FFF01202421FFF737
:101A50007BFF03200C21FFF777FF04203021FFF7E5
:101A600073FF02201821FFF76FFF05203C21FFF7CD
:101A70006BFF06204821FFF767FF07205421FFF77F
:101A800063FF444BDFF848811868434F434E4FF4DF
:101A9000A271FFF72BFF42484FF49C71FFF726FF1E
:101AA00040484FF49E71FFF721FF3F484FF4A0716B
:101AB000FFF71CFF3D484FF49A71FFF717FF3C48B2
:101AC0004FF49871FFF712FF35484FF49C71FFF700
:101AD0000DFF384B4FF48C711868FFF707FF002596
:101AE0002C4608EB040305F19C011868FFF7FEFE85
:101AF0003B1905F1A0011868FFF7F8FE331905F14D
:101B0000A40118680434FFF7F1FE0C35182CE8D155
:101B1000294BD3ED007AF8EEE77A4FF48E7117EE89
:101B2000900AFFF7E3FE254B4FF490711868FFF71A
:101B3000DDFE234B187807EE900AF8EE677A4FF433
:101B4000927117EE900AFFF7D1FE1E4B187807EE40
:101B5000900AF8EE677A4FF4947117EE900AFFF747
:101B6000C5FE194B4FF496711868FFF7BFFE174872
:101B70004FF48A71FFF7BAFE00204FF4BC71FFF7F3
:101B8000B5FE00204FF4BE71FFF7B0FE62B6BDE8AF
:101B9000F08100BF000C002014290020082600203E
:101BA000CDCCCC3D0000B44200007A43000048C2D6
:101BB00000004842B828002030270020F8260020E6
:101BC00074290020B0280020C8280020CDCC4C402B
:101BD0004C29002038B54FF49670FFF771FE114B79
:101BE000114D18604FF4A670FFF76AFE28604FF49D
:101BF000A470FFF765FE0D4C20604FF4AA70FFF74C
:101C00005FFE68604FF4A870FFF75AFE60604FF403
:101C1000AE70FFF755FEA8604FF4AC70FFF750FEB2
:101C2000A06038BDC8280020E8260020AC2900208C
:101C300038B5144B144D1868144C4FF49671FFF7D7
:101C400055FE28684FF4A671FFF750FE20684FF448
:101C5000A471FFF74BFE68684FF4AA71FFF746FEC8
:101C600060684FF4A871FFF741FEA8684FF4AE71A9
:101C7000FFF73CFEA0684FF4AC71BDE83840FFF7B9
:101C800035BE00BFC8280020E8260020AC2900206F
:101C9000F8B52E482E4B2F495860D8612E482F4A50
:101CA000986418662E482F4E18632F48196098675D
:101CB0002E489A6000249961D867C3F89010C3F841
:101CC000A8101A62C3F89820C3F8B020DC641C6521
:101CD0005C669C665E639C63C3F88040C3F8944076
:101CE000C3F8AC40224B234A234F4FF07E551D6072
:101CF000224B15601C6055605C6095609C60FFF72E
:101D000097FFFEF7E9FF1E4B1E481D601E4B1F4943
:101D100040F27E421A601E4B1E4A1A600023FA18D7
:101D20001560C2181460CA180433182B1560F6D158
:101D3000164B4FF07C529A60174B00221A70174BCB
:101D400001221A70164B1E60F8BD00BF000016433A
:101D5000542700200000C842000060400000AFC3CC
:101D6000000048430000A04000004040CDCCCC3DE6
:101D7000000C0020E82600204C290020AC2900207F
:101D8000B828002014290020302700200826002031
:101D9000C82800200AE81CC174290020B0280020AF
:101DA000F8260020274A916840F24B43994270B5CB
:101DB00015461E460BDC244C2378012B07D14FF42B
:101DC0007A70FFF75FFA214A002323701370AA6824
:101DD0001C4BB24214DC1A6840F26C718A420FDD6F
:101DE0005A6840F24B439A420ADCFEF72FFEFEF798
:101DF000B5FEFFF71DFFFEF713FC0320FFF7AAFA5D
:101E0000104B9A6840F26C739A4210DD0E490B78C1
:101E10006BB90F4B1878012809D10E4B087040F2AE
:101E20004C421A605A609A60DA60FEF7F9FB054B83
:101E30009A6840F24C439A4202DD054B01221A7027
:101E400070BD00BFBC260020E8250020B12800207E
:101E5000802900206026002010B5FEF701FB154BFD
:101E6000DA6840F24B439A4201DCFFF79BFF124ACB
:101E7000104B117849B911490978012905D1104C45
:101E8000D8682468A042C8BF11701A6940F2DC53B8
:101E90009A420C4B01DD012200E000220A4C1A702C
:101EA0001B7822789A4204D0FEF7BAFB054B1B78C8
:101EB000237010BDBC260020B1280020E82500209A
:101EC0003027002074290020240C00202DE9F04147
:101ED0004FF48C70FFF7F4FC104B114F114EDFF8EC
:101EE0004880186000252C4604F19C00FFF7E8FCB0
:101EF0007B19186004F1A000FFF7E2FC7319186069
:101F000004F1A400FFF7DCFC0C3408EB05030435F6
:101F1000482C1860E8D1BDE8F08100BFB828002047
:101F20004C2900201429002008260020F8B500259F
:101F3000064605702C464F1E0F4802F0E5FC28B9F6
:101F40000120013502F004FDEDB206E00A4802F07E
:101F5000EEFC30550134E4B200253CB1331913F8DE
:101F6000013C3B2B02D100233355F8BD092DFAD893
:101F7000BC42E1DBF7E700BFDC2900201FB50021F0
:101F80000B2201A8009104F027FE68460F21FFF7FD
:101F9000CDFF684604F02AFD08F0E2FA05B000BD66
:101FA00038B50546002403E0FFF7E8FF0134E4B24A
:101FB000AC42F9D138BD0000084B10B5182404FB21
:101FC0000034FFF7DBFF2060FFF7D8FF6060FFF70A
:101FD000D5FF0023A060E360636110BD542700209B
:101FE00010B50446FFF7CAFFDFED0B7A07EE100AC3
:101FF000B4EE677AF1EE10FA4FF00003074A04D10D
:10200000074914700B70012010BD1370054A4FF47E
:102010007A711160184610BD66E6F642202800204D
:10202000E8250020080C002038B5804802F06CFC40
:10203000002800F03A817D4802F079FC7C4B187052
:102040003138292800F23181DFE810F0CC00CE00D1
:10205000D300E2000C012F012F012F012F012F01CE
:102060002F012F012F012F012F012F0131003C00E3
:102070004C002F015D006900770086009800A100E8
:10208000A500B500BB00BB002A00BD002F012F0139
:102090002F012F01C200C400C6002F012F011F0114
:1020A000FFF76CFFFFF76AFFFFF768FF16E00020FD
:1020B000FFF782FF0120FFF77FFFFFF75FFF5D4B18
:1020C000186038BD0320FFF777FF0420FFF774FF87
:1020D0000620FFF771FF0720FFF76EFFBDE83840CD
:1020E000FFF74CBF0220FFF767FF0520FFF764FFF3
:1020F000FFF744FF07EE100ABCEEC77A4E4B17EE0F
:10210000100A187038BDFFF739FF4C4B1860FFF705
:1021100035FF07EE100A4A4BFDEEC77A75E0FFF770
:102120002DFF484C484B04F118051860FFF726FFB7
:1021300044F8040FAC42F9D138BDFFF71FFF07EE9A
:10214000900A424BFDEEE77AC3ED007A17EE904A13
:10215000FFF714FF3E4B0DE0FFF710FF07EE100AEC
:102160003A4BBDEEC77A83ED007A17EE104AFFF7BF
:1021700005FF384B03EB8404206038BDFFF788FD72
:10218000FFF75CFCFFF754FDFEF760FC26E0BDE8BE
:102190003840FEF75BBCFFF7F1FE2F4C2060FFF7E5
:1021A000EDFEFFF7EBFE6060FFF7E8FEFFF7E6FEEF
:1021B000A060FFF7E3FEFEF7D1FCBDE83840FFF773
:1021C00037BD032000E00D20BDE83840FFF7E8BE32
:1021D0000220F9E70920F7E7FFF730FCBDE83840B7
:1021E000FEF71EBA012000E00220BDE83840FFF7EC
:1021F000F7BE0320FFF7F4FE002856D0FFF7BEFE1F
:1022000007EE100A154BFDEEC77AC3ED007A38BD14
:102210000420FFF7E5FE002847D0114B00221A707A
:102220000E4B4FF47A721A6038BD00BFDC290020D3
:10223000040C0020000C0020B0280020F82600200C
:102240003027002004260020B82800200C29002078
:102250004C29002014290020E8260020080C00202A
:10226000202800200520FFF7BBFEF0B10F4D002411
:10227000FFF784FE07EE100AFDEEC77A17EE903ADC
:1022800063510434102CF3D138BDFFF777FE07EE0D
:10229000100AF7EE007AB4EE677AF1EE10FA044B0A
:1022A00001D1012200E000221A7038BDD42800209C
:1022B0009426002001482C2101F0E2BDDC290020F9
:1022C00008B501460A22034801F04FFEBDE8084068
:1022D000FFF7F0BFDC29002008B501460A220348B9
:1022E00001F06AFEBDE80840FFF7E4BFDC290020EA
:1022F00038B50546002404E00020FFF7EDFF013467
:10230000E4B2AC42F8D138BD07B507F0F3FD0B4697
:10231000022102460091044801F006FF03B05DF877
:1023200004EBFFF7C7BF00BFDC290020074B10B547
:10233000182404FB00342068FFF7E6FF6068FFF70D
:10234000E3FFA068BDE81040FFF7DEBF5427002080
:1023500038B503460D460B481946144601F095FD65
:102360000848094901F091FD084B1B681D4203D143
:102370000448074901F089FD02482146BDE838407C
:1023800001F093BDDC29002003BF0108782900205B
:10239000E2BC01080000000073B5374C374D0A223B
:1023A00020460F2101F00FFE01262046344901F09E
:1023B0006CFD2FA3D3E900232046009601F0B9FE5F
:1023C0002046304901F061FD20462F4901F06DFDA6
:1023D00020462E4901F059FD20462D4901F065FDAA
:1023E00020462C4901F051FD0A222046062101F029
:1023F000EAFD2046284901F048FD204604210A2232
:1024000001F0E1FD31462A462448FFF7A1FF0221F1
:102410002A462348FFF79CFF08212A462148FFF758
:1024200097FF2A46204D21480421FFF791FF1021F4
:102430002A461F48FFF78CFF20212A461D48FFF738
:1024400087FF40212A461C48FFF782FF80212A4649
:102450001A48FFF77DFF1A484FF480712A46FFF7AC
:1024600077FF1849204602B0BDE8704001F01DBD5D
:10247000000000A099990940DC29002050BD010806
:10248000E7BC0108FABC010807BD010812BD01083C
:1024900022BD010829BD01083DBD010846BD010856
:1024A00059BD010867BD0108D3BD010871BD010810
:1024B0007EBD01088BBD010899BD0108A9BD0108B9
:1024C000BABD0108CABD0108F7B5AC4C23786B2B27
:1024D00000F0E0802FD8632B00F08D8018D8362BC9
:1024E00000F0E3810ED8232B00F0DA8103D8212BF2
:1024F00040F0E981CBE1242B00F0BD81252B40F099
:10250000E281BCE1612B5ED0622B40F0DC8165E0B2
:10251000662B00F0848005D8642B76D0652B40F0C4
:10252000D28174E0682B00F0A080C0F08980692B14
:1025300040F0C98129E0722B00F00C8110D86E2B7D
:1025400000F0FB8006D86C2B00F0E6806D2B40F08D
:10255000BA81A7E1702B00F0F48000F2F480EEE085
:10256000752B00F0728106D8732B00F02B81742B31
:1025700040F0A98160E1792B00F077817A2B00F09F
:102580007681762B40F09F8168E17D4C2068FFF7D3
:10259000BBFE6068FFF7B8FEA0687A4CFFF7B4FE98
:1025A0002068FFF7B1FE6068FFF7AEFEA068FFF796
:1025B000ABFE0020FFF790FE0020FFF78DFE00200D
:1025C000FFF78AFE32E10020FFF7B0FE0120FFF79F
:1025D000ADFE6D4B1868FFF797FE42E10320FFF751
:1025E000A5FE0420FFF7A2FE0620FFF79FFE0720AE
:1025F000FFF79CFE2CE10220FFF798FE0520FFF775
:1026000095FE624B6248197824E10A2027E1614B6C
:102610001868FFF779FE604B5D4819681AE15F4B57
:102620005F4C1868FFF770FE04F1180554F8040FAA
:10263000FFF76AFEAC42F9D10420FFF759FE3CE1F6
:10264000584C062504F1180654F8040F07F052FC04
:10265000009502460B464E4801F066FD2C214C4881
:1026600001F00EFCB442EFD127E14F4C062504F1F6
:10267000180654F8040F07F03DFC009502460B467F
:10268000434801F051FD2C21414801F0F9FBB442CF
:10269000EFD112E1454F464E386807F02BFC062576
:1026A00002460B463A48009501F03EFDFFF702FE58
:1026B000306807F01FFC009502460B46344801F0D5
:1026C00033FDFFF7F7FD786807F014FC009502462C
:1026D0000B462F4801F028FDFFF7ECFD706807F06E
:1026E00009FC009502460B46294801F01DFDFFF745
:1026F000E1FDB86807F0FEFB009502460B46244852
:1027000001F012FDFFF7D6FDB06807F0F3FB00956E
:1027100002460B461E48C0E0264CFEF7EFF90220A9
:1027200002F016F9FEF7E8FA2068FFF7D5FD6068B9
:10273000FFF7D2FD1648A168A3E003208FE0042034
:102740008DE00D208BE01C4B114819680A2201F026
:10275000FFFBA7E0194C2068FFF7D6FD6068FFF784
:10276000D3FD174B186807F0C5FB0B460221024644
:102770000091074801F0DDFCA5E000BF040C00203B
:1027800048270020BC280020000C0020B028002092
:10279000DC290020F826002030270020B82800205F
:1027A000042600204829002010290020E8260020C7
:1027B000AC290020B0260020782900201428002011
:1027C000FC250020444B454C1878454DFFF778FD1B
:1027D0002068FFF799FD6068FFF796FD414B186888
:1027E000FFF792FD0020FFF777FD0020FFF774FD53
:1027F0000024E3B2052B94BF55F8240000200134D7
:10280000FFF76AFD082CF4D1374D002460590434D9
:10281000FFF762FD102CF9D10420FFF769FD0020BD
:10282000FFF75AFD314B1878FFF74AFD304803B0E7
:10283000BDE8F04001F02EBB294D0024605904345E
:10284000FFF74AFD182CF9D1F0E70020FFF744FD0F
:10285000274800210A2201F0B6FB23E00920FFF7F8
:1028600047FD234801F016FB1CE00B2004E000208C
:10287000FFF732FD03E00320FFF73AFDD6E71C48DF
:1028800000210A2203B0BDE8F04001F09CBB012307
:1028900000930FA3D3E90023154801F04AFC01E09F
:1028A000FFF77AFD582323700DE00F4D0024605987
:1028B0000434FFF711FD102CF9D10D4801F0EAFAAC
:1028C0000C4B58221A7003B0F0BD00BFAFF300806C
:1028D000000000A099990940E82500201428002054
:1028E000BC260020FC250020602600207429002042
:1028F000DC290020040C002010B525484FF4E131FC
:1029000002F000F84620002102F034F846200021B1
:1029100002F072F8FFF72EF84FF48A70FEF7D0FF3E
:10292000DFED1C7A07EE100AB4EE677AF1EE10FACA
:1029300005D0FFF7ADF90124FFF780F800E000248F
:10294000FEF770F90420FEF7B9FC0620FEF772FCD2
:10295000FFF7BCFAFDF7D0FFFEF778F80028FBD0B0
:102960001CB1FEF7FBF8FFF769F8FDF7BFFEFFF7B4
:1029700031F9FEF79DFBFDF7CDFC074B01211860F7
:10298000462002F039F8054B00221A7010BD00BF36
:10299000DC290020CDCC4C40982600208029002046
:1029A0001C4B1A681C4B1968511A07EE901AB8EEA6
:1029B000677ADFED1A7AC7EE277AF0B518491A6000
:1029C00085B0184E184D194F0024C1ED007AFDF75F
:1029D000F7FFFEF793F807EB441156F8040FFDF7E5
:1029E00033FE0134032C45F8040FF4D1104B114A87
:1029F0005968009199680191094909680291106824
:102A000051681B689268FEF791FB05B0BDE8F04085
:102A1000FEF7E8BE4C2600208829002000247449D7
:102A2000280C00203C290020B82800203028002055
:102A3000BC28002048270020094B1A68094B196858
:102A40001A60511A07EE901AB8EE677ADFED067A2F
:102A5000C7EE277A0549C1ED007AFFF7FDB900BF3F
:102A60004C2600205426002000247449280C002005
:102A700008B50B4B1A680B4B19681A60511A07EE10
:102A8000901AB8EE677ADFED087AC7EE277A074921
:102A9000C1ED007AFFF7C8FABDE80840FFF714BDA2
:102AA0004C2600200829002000247449280C00200E
:102AB000084B1A68084B19681A60511A07EE901AE9
:102AC000B8EE677ADFED057AC7EE277A0449C1EDE3
:102AD000007A70474C260020842900200024744985
:102AE000280C002010B5FDF715FC1E4B1E4C18607D
:102AF0001E4B1B68C01A2060FEF7FEF8226842F2E7
:102B00000F739A4227D91A4C236801332360FFF7C9
:102B100047FF2368D90701D4FFF78EFF22680A23F5
:102B2000B2FBF3F103FB11238BB10E4B1A68114B6F
:102B30001968114B511A994202D9FFF799FF06E023
:102B40000E490968521A9A4201D9FFF7B1FF054BA5
:102B50001A68064B1A60064B1A68632A01D90022CC
:102B60001A6010BD4C260020002600209826002068
:102B70000027002008290020A086010084290020C9
:102B800008B5FFF7B9FEFFF7ADFFFCE710B5084C3D
:102B90000421204601F0C4FD204601F06AFE002316
:102BA00023726060FDF7B6FB024B186010BD00BFDA
:102BB000242800203827002010B50C888068A4B293
:102BC0004FF6FF739C420ED00B889BB2934208D104
:102BD00009E01A68013204D104338B42F9D3002092
:102BE00010BD832010BD0B1D0918F6E738B50B8802
:102BF0009BB20C46591E89B24FF6FD72914203D822
:102C00004EF6EE62934203D165880135ADB200E025
:102C100000252046FDF72AFB052805D1A01C2946E2
:102C2000BDE83840FDF73ABB38BD70B505460C46E7
:102C30001646FFF7C1FF60B128462146FFF7D6FFD1
:102C4000052806D1284621463246BDE87040FFF7E8
:102C5000B3BF70BD016840680B8802889BB292B216
:102C600033B94FF6FF7082420CBF08460020704710
:102C70000AB1002070474FF6FF729342F9D17047B6
:102C8000F0B585684FF6FF764D190020063111E04A
:102C90000C88A4B2B4420CD094420AD00B1D04E0BC
:102CA0001F88BFB2A74204D00433AB42F8D301302F
:102CB00080B20431A942EBD3F0BD2DE9F74F85680E
:102CC00080460E4691469B464F190C1D03E0236833
:102CD000013340D00434BC42F9D3812140E02B8839
:102CE0004FF6FF729BB293421FD05B451DD0B11DC2
:102CF00004E0088880B2984217D00431A142F8D38A
:102D000026E035F8021C0193204689B2FDF7C6FA89
:102D10000528019B00D005E0A01C1946FDF7BEFA6E
:102D2000052801D001461BE00434043D5545D6D8A2
:102D3000494640464FF6FF72FFF777FF014678B9E4
:102D40003046FDF7ABFA052814BF0146002107E025
:102D5000BC42D6D3C1E7023D09F1040A4D44E5E780
:102D60000846BDE8FE8F2DE9F04705460F46904620
:102D7000FFF770FF0446002861D0AB6800EB030941
:102D8000A9F1020619E033889BB2BB4214D136F890
:102D9000023C9BB2B01E434502D10020BDE8F08743
:102DA0004FF6FF72934201D0261D1BE04146FDF70E
:102DB00075FA0528F8D1F0E7043EA642E3D8F3E718
:102DC000336801330DD130464146FDF767FA0528D7
:102DD00039D1B01C3946FDF761FA0528DDD0BDE8D0
:102DE000F08704364E45EBD3284621463A46FFF796
:102DF00047FFAB6801309B0880B2013B984221D26B
:102E00006E68B44208BF2E684EF6EE613046FDF79C
:102E100045FA052817D1301D4146FDF73FFA052830
:102E200011D1B01D3946FDF739FA05280BD12846D6
:102E3000314622463B46BDE8F047FFF73EBFAB2098
:102E4000BDE8F0878120BDE8F08710B50446FDF7A6
:102E500051FA216820460022FFF7E7FE0146A0B99B
:102E6000206802884FF6FF7392B29A4205D1FDF7AF
:102E700015FA052801D0014607E0616820464FF6A3
:102E8000FF72BDE81040FFF7D0BE084610BD2DE927
:102E9000F0410446FDF72EFAAB232268A381178880
:102EA0006668BFB235884EF6EE639F42ADB21DD064
:102EB0004FF6FF78474502D0002F33D038E015B9E0
:102EC000204611460AE09D420AD100213046FDF716
:102ED000E5F9052800D03DE0216820463A4637E074
:102EE000BD4238D12046FFF7B0FF33E03DB911466F
:102EF000204632464FF6FF73FFF7DFFE2AE04FF61B
:102F0000FF739D4227D1314620462A46FFF78DFEAA
:102F10000146A081F8B92068FDF7C0F9052808BF6F
:102F2000002017E0BDB19D42204631460FD1E1E7B8
:102F300015B9204611460AE09D420CD100213046C9
:102F4000FDF7ACF9052800D004E021682046424690
:102F5000FFF76BFEA081A089BDE8F0814FF6FF73FB
:102F600070B513808389842B04460E46154604D120
:102F7000FFF78DFF08B1A08970BD2046FFF76AFEFC
:102F800090B1A368023B1B18063009E01A8892B280
:102F9000B24204D133F8023C00202B8070BD043BC8
:102FA0008342F3D2822070BDAB2070BD07B50DF116
:102FB0000602FFF7D3FFBDF806000EBD8389842B00
:102FC00070B504460D46164604D1FFF760FF08B100
:102FD000A08970BD4FF6FF739D4206D0204629465A
:102FE0003246BDE87040FFF7BEBE822070BD0000D3
:102FF000054B064A1A6002F580425A604FF480423F
:103000009A6084229A817047B829002000800008C5
:1030100007EE102AF7EE006AB4EE667AF1EE10FAC7
:1030200007EE900A06EE101A07D076EEC76A66EE33
:10303000266A47EE876AF0EE667A17EE900A7047C6
:10304000F0B594464C1E10E01EB2013350F8262015
:1030500050F82370BA4204DD40F8232040F826706F
:103060000025DBB2A342EFDB15B900230125F9E708
:10307000036850F824209B1A002BB8BF5B42CCF8A1
:103080000030022391FBF3F150F82100F0BD07EE70
:10309000100AB5EEC07AF1EE10FA07EE901A04DDD0
:1030A000F5EEC07AF1EE10FA0BD4B5EEC07AF1EE7F
:1030B00010FA01D400207047F5EEC07AF1EE10FA54
:1030C000F8DD0120704707292ED8DFE801F0040958
:1030D0000E13191E232803689A6842F03D020DE082
:1030E00003689A6842F4746208E003689A6842F4DC
:1030F000741203E003689A6842F074629A60704741
:103100000368DA6842F03D020DE00368DA6842F4D1
:10311000746208E00368DA6842F4741203E003683A
:10312000DA6842F07462DA60704738B54B1C50F8C8
:10313000333005460C4633B1984728462146BDE852
:103140003840FFF7C0BF38BD024B00211868FFF7B9
:10315000ECBF00BFBC0C0020024B01211868FFF738
:10316000E4BF00BFBC0C0020024B02211868FFF72F
:10317000DCBF00BFBC0C0020024B03211868FFF726
:10318000D4BF00BFBC0C0020024B04211868FFF71D
:10319000CCBF00BFBC0C0020024B05211868FFF714
:1031A000C4BF00BFBC0C0020024B06211868FFF70B
:1031B000BCBF00BFBC0C0020024B07211868FFF702
:1031C000B4BF00BFBC0C0020024B00211868FFF701
:1031D000ACBF00BFC00C0020024B01211868FFF7F4
:1031E000A4BF00BFC00C0020024B02211868FFF7EB
:1031F0009CBF00BFC00C0020024B03211868FFF7E2
:1032000094BF00BFC00C0020024B04211868FFF7D8
:103210008CBF00BFC00C0020024B05211868FFF7CF
:1032200084BF00BFC00C0020024B06211868FFF7C6
:103230007CBF00BFC00C0020024B07211868FFF7BD
:1032400074BF00BFC00C0020074B10B553F83030DE
:1032500004463BB19847012303FA04F4034B5C6135
:1032600000BF00BF10BD00BFC40C0020003C0140E7
:103270000E4B2DE9F04788465F69044600254FF064
:10328000010ADFF82C9009E00AFA04F63E4204D065
:1032900059F834300BB19847354301344445F3D9DC
:1032A000024B5D6100BF00BFBDE8F087003C0140FC
:1032B000C40C00200020FFF7C7BF0120FFF7C4BFE8
:1032C0000220FFF7C1BF0320FFF7BEBF0420FFF7B6
:1032D000BBBF05200921FFF7CBBF0A200F21FFF755
:1032E000C7BF10B50446007900F0B4F92079BDE8F5
:1032F000104000F0C5B9000008B50B48FFF7F1FF1A
:103300000A48FFF7EEFF0A48FFF7EBFF0948FFF70F
:10331000E8FF0948FFF7E5FF0848FFF7E2FF084824
:10332000BDE80840FFF7DDBF440D00204C0D002034
:10333000540D00205C0D0020640D00206C0D002059
:10334000740D0020036870B54800032404FA00F4EB
:1033500002F0030505FA00F51E68E44326403543F4
:10336000C2F3810606FA00F61D60DD68254035438C
:10337000C2F3011606FA00F0DD609D68C2F3801208
:103380002C402043012402FA01F204FA01F1986072
:10339000586820EA01010A435A6070BD0368C808F2
:1033A00001F0070130B589000F2404FA01F402F09E
:1033B0000F0202FA01F1083053F8205025EA040404
:1033C0000C4343F8204030BD03681A6812F4985F3C
:1033D000FBD11A6842F480721A60704703681A6859
:1033E00012F4985FFBD11A6842F400721A601A68EE
:1033F00012F4985FFBD17047036810B59A690446D0
:1034000002F47062826100225A619A61FFF7E6FF5E
:1034100023685A6822F4E0625A60FF23637310BD88
:1034200070B5044622680569536996694F4E6888ED
:10343000366800F0010013F0010FC1B266610FD0D1
:103440000023EB80536843F48063536019B1136821
:1034500043F4806313602B8840EA4300106100232B
:1034600098071CD5AB8881B1012B0CD1136820467D
:1034700023F480631360E389012B02D9FFF7A4FFD3
:1034800001E0FFF7ABFF002309E0012B06D0EB883A
:10349000A868C05C0133EB801061F4E70B4603F0D1
:1034A0008402802A18D1E6898EB1EA88AB68995CDB
:1034B0000132236892B2EA801961A98891420AD147
:1034C0005A68013E22F480625A60E68103E000F00F
:1034D00081FC334600E0002303F08402842A17D1E4
:1034E000E689204656B1FFF76FFF22685369D90776
:1034F000FCD523690C332361002309E0FFF76EFF3D
:1035000023685A6822F400725A60022363733346B8
:103510005B0629D52268EB881169AA68D154AA886C
:1035200001339BB2511E8B42EB8010D123682046A1
:103530001A6822F480621A60E389022B03D9BDE87D
:103540007040FFF741BFBDE87040FFF747BF9342AF
:103550000AD1E389013B9BB2E38113B90223637370
:1035600070BD23690C33236170BD00BF202B002088
:103570000148FFF755BF00BF7C0D00200148FFF751
:103580004FBF00BF980D00200148FFF735BF00BFB7
:103590007C0D00200148FFF72FBF00BF980D0020D1
:1035A000234A136843F4803313604FF4A063116817
:1035B000890301D4013BFAD11D4B1A68900316D43C
:1035C000704719681A4A8901FBD51A4B40F2056108
:1035D0001960936823F003039360936843F0020338
:1035E0009360936803F00C03082BFAD170471A6CB0
:1035F000114842F080521A64104ADFF850C0116836
:1036000041F4804111609A680D499A609A6842F4C9
:1036100000429A609A6842F4A0529A60094A82E88D
:103620000310094A5A601A6842F080721A60C8E7AB
:1036300000380240003C024080DE80020070004002
:1036400000BD0105C829002008544007007A030A7C
:10365000FFF7A6BF084B094A13F8101003EB40030D
:1036600052F821205B7803EBC2039B0003F18443F3
:1036700001221A60704700BF18BE0108F0BD0108A2
:10368000094A0A4B12F8101002EB400253F82110BD
:103690005378012203EBC1039B0003F184431A60BA
:1036A00000221A60704700BF18BE010804BE01085E
:1036B000014B13F81000704718BE0108034B13F8B4
:1036C0001020034B53F82200704700BF18BE0108BA
:1036D000C8290020034B13F81020034B53F8220095
:1036E0004000704718BE0108C8290020704700003C
:1036F000024B072258601A60704700BF10E000E0DC
:1037000008B572B6054B1B68054B1A6801321A6082
:1037100062B6044B1B6803B1984708BD10E000E097
:10372000202B0020D8290020002808DB421101238B
:1037300000F01F0003FA00F0014B43F8220070472D
:1037400000E100E070B54C1E6FF0070501F00101CB
:1037500069430831C9B2FF2505FA01F5134303FA9D
:1037600001F10068C4F34004183050F8246026EAE0
:1037700005050D4340F8245070BD023138B550F8AE
:1037800021301546046823B19847236923EA0505CB
:10379000256138BDF8B505680646EB682F691F40FE
:1037A00017F0400403D0046A0CB1A0474024BB06C4
:1037B00004D5F36913B1984744F020042B6923EA38
:1037C00004042C61F8BDF8B507680646FB683D693E
:1037D0001D4015F0100403D084690CB1A0471024DB
:1037E000280704D5736913B1984744F008046907A2
:1037F00004D5336913B1984744F00404AA0704D5EB
:10380000F36813B1984744F002043B6923EA0404C7
:103810003C61F8BDF8B507680546FB683E691E4087
:1038200016F0400403D0046A0CB1A0474024F3060C
:1038300004D5AB6913B1984744F01004300704D5A0
:103840006B6913B1984744F00804710704D52B69DC
:1038500013B1984744F00404B20704D5EB6813B1E0
:10386000984744F00204F30704D5AB6813B19847B6
:1038700044F001043B6923EA04043C61F8BD036899
:1038800001392033DB0003EB8101890001F1844120
:1038900001230B60704710B504460079FFF7DAFE8C
:1038A0002079BDE81040FFF7EBBE00000D4B10B5CE
:1038B00004461868A0470C4B1868A0470B4B1868C3
:1038C000A0470B4B1868A0470A4B1868A0470A4B43
:1038D0001868A047094B1868A047094B1868A0470B
:1038E00010BD00BF600E0020640E0020680E002096
:1038F0006C0E0020700E0020740E0020780E002048
:103900007C0E00208B1C40F82320036801220C331E
:1039100001EBC3039B0003F184431A6043790079F0
:10392000002B20D1B0F10A0250425041072944D85F
:10393000DFE801F004090909090F0F1400280CBF82
:103940002C20192003E000280CBF2E201B20FFF79D
:10395000EBBE00280CBF2D201A20F8E700280CBF72
:103960002B201820F3E70B38112820D8DFE800F0CF
:10397000090C0F1F1F1F1F1F1F1F1F1F1F1F1F149B
:10398000171A4FF0805204E04FF0005201E04FF060
:1039900080420A4B1A6070474FF4802204E04FF4D3
:1039A000800201E04FF40002044B5A607047044863
:1039B000044A40F2DD1100F0D7B9704700E100E0A1
:1039C00070BE0108A7BE0108036803F10C0201EBF9
:1039D000C2029200002302F184420231136040F8D7
:1039E000213070474B1E032B70B504460D4616461A
:1039F00004D92048AD21204A00F0B6F96379022BA2
:103A000004D11C48B0211D4A00F0AEF96379022BA5
:103A10002FD0012E13D002D3022E2AD11DE0294629
:103A20002046FFF7D1FF2368013D2033DB0003EB85
:103A30008505AD0005F1844500232B6070BD23682A
:103A400000220C3305EBC3039B0003F184431A608F
:103A5000204629466022082303E0204629461022FA
:103A60000023FFF76FFE20462946BDE87040FFF7B0
:103A700006BF70BD70BE0108A9BE0108C5BE010821
:103A8000024B072118688022FFF777BE600E0020E6
:103A9000024B002118680122FFF76FBE600E002064
:103AA000014B1868FFF776BE600E0020014B1868C6
:103AB000FFF789BE600E0020014B1868FFF7AABE11
:103AC000640E0020014B1868FFF7A4BE680E0020AA
:103AD000014B1868FFF79EBE6C0E0020014B186862
:103AE000FFF798BE700E0020024B002118680122DB
:103AF000FFF743BE740E0020024B0021186801221C
:103B0000FFF73BBE780E0020024B07211868802289
:103B1000FFF733BE7C0E0020024B00211868012203
:103B2000FFF72BBE7C0E0020014B1868FFF732BE5A
:103B30007C0E0020014B1868FFF745BE7C0E00206C
:103B400038B5044690F820020D46FFF7B7FD19215D
:103B50004843AD00B0FBF5F16423B1FBF3F2120171
:103B6000100903FB101109013231B1FBF3F303F02B
:103B70000F0321681A4392B28A6038BD036801229C
:103B80005B0103F5CE7303F184431A607047036849
:103B900000225B0103F5CE7303F184431A60704782
:103BA00013B503681A680192019A910617D54289E4
:103BB0005C680389511C994236D08189914203D1B6
:103BC00013B931E00133038143689C5443898289EE
:103BD0009A4201D0013300E0002343812BE0019A97
:103BE000120628D5C18A828A89B292B2C48A8A1AF8
:103BF000818AA4B289B28C4203D2018B89B201318D
:103C0000521892B25AB1828A048B01699442895C3B
:103C100001D0013200E00022828259600BE0FFF700
:103C2000B6FF00BF00BF06E04168C95C81899942C8
:103C3000C8D10023C7E71CBDF8B504460E46174699
:103C40000025BD4219D0E38AA08A591C8142725DC9
:103C500013D0218B994208D138B90EE00133E382A9
:103C60002046FFF78BFF0135EBE72069C254E38A5A
:103C7000228B9A42F2D10023F1E72846F8BD30B5F5
:103C80000A2285B005460024B1FBF2F302FB1311B2
:103C900001A83031215401341946002BF4D10BE036
:103CA00001ABE35C8DF8033028460DF103010122DE
:103CB000FFF7C2FF0028F7D014F1FF34F0D205B0AF
:103CC00030BD0000014B1868FFF76ABFF0100020FC
:103CD000014B1868FFF764BFF4100020014B18680F
:103CE000FFF75EBFF8100020014B1868FFF758BFC0
:103CF0008C190020014B1868FFF752BF9019002063
:103D000037B502AC054604F8011D284621460122BC
:103D1000FFF792FF0028F8D03EBD38B505464C1E8F
:103D200002E02846FFF7ECFF14F8011F0029F8D144
:103D300038BD000038B5054662B6094C094920680F
:103D4000FFF7EBFF20682946FFF799FF20680A215B
:103D5000FFF7D6FF20680D21FFF7D2FFFEE700BF77
:103D6000F4100020DEBE0108F8B5164C06460D46DC
:103D700020684FF4E1311746FFF7E2FE2068124950
:103D8000FFF7CBFF20683946FFF7C7FF20680F49D0
:103D9000FFF7C3FF20683146FFF7BFFF20680C49DB
:103DA000FFF7BBFF20682946FFF769FF20680A215B
:103DB000FFF7A6FF20680D21FFF7A2FF4FF0FF30AD
:103DC000FFF7B8FFF4100020ECBE010802BF0108A5
:103DD00003BF010838B5104B05211C68212220467D
:103DE000FFF7B0FA002301211A4620200AE0002A3A
:103DF00008BF012101E04FF0FF31B3F5006F04BFB0
:103E0000521800232568934234BF28836883013306
:103E1000B2F5006FEBD1EEE7ECBD01080000000049
:103E2000012007E0022005E0032003E0042001E078
:103E30000520FFE7FEE70D4A0121116072B60C4A2A
:103E400000211160064902B4074902B486B0054951
:103E50008E467047AFF30080AFF30080AFF3008071
:103E600000000061F9FFFFFF353D010814ED00E09F
:103E700010E000E0AFF30080AFF30080AFF300800C
:103E800008B503681B68984708BD08B503685B68F8
:103E9000984708BD10B50D210446FFF7F1FF2046F5
:103EA0000A21BDE81040FFF7EBBF10B50446FFF74D
:103EB000ECFF2046BDE81040FFF7ECBF2DE9F043D2
:103EC0001D46144691B054EA050281469DF86030C3
:103ED00005D1302111B0BDE8F043FFF7D1BF002676
:103EE0005FFA83F837462046294642463B4606F0AD
:103EF000FDFB20460DF8062029463B46424606F0CB
:103F0000F5FB04460D46013654EA0503EBD10AE001
:103F10001DF80610092901D8303100E03731C9B247
:103F20004846FFF7ADFF16F1FF36F1D211B0BDE8FC
:103F3000F08370B5049C054624B90368D1B21B68B0
:103F4000984770BDE4B20494BDE87040FFF7B6BF77
:103F500013B5002300920A460446FFF7EAFF204605
:103F600002B0BDE81040FFF795BF07B500230092EF
:103F7000CAB2FFF7DEFF0EBD2DE9F041069F0646EF
:103F800014461D462FB90368D1B21B689847BDE897
:103F9000F081002C75F1000305DA2D21FFF770FF89
:103FA000644265EB4505FFB2304622462B46069734
:103FB000BDE8F041FFF782BF07B5CB1700920A4674
:103FC000FFF7DAFF0EBD10B50446FFF7F5FF2046F8
:103FD000BDE81040FFF75EBF2DE9F74319460646DE
:103FE000154610461C460022002306F067FA9DF88D
:103FF00028704FF0010838B12846214642A3D3E982
:10400000002306F051FA06E02846214640A3D3E9F2
:10401000002306F03FFA00B980465FFA88F328468D
:104020002146002273B1002306F02AFA18B1304667
:104030002D21FFF725FF3849304603B0BDE8F04396
:10404000FFF723BF002306F01BFA28B130462D21CD
:10405000FFF716FF04F100444FF0000800222F4B39
:104060000BE01046194600222D4B06F0C1F808F16E
:10407000010802460B465FFA88F8B845F1D1284698
:10408000214605F0D9FD04460D4606F045FB804665
:10409000894605F055FF02460B462046294605F0A5
:1040A000C9FD0A2304460093304642464B460D465E
:1040B000FFF762FF1FB330461A49FFF7E6FE1CE028
:1040C000174B00222046294605F068FF0D4604469E
:1040D00006F0FEF980460A2230464146FFF76CFFA3
:1040E000404605F0F5FE02460B462046294605F0FF
:1040F000A1FD013F04460D46FFB2002FE0D103B001
:10410000BDE8F083AFF30080800350726C92DF4310
:10411000800350726C92DFC306BF01080000E03FCD
:104120000000244015BF01089DF800100091FFF722
:1041300053BF13B59DF8101004460091FFF74CFFD4
:10414000204602B0BDE81040FFF7A4BE2DE9F047BD
:1041500005460468FFF79FFB2B680022590101F117
:1041600084410A60802121600121A1622261E26014
:104170006A79616112B18A4229D102E04FF40042AA
:1041800062644FF6FF72DA6203F1340C002248F6E3
:10419000FF7803F118006FF00707FF266825511C10
:1041A00001F001047C430834E4B206FA04FA05FA8B
:1041B00004F44CF82280521050F82290042929EA85
:1041C0000A0949EA040440F822400A46E7D15B01A3
:1041D00003F1844301221A60BDE8F08710B504465C
:1041E00000F0F9FC20464FF4602100F001FD226848
:1041F0000123083202F1404251015031520101F1D4
:10420000844102F184420B602046136000F01EFDE1
:1042100020460521BDE8104000F004BD08B54FF46C
:10422000E01202204FF48031FFF712FA002001461D
:10423000FFF75CFA01204FF48061FFF757FA022084
:104240000021FFF753FA00210B4800F01FFD0B4837
:10425000FFF74EFAFFF750F82A20FFF7FBF900F0BE
:1042600013F800F0F5FC064800F0CAFC0548BDE86C
:104270000840FFF71BBB00BF000001083F90020091
:10428000DD4101084D4101083A4B70B51D680F2111
:1042900028460122FFF782F8374B03211C680122D0
:1042A0002046FFF77BF8354B0C211E680222304672
:1042B000FFF774F830460D210222FFF76FF8304601
:1042C0000E210222FFF76AF830460F210222FFF783
:1042D00065F82B4B09211E6801223046FFF75EF876
:1042E00030460B210122FFF759F830460D210122FB
:1042F000FFF754F830460E210122FFF74FF8214B0B
:1043000003221E6806213046FFF748F80721304691
:104310000322FFF743F8304608210322FFF73EF857
:10432000304609210322FFF739F8204604210222F2
:10433000FFF734F8204605210222FFF72FF8204628
:1043400000210222FFF72AF8204601210222FFF76E
:1043500025F8284600210222FFF720F828460121EF
:104360000222FFF71BF8022128460A46BDE87040EA
:10437000FFF714B8DCBD0108E0BD0108E8BD010885
:10438000ECBD0108E4BD0108794B7A491A687A4B03
:1043900010B508681A601A611A621A631A641A65FD
:1043A0001A661A67C3F88020C3F89020C3F8A020CB
:1043B000C3F8B020C3F8C020C3F8D020C3F8E02071
:1043C000C3F8F0206D496E4A096814686D4A586058
:1043D00099605861996158629962586399639964C8
:1043E000996599669967C3F8F44012686648C3F8FE
:1043F0000021C3F81021C3F82021C3F83021C3F8ED
:104400004021C3F85021C3F86021C3F87021C3F8DC
:104410008021C3F89021C3F8A021C3F8B021C3F8CC
:10442000C021C3F8D021C3F8E021C3F8F021574AD6
:1044300000681268C3F80811C3F81811C3F8002205
:10444000C3F80812C3F81022C3F81812C3F82022C8
:10445000C3F82812C3F83022C3F80401C3F81401CA
:10446000C3F83441C3F84401C3F85401C3F8381207
:10447000C3F84812C3F858124549C3F840220968E6
:10448000C3F85022C3F86022C3F86412C3F8702244
:10449000C3F87412C3F88022C3F88412C3F89022C0
:1044A000C3F89412C3F8A022C3F8B022C3F8C02204
:1044B000C3F8D022C3F8E022C3F8F0223549364AC7
:1044C00009681268C3F80023C3F81023C3F8202337
:1044D000C3F83023C3F84023C3F85023C3F8602344
:1044E000C3F87023C3F88023C3F89023C3F8A02334
:1044F000C3F8B023C3F8C023C3F8C413C3F8D02350
:10450000C3F8D413C3F8E023C3F8E413C3F8F023CB
:10451000C3F8F413214A224912680968C3F8002439
:10452000C3F81024C3F82024C3F83024C3F840246F
:10453000C3F85024C3F86024C3F87024C3F880245F
:10454000C3F89024C3F89414C3F8A024C3F8B0248B
:10455000C3F8B414C3F8C024C3F8D024C3F8D414E7
:10456000C3F8E024C3F8E414C3F8F02410BD00BF7E
:10457000DCBD0108700E002094190020B41E00203C
:10458000640E0020E0BD0108680E0020E4BD0108B3
:104590007C0E00206C0E0020E8BD0108ECBD010877
:1045A000600E00200346406818B1597B0022FFF7D7
:1045B00019BA70470F2810D002D80E280BD104E08A
:1045C000222804D02B2806D103E00548704705486F
:1045D000704705487047002070470448704700BF87
:1045E00040C2010848C201084CC2010844C2010887
:1045F0002DE9F04F89B0079000790591FFF7DAFFB8
:10460000002862D00778324C46783F0190F802B01B
:104610003B1906933601C378351906984FEA0B1BF0
:104620004FEA031A0BEB0409FFF7BCFF2846FFF71C
:10463000B9FF0AEB04084846FFF7B4FF4046FFF70E
:10464000B1FF079A297B13790F2B059B16D81BB94D
:1046500038590522FEF7A2FE3059297B0522FEF7C4
:104660009DFE5BF8040099F80C100522FEF796FEFB
:104670005AF8040098F80C10052215E01BB93859B7
:104680000622FEF78BFE3059297B0622FEF786FEB6
:104690005BF8040099F80C100622FEF77FFE5AF82A
:1046A000040098F80C100622FEF778FE069B059889
:1046B0001A7B2B7B3959009399F80C30019398F8A9
:1046C0000C300293335900F00AFB09B0BDE8F08FBB
:1046D0009419002038B5054600780C46FEF7E8FF2F
:1046E000012808D1072C06D10CE01C19607C38BDCC
:1046F0001C19207C38BD2878FEF7DAFF0128054B0D
:10470000F6D1F2E7044840F2A511044AFFF72CFB6A
:10471000FF2038BD40C2010817BF0108A7BE01082D
:10472000013910B5044603290DD8DFE801F0020471
:10473000080A084B00E0084B1B68236008E0074BA1
:10474000FAE7074BF8E707486921074AFFF70CFB30
:10475000204610BDE01E0020E41E0020E81E0020C0
:10476000EC1E002017BF0108A7BE0108032B2DE98E
:10477000F0411D4606D91248124A7321BDE8F041A6
:10478000FFF7F2BA0468012A14BF80260026201D14
:10479000FFF7A0FF0746204600F097FA20460121C8
:1047A000FFF726FF20463946EAB2002E14BF4FF429
:1047B00060734FF44073BDE8F04100F0E5BA00BF0C
:1047C00017BF0108A7BE010807B5006803681A688B
:1047D00012F0060F03D113E0DA68ADF806209A68EC
:1047E000D207F9D49A6802F00202D2B2002AF9D0B4
:1047F0009A6802F08002D2B2002AF9D100F0BFFA22
:104800000EBD30B5002308E004682468A56815F0E3
:10481000010FFBD0E468CC5401339342F4D130BD96
:1048200007B5012201A9FFF7ECFF9DF804000EBDBA
:10483000F8B506460F461546002405E039192A1B2F
:10484000306800F081FA2418AC42F7D3F8BD07B500
:1048500002AB03F8011D19460122FFF7E9FF0EBD67
:1048600010B50446FFF7F3FF2046BDE81040FFF700
:10487000D7BF08B503681879FFF79CFE007808BD1C
:1048800013B5026802AB03F8041D946819460122AF
:10489000A0471CBD38B5044608460D4602F002FA92
:1048A000236802469B6820462946984738BD000089
:1048B0002DE9F0410D46164600F0BEFAF0B100F0C9
:1048C000B9FAD8B16DB9BDE8F081D8F800700446E6
:1048D000B44213D2D8F80030DB1B312B06D9BDE827
:1048E000F081074B00241F689846F1E72819311B17
:1048F00000F086FA00198442E7D1E8E7BDE8F081CC
:10490000202B002000F056BA00F080BA70B5164691
:104910000D4649B1002404E02819311B00F078FA53
:104920002418B442F8D300E00C46204670BD07B509
:10493000012201A9FFF7EAFF9DF804000EBD000067
:10494000014A024B1A60704768BF0108DC29002049
:10495000024600234DF6C02103E008460138FDD889
:1049600001339342F9D17047382343431846013845
:10497000FDD870474F2870B537D8082918D8DFE818
:1049800001F01E2105080B0E05111400002422461B
:104990001AE00024032217E00024042214E000247B
:1049A000082211E0012422220EE0012462220BE001
:1049B0000E480F4A4721BDE87040FFF7D5B90024E3
:1049C000212201E0002461220A4B00011E18317BE4
:1049D0001858FEF7B7FC706806F1080528B1717B1E
:1049E0002246BDE87040FEF7FDBF70BD78BF0108EC
:1049F000A7BE0108941900204F280CD8064B0001CF
:104A00001A18127B1B5801201B6800FA02F209B128
:104A10001A8370475A83704794190020064900236F
:104A20000B6080F8203080F8213080F8223080F848
:104A3000433080F844307047941E002038B580F829
:104A400045200C4680F84610104601211546FFF718
:104A500091FF20460121FFF78DFF28460121FFF736
:104A6000CBFF20460121BDE83840FFF7C5BF00005D
:104A70000148FFF7D3BF00BFE0290020064B1968AB
:104A80000868B0E8F00F80F309884FF0000080F369
:104A900011884EF00D0E7047A02A0020704700BF0D
:104AA000EFF309800C4B1A6820E9F00F10602DE934
:104AB00008404FF0BF0080F3118800F011F84FF06C
:104AC000000080F31188BDE8084019680868B0E864
:104AD000F00F80F309887047A02A0020704700BFBC
:104AE00038B5314B1B6813B10122304B57E0304CC5
:104AF0002268236812681B6B9A4204D820682168D8
:104B0000343100F067F823682A49186B1422284DC5
:104B100001F076FF48B128682968343100F05AF86E
:104B200003E01A68013A1A6002E0234B234914207B
:104B30001A6842438A58002AF3D01F4B1F4A1B6849
:104B4000142101FB03235A6803F1080152688A42C9
:104B50005A6008BF52681A4908BF5A605B68144A15
:104B6000DB6813600B68F3B114681648646C036863
:104B7000A34218D0144B154D1C682D680834A5426B
:104B80000FD912681249526C0260186809680160F6
:104B900019680431196019680A601A6804321A60C9
:104BA00038BD00230B6038BDA42A0020982A0020BD
:104BB000A02A0020B8BF0108282A0020302A00209F
:104BC000942A0020981E00209C2A0020A82A002059
:104BD0002C2A0020FEE710B504460079FEF73AFDC6
:104BE0002079042803D1BDE81040FEF749BD10BD6F
:104BF00003689A6822F07062114399607047000060
:104C0000054B10B504461868A047044B1868A04728
:104C1000034B1868A04710BDB41E0020B81E00202A
:104C2000BC1E0020002370B51A461C461D4601FA22
:104C300003F6072AD8BF3543013203330A2A44EA70
:104C40000604F4D10368DD601C6170BD704700008C
:104C5000024A034B51680B405360704700230140E8
:104C6000E030FCFF00284FEA011105DA064B00F0A6
:104C70000F00C3181976704700F1604000F56140DD
:104C800080F80013704700BFFCEC00E021F06041A9
:104C900038B521F07F01084B0843986000241D4679
:104CA00060B20F210134FFF7DDFF3C2CF8D1F02377
:104CB00085F8233038BD00BF00ED00E001EBC001F6
:104CC0008B0003F184431A60704710B504460079E5
:104CD000FEF7C0FC2079BDE81040FEF7D1BC2DE9FD
:104CE000F0410D461C4611469DF818809DF81C7039
:104CF0009DF82060024690B11DB128462122FEF7A2
:104D000021FB204641462222FEF71CFB2046394665
:104D10000A22FEF717FB20463146222210E015B189
:104D20002846FEF70FFB204641460022FEF70AFB0D
:104D3000204639462222FEF705FB20463146002256
:104D4000BDE8F041FEF7FEBA036830B51C680020EC
:104D500004F4006406E00CB90D5C01E031F8105079
:104D6000DD6001309D6805F00205EDB20DB19042A5
:104D7000F1D130BD006806210122FFF79FBF006816
:104D800006210022FFF79ABF41F0040138B50B431A
:104D9000016843EA02054B68044623F0E0034B60D8
:104DA000FFF7EDFF216820460D60BDE83840FFF7B2
:104DB000E1BF00000C4B13B51C680B21612220469B
:104DC000FEF7C0FA23684FF400625A830749084689
:104DD0000138FDD81A83064B064800930121064A84
:104DE000064B00F01EF91CBDE8BD010800E6AA0054
:104DF000E41F0020242B0020B01F0020201F0020D3
:104E000010B50C4601F028FC204610BD01F0B6BCE0
:104E100070B50E46054601F0B1FC0024B04238BF23
:104E2000064603E001F0C2FC28550134B442F9D132
:104E3000204670BD0120704701207047014801F0F5
:104E4000A7B900BF242B0020D0F8E43510B51B69AA
:104E500004469847032384F81231002010BD08B59A
:104E6000042380F81231D0F8E435DB68984700203D
:104E700008BD08B5D0F8E035DB6903B198470020DC
:104E800008BD08B5D0F8E0351B6A9847002008BD7A
:104E900008B5D0F8E0355B6A9847002008BD0021CE
:104EA00010B5402204460B4600F0E8FC8021402269
:104EB0000023204600F0E2FC012384F81231D4F8EC
:104EC000E435A0785B689847002010BD13B56946AB
:104ED000044600F027F99DF8001001F01F03012B94
:104EE00008D002D3022B0FD109E02046694600F01A
:104EF000C9F90EE02046694600F0ACF909E0204609
:104F0000694600F045F904E0204601F0800100F018
:104F100020FD00201CBD70B5044600293CD190F84E
:104F20001131022B41D1D0F83421D0F820319A42EE
:104F300011D9C178D21A0129C0F8342104D1D0F88E
:104F40002411CB18C0F824312046D4F8241192B291
:104F500000F0A7F829E0D0F83851B5FBF3F603FBD1
:104F600016565EB99D4209D3D0F83C319D4205D218
:104F7000324600F096F8C4F83C6116E0D4F8E0350B
:104F8000DB682BB194F81221032A01D120469847FF
:104F9000204600F0B8F808E0D0F8E0355B6923B1AE
:104FA00090F81221032A00D19847002070BD10B557
:104FB000044659BB90F81131032B30D1D0F88C2323
:104FC000D0F878339A4214D9C178D21A0129C0F89E
:104FD0008C2304D1D0F87C13C918C0F87C139A42F2
:104FE00028BF1A462046D4F87C1392B200F073F81A
:104FF00015E0D0F8E0351B6923B190F81221032A9F
:1050000000D19847204600F06FF808E0D0F8E0356E
:105010009B6923B190F81221032A00D19847002000
:1050200010BD2DE9F041069F0446164698460D46F0
:1050300001F0C8FA20462946C4F8E085C4F8E475B2
:10504000C4F8E86500F0D4FBD4F8E4351B68984751
:105050002046BDE8F04101F0D7BAD0F8E03510B5F0
:105060001B6804469847D4F8E4359B6898470020AD
:1050700010BD08B5D0F8E0355B689847002008BD42
:1050800038B50446C4F83821C4F834210D46134617
:10509000022280F8112100212A4600F041FC002064
:1050A00038BD10B50C4613460021224600F038FCEE
:1050B000002010BD38B50446C4F89023C4F88C23F2
:1050C0000D461346032280F8112100212A4600F0E4
:1050D0000DFC002038BD10B50C46134600212246B9
:1050E00000F004FC002010BD0021042310B50A4686
:1050F000044680F811310B4600F012FC204601F006
:1051000029F8002010BD0021052310B50A460446E9
:1051100080F811310B4600F0E9FB204601F01AF847
:10512000002010BD90F8C8350B7090F8C9354B7051
:1051300090F8CB2590F8CA3503EB02234B8090F80A
:10514000CD2590F8CC3503EB02238B8090F8CF254A
:1051500090F8CE3503EB02239BB2CB80C0F83C31F4
:10516000012380F81131704710B591F900300446E1
:10517000002B02DA2046802103E0CB88002BF9D0F7
:10518000002100F0E6FB2046BDE8104000F0E2BF41
:1051900070B54E788A88012E04460D46D3B211D0E0
:1051A00029D3032E51D190F81221022A2AD0032AA2
:1051B00049D14A88AAB9A3B1802B12D0194600F070
:1051C000C8FB0EE090F81221022A1BD0032A3AD124
:1051D0004A88002A39D153B1802B08D0194600F0F3
:1051E000D6FBD4F8E03520469B68294698472046F0
:1051F000FFF77AFF29E090F81251022D02D0032D1B
:1052000021D106E00BB3802B1FD0194600F0A1FB83
:105210001BE012F0800F4FF0280106D002F07F0251
:1052200001FB020191F81A2103E001FB030393F84B
:105230007223074B02B101221A6020460449022260
:10524000FFF71EFF01E0FFF78FFF002070BD00BFDA
:10525000B42A002038B590F812310446032B0D46CD
:105260000CD10B79012B09D8D0F8E0359B68984711
:10527000EB882BB92046FFF737FF01E0FFF774FFFB
:10528000002038BD73B54B7804460D46092B00F25B
:105290001981DFE813F0CE0005011701E0001701C6
:1052A0006E000A001701BD008F004B881A0A013AF0
:1052B000062A00F20781DFE812F007001A00270033
:1052C0000501050105010501D4F8E8350DF10601D8
:1052D0001B68A0789847EB880146402B03D094F8D0
:1052E0001231012B35D10823ADF8063031E0D4F866
:1052F000E0350DF106019B6AA078984702234370C0
:105300000146C4F8EC0524E0DBB2052B00F2DA809C
:10531000DFE803F003070B0F1317D4F8E8355B68D9
:1053200012E0D4F8E8359B680EE0D4F8E835DB6885
:105330000AE0D4F8E8351B6906E0D4F8E8355B6983
:1053400002E0D4F8E8359B690DF10601A078984792
:105350000146BDF80630002B00F0B880EA88002A2C
:1053600000F0B4809A4228BF1A46ADF806202046C5
:105370006EE08B88002B40F0A580CB88002B40F09E
:10538000A1804B8894F8122103F07F03032A1E4664
:1053900000D197E0204684F81331194600F015FB40
:1053A0002046FFF7A1FE0EB1022300E0012384F89E
:1053B00012318BE08978464E0129317000F28280EB
:1053C00094F81231022B02D0032B7BD108E0002984
:1053D00062D00121032384F8101184F8123113E004
:1053E00041B9022384F8123184F810112046FFF7E6
:1053F00040FE51E094F8101101294DD02046FFF7EE
:1054000038FE317884F810112046FFF726FE43E07D
:10541000CA88012A56D194F81231022B02D0032BEC
:1054200050D102E020462B4912E0204604F5887155
:105430000EE094F81231023B012B43D8D4F814311A
:105440002549002B0CBF012303230B6020460122BA
:10545000FFF716FE3AE04B88012B00D129E0022B22
:1054600034D18A8812F0FF0F30D12169120A013A33
:105470004B68042A0FD8DFE802F0030507090B0088
:10548000012206E0022204E0032202E0042200E0FE
:10549000052262F306134B602046FFF725FE15E058
:1054A00094F81231023B012B0CD84B88012B0DD103
:1054B0000023C4F81431D4F8E03520469B6829460F
:1054C0009847E9E720462946FFF74EFE00207CBDBD
:1054D000B02A0020B82A0020AC2A002030B5D0B174
:1054E0000023DDB20133C41814F8014C002CF8D1AC
:1054F0006B1C5B0013800B7003234B70013802237D
:1055000005E0CA545A1CD2B202338C54DBB210F8F4
:10551000012F002AF5D130BD10B5074C2068FF28B7
:1055200007D0064B064A9B68064912689847FF2336
:105530002360002010BD00BF4C1F0020941F0020DE
:10554000C42A0020C931002043230B800048704743
:10555000501F0020254B70B51A68511C052A196090
:1055600041D100211960224B1B78012B3BD0214AED
:105570001368B3F5006F08BF116014681E4A1D4B15
:1055800011688C4203D11A4B00221A702BE01C6860
:1055900011688C42194903DD1B68C3F5006302E002
:1055A00012681B68D31A0B60D0F8EC350C681149EF
:1055B000B3F839300A689C42104D92B205D90E6892
:1055C000E41AF6180E602C6005E00E68A3B23419D8
:1055D0000C6000212960064901240C70084C8121CF
:1055E000A21800F09DF9002070BD00BFD42A002051
:1055F000C02A0020CC2A0020C82A0020D02A00205F
:10560000D131002038B5282303FB0101094D0A4B95
:1056100004461B692846B1F888139847D4F8EC353E
:10562000204601212A46B3F8403000F05FF90020FF
:1056300038BD00BF89310020941F0020F8B50B78D9
:10564000064613F060050C4626D0202D20D1CD88CB
:10565000BDB113F0800F4B7809D01E4A1E499768E0
:1056600018462A46B84730461B49E28824E01B4AC0
:10567000194913601A4B2A461D60FFF71BFD0020D5
:10568000F8BD144B48789B68023102229847F6E730
:10569000FFF76AFD0220F8BD4B780A2B0FD00B2BC9
:1056A00010D0062BEBD14B881B0A212BE7D1CA88DF
:1056B0000C493A2A28BF3A22FFF7E2FCDFE70A4901
:1056C0000122F9E78B7813B9074A1360D7E7FFF790
:1056D0004BFDD4E7941F0020C93100204C1F00204F
:1056E000C42A0020621F0020BC2A002010B581219E
:1056F000044600F0E3F80121204600F0DFF88221A3
:10570000204600F0DBF8024B5B689847002010BD94
:10571000941F002038B5D0F8EC3504468121B3F849
:105720003920022300F0AAF8D4F8EC350121B3F8AF
:1057300040202046022300F0A1F882210822032302
:10574000204600F09BF8094B022200251A715D717A
:10575000074B1B689847D4F8EC3520460121054AD1
:10576000B3F8403000F0C2F8284638BDD01F002002
:10577000941F00208931002070B5194A1378012B3D
:105780002CD1184DD0F8EC352C687CB9282505FBB8
:105790000101B3F83930D1F82C11994201D01470BD
:1057A0001CE0114B1A68234692B212E00E49B3F87E
:1057B00039300A689C4292B205D90E68E41AF6188C
:1057C0000E602C6005E00E68A3B234190C60002155
:1057D0002960064C8121A21800F0A2F8002070BDBB
:1057E000C02A0020D02A0020CC2A0020D13100205D
:1057F000F8B5044600F03CF90122002384F8122198
:1058000084F8133128251646194640270CE005FB7D
:1058100003F000F58C7022182354D3805670D17099
:105820009760D1605161013360788342EFD30023E8
:105830002825194640260CE005FB03F000F55C70B6
:1058400022182354D3805170D1709660D160516179
:10585000013362789342EFD3204600F0E1F920460D
:1058600000F066F90021204600F01AFA204600F008
:105870005FFA2046BDE8F84000F0CBB970B501F002
:105880007F04282606FB0404CDB215F0800F14BF58
:1058900004F58C7404F55C7401F07F01ED0921704E
:1058A0006570A260E37005B1E180022B01D1002395
:1058B0002371214600F0D6FA002070BD10B501F02A
:1058C0007F03282404FB0303CAB212F0800F14BF25
:1058D00003F58C7303F55C7301F07F01D209197035
:1058E0005A70194600F0EAFA002010BD38B501F0F0
:1058F0007F042825654305F55C7541194B6100233C
:10590000CA608B614B704455C378012B08BF0A6194
:1059100014B900F077FB01E000F0EFFA002038BD89
:10592000F8B501F07F042826664306F58C768119C8
:105930000127CA600A61002205464F7084558A61BA
:105940004B6114B900F05EFB01E000F0D6FA0020D4
:10595000F8BDCAB212F0800F10B54FF0280306D080
:1059600001F07F0403FB040303F58C7303E003FBE6
:10597000010303F55C73D209012401F07F01197062
:105980009C705A70194600F0A9FB002010BDCAB2E5
:1059900012F0800F10B54FF0280306D001F07F04FD
:1059A00003FB040303F58C7303E003FB010303F51E
:1059B0005C730024D20901F07F0119709C705A7049
:1059C000194600F09FFB204610BD0269002361F3D9
:1059D0000A1311680B4313607047000037B50023AA
:1059E000104C05460193032000F022FEEB68013CB9
:1059F0001A69019213D0019A002AF4DA019A42F04E
:105A000001020192019A1A61064A1969013A01914B
:105A100002D00199C907F8D4032000F009FE002044
:105A20003EBD00BF410D030030B5C4786CB900EB3A
:105A3000820003339B10D0F8D050224603E051F887
:105A40002200013228609A42F9D1002030BD033291
:105A500010B59210D0F8D040002303E0206841F840
:105A60002300013393424FEA8300F7D1081810BD99
:105A70000122F0B50023827040220129C370828088
:105A80000CD108230370042343704FF4A073C38028
:105A900002230372C1724FF0A04309E041B90C2305
:105AA0000370062343704FF4A063C3801F4BC17281
:105AB00003F500620261C36045780246194600247E
:105AC00007E001F5106701F5306111655761013498
:105AD00031460432AC4201F12006F2D303F5806274
