:020000040801F1
:100000000000022079CD0108D1550108D55501081D
:10001000D9550108DD550108E155010875CD0108E4
:1000200075CD010875CD010875CD01086D66010813
:1000300075CD010875CD010891660108714E010862
:1000400075CD010875CD010875CD010875CD010884
:1000500075CD010875CD0108CD490108D3490108C6
:10006000D9490108DF490108E54901085548010857
:100070006548010875480108854801089548010848
:10008000A5480108B548010875CD010875CD0108DE
:1000900075CD010875CD010875CD0108EB49010842
:1000A00005520108115201081D5201082952010888
:1000B00035520108415201084D520108D54C010842
:1000C000ED4C0108E14C0108F94C010875CD01081F
:1000D00075CD01085D540108695401087554010883
:1000E000F349010875CD010875CD01087D5201085D
:1000F0008952010895520108A1520108C54801081A
:1001000075CD010875CD01085952010875CD01085A
:10011000815401088D54010865520108715201088B
:10012000D5480108E5480108F548010805490108D6
:100130001549010875CD010875CD010875CD010877
:1001400075CD010875CD010875CD0108596A010802
:1001500025490108354901084549010875CD0108BF
:1001600075CD010875CD010875CD010875CD010863
:1001700075CD010875CD010875CD010875CD010853
:1001800075CD010875CD01080C4BDA68D1030ED48A
:10019000D868C2060DD4D96811F0EF0F0BD1DA6818
:1001A00002F00203002B0CBF05200C207047012039
:1001B0007047032070470B20704700BF003C02408F
:1001C00013B50446FFF7E0FF0CE000230193FF2383
:1001D00001E00198431E019301990029F9D1FFF72D
:1001E000D3FF013C012803D1002CEED1062002E010
:1001F000002C08BF06201CBD70B5044641B1012982
:1002000008D0022914BF4FF440764FF4007603E083
:100210000E4601E04FF4807640F6FF70FFF7D0FF06
:10022000052820D1104D286920F440732B612A69DC
:1002300016432E61296921F0F80028612B6943F0EB
:10024000020214432C61296941F48030286140F690
:10025000FF70FFF7B5FF2B6923F002022A612969BD
:1002600021F0F8032B6170BD003C024000F178439F
:10027000B3F5803F05DA002BBCBF074BC3189B13B7
:1002800006E0B3F5003F02DB5B14043300E0042317
:10029000D8000321FFF7B0BFFF3F00F8134B00F178
:1002A00078429A4270B504460E461CD81F20FFF7CC
:1002B00087FF052818D10E4D296921F44070286167
:1002C0002B6943F480722A61296941F00100286199
:1002D0001F202680FFF774FF062805D02B6923F026
:1002E00001022A6170BD072070BD00BFFEFF07003C
:1002F000003C0240044B1A69002A03DA034904480F
:1003000059605860704700BF003C024023016745B8
:10031000AB89EFCD30B50D480D4D03680C49AA6887
:1003200000BF00BF0468A342F7D10868C00301D52D
:100330008A680133C2F524324032A821B2FBF1F2BF
:100340004FF47A7000FB032030BD00BFC42C0020A6
:1003500010E000E0124B9A6810689A89821A92B2F3
:100360006FF4617C02EB0C0140F2AE4389B299421A
:1003700010B50C4B08D8197809290DD80A4C24F867
:1003800011200131197007E040F6C4118A4201D9E9
:10039000002200E00A221A70014B988110BD00BFB4
:1003A0006C260020382800201C0C002005F034BBEF
:1003B00070470000234B10B51860234B40F2DC520D
:1003C0001A605A609A604FF47A72DA601A615A6160
:1003D0009A61DA611A625A62012100231B4A03E022
:1003E00042F823100133DBB28342F9DB184B40F2B1
:1003F000DC521A605A609A604FF07E540023154A0E
:1004000004E002EB830101330C60DBB28342F8DBD2
:100410000023114A4FF07E5404E002EB83010133C4
:100420000C60DBB28342F8DB00230C4A4FF07E54B1
:1004300004E002EB830101330C60DBB28342F8DBA2
:1004400010BD00BF98290020102800205C28002043
:10045000C4290020F02A0020602700204426002024
:100460002DE9F0410024334E334FDFF8F08034E0C3
:100470003249334D095DA300FA1838F8111092ED96
:10048000007A304A06EE901AD218D2ED007AF8EED1
:10049000E66A2D4A46EE877AFDEEE77A17EE901A65
:1004A00042F82410294AD31855F8242006EE102AC1
:1004B000F8EEE77AB8EEC66A17EE900A16EE101A52
:1004C0001A6804F00FF906EE100AFDEEC67A17EE70
:1004D000901A45F824100134E4B232689442C7DB24
:1004E0001B4B1C4D1C48164C93ED007A00235E59A3
:1004F0001959891B06EE101AF8EEC66A06EE106A44
:10050000F8EEC67A46EE877AFDEEE77A17EE906A45
:100510001E5004330C2BEAD103230F48084C05E08E
:1005200054F8231040F823100133DBB29342F7DB79
:10053000BDE8F08198290020F02A0020B0FE0108D3
:100540005C28002060270020E425002044260020AD
:1005500074290020C4290020102800201C0C002031
:10056000084B53F82020084B53F82030D31A07EEDD
:10057000903AB8EEE77ADFED057A67EE277A17EE64
:10058000900A704710280020C42900200BD7A33BF5
:100590001F4B93ED007A92ED046AB8EE477A1D4B3B
:1005A00037EE466ADFED1C6A07EE901A82ED047A98
:1005B0001B7807EE100A86EE266A77EE676A33B17B
:1005C00092ED057A06EE867A82ED057A01E0002347
:1005D000536192ED037AD2ED025A37EEC77AC2ED3B
:1005E000037A27EE257ADFED0D5A26EE256AD2ED45
:1005F000057A87EE067AD2ED015A92ED006A65EE31
:10060000A77A46EE867A77EE877A17EE900A7047D9
:10061000A8260020A8270020002474490000C84212
:10062000074BD3ED007A074BF8EE677A03F1C0026F
:100630000021196043ED017A18339342F9D17047D4
:10064000A8260020042A002091ED005A9FED203AB0
:1006500005EE900ADFED1F3A65EE037A45EEA37AC8
:10066000D1ED014ADFED1C2A44EEA27A91ED024A57
:1006700044EE037A91ED033A43EE237A91ED047A46
:10068000DFED163A47EE237AD1ED056ADFED143A35
:1006900046EEE37A91ED066ADFED123A46EE237AF2
:1006A00091ED073ADFED103A43EE637A086081ED91
:1006B000034AC1ED024A81ED015A81ED076AC1ED9D
:1006C000066A81ED057AC1ED047A17EE900A70474B
:1006D000D58111BB7932F83A1A1B5E3B382F57404F
:1006E000200B89400A771C404CF3063F0D4B00223B
:1006F0001A605A609A60DA601A615A619A61DA6126
:100700001A625A629A62DA621A635A639A63DA6305
:10071000054A1A645A649A64DA641A655A659A65D5
:10072000DA657047D82800206DE71CC1F8B504468B
:100730000E460079002115461F4605F0A3FD237AD9
:1007400066F07F0646EA03012046C9B205F0A5FC23
:10075000EE1905E02046002105F09FFC05F8010B8D
:10076000731B002BF6DC20790121BDE8F84005F071
:1007700089BD000010B5084C0121207905F082FDEB
:100780002079002105F028FD2046052101220323C0
:10079000BDE8104005F008BCCC28002010B50A4C7C
:1007A000204605F01FFC2079012105F06BFD207922
:1007B000002105F011FD012120460A460323BDE872
:1007C000104005F0F1BB00BFCC28002070B50D4CE7
:1007D00006460D462079002105F054FD237A46EAAD
:1007E00003012046C9B205F058FC2946204605F011
:1007F00054FC2079012105F045FD0120BDE8704041
:1008000005F0DDBCCC28002013B5012301460DF115
:1008100007020548FFF78AFF9DF80740012005F011
:10082000CEFC20461CBD00BFCC2800201E4B10B5BE
:100830001C78002C36D101221A70FFF79BFF75201F
:10084000FFF7E2FF00F07E0068282BD1174B1A68F3
:10085000802142F003026B201A60FFF7B7FF64208B
:1008600005F0ADFC6A201021FFF7B0FF6B200321DB
:10087000FFF7ACFF6C202146FFF7A8FF19202146A7
:10088000FFF7A4FF1A200321FFF7A0FF1B20102170
:10089000FFF79CFF1C200821FFF798FFBDE81040E0
:1008A000FFF77CBF10BD00BFA02800201C2B00203C
:1008B000022391FBF3F107E010F8023C10F8012C41
:1008C00000F8013C00F8022C013902304B1CF3D136
:1008D0007047000010B5064C06483B2122460E2307
:1008E000FFF724FF20460E21BDE81040FFF7E0BFD0
:1008F000D4250020CC280020074A136810B5074CE7
:10090000013313602268934204D0FFF7E3FF2368AA
:100910000133236010BD00BF9828002088260020E6
:1009200010B5074C074A23681268013393422360CD
:1009300004D0FFF7CFFF23680133236010BD00BF51
:100940005C27002088260020024A034B1A60FFF72C
:100950006DBF00BF58A00B3A342B002008B5FFF73D
:10096000D9FC134BDFED137A93ED027AB4EEE77AFC
:10097000F1EE10FA06DCDFED107AB4EEE77AF1EE74
:1009800010FA11D50D4A0E4B1268821A07EE902A02
:10099000F8EE676ADFED0B7AC6EEA76AD3ED007A50
:1009A00047EE267AC3ED007A044B186008BD00BFFD
:1009B0008C29002035FA8E3C35FA8EBC882900201F
:1009C000382600200024744910B5FFF7A9FF0D4B0D
:1009D0000D491C680D4AB1F9080010602018186014
:1009E000B1F90A00B1F90C105C68506091609A6826
:1009F0002018511858609960054B1A7801321A7006
:100A000010BD00BF88280020D42500205C290020CC
:100A1000C828002030B51D4B1D481C6801781D4AB0
:100A200094FBF1F514682C1B06EE104A5C6894FBED
:100A3000F1F554689268641B06EE904A9C6894FB3A
:100A4000F1F1511A00221A605A609A60124B02703A
:100A5000D3ED007AF8EEE66A104B66EEA76AB8EEC0
:100A6000C66AC3ED016A06EE901AB8EEE67A26EE83
:100A7000276A67EE277A85B083ED006AC3ED027AB4
:100A800005B0BDE83040FFF769BF00BF88280020EF
:100A9000C828002028270020342B00208C29002083
:100AA0002DE9F041B2B032AF002547F8C85D184ECD
:100AB00024E0FFF70FFF01ABB8F1000F02D1B6F948
:100AC000082006E0B8F1010F0CBFB6F90A20B6F90C
:100AD0000C201A510A20043405F071FBC42CE8D113
:100AE000312101A86A4603F015FE009B192B09DC91
:100AF000084B43F825000135032D05D000245FFA8B
:100B000085F8D6E7002000E0012032B0BDE8F08192
:100B1000D42500202827002008B5FFF7EDFE0B4B59
:100B20000B4A1968B2F9000009181960B2F90200FD
:100B3000596809185960B2F904109A6852189A60F5
:100B4000044B1A7801321A7008BD00BF002800203B
:100B5000D425002040270020F0B5124BDFF854C008
:100B60001F78114A114E124D00231846995898507B
:100B700091FBF7F107EE901AF11891ED007AE91860
:100B8000F8EEE76AD1ED007A46EE877A0CEB0304C3
:100B900004330C2BC4ED007AE8D1024B00221A700A
:100BA000F0BD00BF40270020002800203C28002086
:100BB000502B0020E02A0020F8B5002408E0FFF7C1
:100BC00089FEFFF7A9FF40F6C41005F0F2FA0134E0
:100BD000B4F5C87FF3D100231F4F2049204EDFED2D
:100BE000216A18465D58585007EE105AF8EEC77A39
:100BF000F51887EEA67AFC1804330C2B164AD5EDAF
:100C0000007A67EE277AC4ED007AEBD1164B00210B
:100C1000D2ED007A1970154BF1EE677AC3ED007AC8
:100C2000D2ED017AF1EE677AC3ED017A92ED027AA4
:100C3000DFED0F7A77EEC77AC3ED027A77EE277A87
:100C40000C4BF5EEC07AF1EE10FAD8BFF1EE677AF0
:100C5000C3ED007AF8BD00BFE02A00200028002084
:100C60003C2800200000C84340270020502B0020D3
:100C70006DE71CC18429002010B54620002105F035
:100C8000ABFA0024462004F00101013405F0FAFA21
:100C9000E4B2322005F093FA0A2CF3D1452000216A
:100CA00005F09AFA4520002105F0ECFA45200021D4
:100CB00005F092FA4520002105F0E4FA20200321F6
:100CC00005F08AFA1020032105F086FA242003217A
:100CD00005F082FA1120032105F07EFA2520032178
:100CE00005F07AFA2220032105F076FA0321232069
:100CF00005F072FA3720002105F06EFA402000213D
:100D000005F06AFA4120002105F066FA342000213E
:100D100005F062FA034817211622BDE8104005F0DD
:100D2000A1BB00BF842B0020074B084A1A60084A69
:100D30005A60084A9A60084B084A1A60084A5A6082
:100D4000084A9A60704700BF3C28002036069D3A4A
:100D50006D8C9DBA75029ABAD02700200000184306
:100D60000000C0410000844138B5074D074C2A6897
:100D70002368D31AB3F57A7F05D3FFF725FEFFF773
:100D8000CBFE2B68236038BDA8260020AC260020AF
:100D9000024B00221A605A609A607047B428002003
:100DA000F8B52DED068B9DED0E7AF6EE007A67EE26
:100DB000277A08EE103A9DED0C9A874B874C884EA7
:100DC000884DC3ED007A69EE097A48EE087ADDEDC8
:100DD0000D8A48EEA87A0AEE900A17EE900A09EEFC
:100DE000902A0AEE101A0AF0F9FE0CF003FB0BF041
:100DF0002BFA7D4B07EE900A89EE277A286888EE59
:100E0000274AC8EEA78AD3ED007A784BD3ED006A63
:100E1000774BD3ED005A774B93ED006A65EE864A27
:100E200057EEA64A34EEA45A66EE264A45EEA74A85
:100E300067EEA77A55EEA57A46EE467A46EEA67A92
:100E400074EEA44A27EE879A14EEA89A24EE848AB8
:100E500065EE288A57EE848A15EE078AD4ED007A6B
:100E600096ED007A49EE077A19EE101AC4ED007A71
:100E700003F077FC08B1002323605F4C96ED007A05
:100E8000D4ED007A48EE877A85ED009A5B4D18EE36
:100E9000901A2868C4ED007A03F063FC08B10023BF
:100EA0002360574C4E4BD4ED007A93ED007A48EE18
:100EB000077AC5ED008A534D18EE101A2868C4ED64
:100EC000007A03F04EFC08B1002323604E4B464EDF
:100ED000464C474FD3ED007A404B47EE89AA93ED3D
:100EE000007A07EEA8AA444B85ED008AD3ED006A8C
:100EF000404D434B47EE889A3AEE875AD5ED004A6B
:100F00003AEE267AD3ED007A96ED003A39EEA74A0A
:100F100064EE877A53EE457A94ED006A2E4B46EEE6
:100F2000447AD7ED003AD3ED005AF0EE632A47EE4B
:100F3000A52A64EE847A43EE857A46EE477A63EE1C
:100F4000046A53EE876AB0EE432A07EEA52A23EE21
:100F5000077A46EE056A03EE847AF0EE427A04EEF2
:100F6000C57A86ED002AB0EE642A06EEA52A67EE61
:100F7000A77A42EEA27A07EE256A42EE027A46EEA0
:100F8000067AC7ED002A17EE900A85ED002A84ED57
:100F9000006A0AF023FE0CF02DFA0BF055F997EDDC
:100FA000007A07EE900A87EE277A87ED007A96EDB1
:100FB000007A87EE277A86ED007A95ED007A87EE43
:100FC000277A85ED007A94ED007AC7EE277AC4ED92
:100FD000007ABDEC068BF8BD4C280020A02600202E
:100FE000582800204C270020E8270020F027002068
:100FF000E4270020EC27002048270020502700206D
:101000002427002054270020942800202DE9F047B1
:10101000DFF8F890DFF8F8A03A4FDFF8F8803A4EA2
:101020002DED048B9AED007AD9ED008A97ED008AB8
:10103000D8ED007A28EE877A08EE277AB7EE009A84
:1010400037EE077A17EE100A0AF0C8FD68EEA87AA4
:1010500048EE087A044677EEA77A0D4679EE677A6D
:1010600017EE900A0AF0BAFD02460B4620462946C2
:101070000CF024F80BF0E8F897ED006ADAED007A4E
:10108000D8ED006A99ED007A66EE277A56EE877AF7
:10109000306077EEA77A17EE900A0AF09FFD0BF00A
:1010A000B9FF0BF0D1F899ED008A97ED007AD8EDF1
:1010B000007ADAED008A28EE077A08EEA77A7060E7
:1010C00037EE077A17EE100A0AF088FD68EEA87A64
:1010D00048EE087A044677EEA77A0D4679EE677AED
:1010E00017EE900A0AF07AFD02460B462046294682
:1010F0000BF0E4FF0BF0A8F8B060BDEC048BBDE88A
:10110000F08700BFE8270020B4280020EC2700204B
:10111000F0270020E427002008B5FFF739FE0F4B29
:101120004FF07E521A600E4A002313600D4A13607E
:101130000D4A13600D4A13600D4A13600D4A136087
:101140000D4A13600D4A13600D4A13600D4A0E4B91
:101150001A600E4A0E4B1A6008BD00BFE42700203B
:10116000E8270020EC270020F0270020A026002000
:1011700048270020242700204C270020502700204B
:1011800054270020CDCC4C3E942800206F12033A07
:10119000582800201FB5069C0094079C0194054C1C
:1011A00024680294FFF7FCFD04B0BDE81040FFF78F
:1011B0002DBF00BF440C0020F8B5234D29600C68FA
:1011C000561EB300012707FA03F704F13402D218C0
:1011D0007B006C60AA602E616B612B68187903F04C
:1011E00035FE1A4BB0FBF3F0431EA3624FF6FF73BC
:1011F000E36200232360E36823F00103E360236AD2
:1012000023EA070323626A69236A012E23EA0203A1
:101210002362D4BF04F1180304F11C0306F0010695
:101220001968F600FF2202FA06F221EA02021A60A9
:101230001A68612101FA06F616431E60236A1F43ED
:10124000012327622360F8BD6C26002040420F0076
:1012500038B50F4C0F4BD4F8F45308221A70ADB1C7
:10126000D4F8F00394F8FC130A2203F0F7FB2946A4
:1012700094F8FD2340F2DC50FFF79EFF94F8FD1335
:10128000054A2846BDE8384003F00EBF38BD00BF10
:10129000B8190020382800205503010808B5FFF7C9
:1012A00089F8BDE80840FFF7D3BF00000B4BF0B54D
:1012B00018680B4C0B4D0C4E00230CE01A5D36F8F1
:1012C000237005EB021201335168527B0968013A21
:1012D000343141F822708342F0DBF0BDE429002074
:1012E000BAFE0108B8190020BC2600200A4B70B5D0
:1012F00080B21C68094D0A4E00230AE05A5D06EBD5
:10130000021201335168527B0968013A343141F8C5
:101310002200A342F2DB70BDE4290020BAFE0108DE
:10132000B819002007282DE9F843204B02DD0822D8
:101330001A6000E0186000241C4FDFF87C80DFF8A2
:10134000749017E014F8085009EB0516013473681F
:10135000187903F07BFD164A7368B0FBF2F01B6846
:10136000421E92B29A6240F6C412DA6228460721FF
:1013700004F032FF3A689442E4DB00230D490E4842
:1013800001240AE01D5C01EB051501336D682D6831
:1013900014356D0105F184452C609342F2DB4FF466
:1013A0007A70BDE8F843FFF7A1BF00BFE429002031
:1013B00040420F00B8190020BAFE010838B50546B2
:1013C00000240FE040F24C40FFF790FFFA2004F0B9
:1013D000F6FE4FF47A70FFF789FFFA2004F0EFFE73
:1013E0000134E4B2AC42EDD138BD00002DE9F0414A
:1013F0002DED108B0AEE903A8EB04FF07C5302EE3A
:10140000103ADDED297A9DED24AA67EE827ADFF8A5
:1014100068830B90C8ED007A6AEE0A7A4AEEAA7ADF
:10142000DDED259A49EEA97A0D9217EE900A0C91FE
:101430000AF0D4FB9DED269ADDED278A9DED288AE2
:101440000BF0D8FF0AF000FF07EE900A8AEEA7EA39
:10145000BF4FC04EC04DC14CCAEE27DAC9EEA7EA55
:1014600068EEA87A49EE097A48EE087A17EE900AF3
:101470000AF0B4FB0BF0BEFF0AF0E6FE07EE900A9E
:10148000C8EEA7BA89EE27BA88EE27CAD7ED006A58
:1014900096ED007A26EEA63AD5ED005A67EE073AA9
:1014A00094ED006A73EE232A25EEA5DA27EE254A8D
:1014B00066EE864A66EE06CA72EECD2A3BEEAB2A8F
:1014C00074EE647A73EE633A67EE06FA72EEEC2A13
:1014D00026EE877A26EEA5FA62EE277A8DED057A5A
:1014E0004BEE227A33EE8D7A3CEE0C5A7FEE2F2AA9
:1014F00037EE6C7A45EE227A74EE244A7BEE0B2AA4
:1015000025EE866ACDED033A2BEE877ADDED053ABE
:1015100002EEA47A76EE636A8DED012A05EE267A54
:10152000CDED022A27EE077A07EEA77A8DED046A41
:1015300017EE100A0AF052FB0BF05CFFD6ED009A92
:1015400097ED009A94ED008AD5ED008A69EEA97AAC
:1015500059EE097A68EE88AA29EE28AA19EE88AA17
:1015600028EEA85A49EE29AA68EE085A77EEC57AFD
:101570003AEE0A4A7AEEAA4A77EEA57A8DED064A45
:10158000CDED074A8DED085ACDED095ACDED0A7A19
:101590000AF05AFE06EE100ADDED0A4A36EE064A59
:1015A0009DED075A9DED066A64EEAD5A6C4B55EE03
:1015B0002E5A66EE2EEA54EE8EEA25EE0EEA93EDF2
:1015C000005A684B16EE2DEA93ED006A05EE856A27
:1015D000DDED056A83ED006A9DED047A624B76EEDF
:1015E000877AD3ED006A4EEE856A9DED012AC3ED40
:1015F000006A5E4B93ED007A0EEE057ADDED033A5C
:1016000083ED007A5A4BDDED022A3FEECFFAD3ED9F
:10161000004A62EE277A33EECDDA9DED0C5A42EEA7
:101620008F7A04EEAE5A7DEE2CCA9DED0B2A4CEE5D
:101630002C7A35EE265A69EE086A04EEA52A59EE90
:10164000A86A77EEA77A4FF07C5302EE903ADDED70
:10165000083A67EEAAAA32EE066A44EE26AA9DED83
:10166000092A72EEE36A27EE8AAA76EEC26ADDEDF7
:101670000D5A04EE26AA3F4B6BEE8ABA5BEE2ABAED
:1016800044EE8E5AD3ED007A4BEEA75A68EE857A77
:1016900059EEC67A75EE875AD8ED006A48EE657A3B
:1016A000F0EE494A47EEA64A68EEA57A49EE067A78
:1016B00029EEA57A48EE457A19EE057AF0EE692A08
:1016C00069EE859A08EE067A47EEA62A49EE259A33
:1016D000F0EE683A48EEC69A47EE263A62EEA27AF3
:1016E00044EEA47A09EEA68A43EEA37A48EE087A7D
:1016F000C7ED004A17EE900AC6ED002AC5ED003A84
:1017000084ED008A0AF06AFA0BF074FE0AF09CFD80
:1017100097ED007A07EE900A87EE277A87ED007A38
:1017200096ED007A87EE277A86ED007A95ED007ABD
:1017300087EE277A85ED007A94ED007AC7EE277A56
:10174000C4ED007A0EB0BDEC108BBDE8F08100BF97
:10175000402B0020442B0020482B00204C2B002045
:10176000382B0020DC2900203C26002058270020B0
:10177000AC290020E0290020AC2800202DE9F0470A
:10178000DFF8F890DFF8F8A03A4FDFF8F8803A4E2B
:101790002DED048B9AED007AD9ED008A97ED008A41
:1017A000D8ED007A28EE877A08EE277AB7EE009A0D
:1017B00037EE077A17EE100A0AF010FA68EEA87AE8
:1017C00048EE087A044677EEA77A0D4679EE677AF6
:1017D00017EE900A0AF002FA02460B462046294606
:1017E0000BF06CFC0AF030FD97ED006ADAED007A40
:1017F000D8ED006A99ED007A66EE277A56EE877A80
:10180000306077EEA77A17EE900A0AF0E7F90BF04E
:1018100001FC0AF019FD99ED008A97ED007AD8EDE8
:10182000007ADAED008A28EE077A08EEA77A70606F
:1018300037EE077A17EE100A0AF0D0F968EEA87AA8
:1018400048EE087A044677EEA77A0D4679EE677A75
:1018500017EE900A0AF0C2F902460B4620462946C6
:101860000BF02CFC0AF0F0FCB060BDEC048BBDE882
:10187000F08700BF442B002094270020482B002035
:101880004C2B0020402B00202DE9F04F2DED068B36
:101890008BB009EE100A1A9808EE102A1E4608EEC0
:1018A000901A0AF09BF9044630460D460AF096F964
:1018B00002460B46204629460BF000FC0AF0C4FC09
:1018C00068EEA87A49EE097A48EE087A0AEE100A1C
:1018D00017EE900A0AF082F90BF08CFD0AF0B4FCC6
:1018E00007EE900AC8EE279A89EE279AC8EEA78AD3
:1018F00069EEA9AAF0EE6A7A49EE097A17EE900A23
:101900000AF06CF90BF076FD04460D4618EE900ACD
:101910000AF064F922462B460BF0D0FB0AF094FC47
:10192000F5EEC09AF1EE10FA08EE100ADFED7E9A9D
:1019300002D5B1EE488A0AE0DFED7C7AF5EEC08A86
:10194000F1EE10FAACBF38EE678A38EE278A48EE1F
:10195000A8AAF6EE008A1AEE900A0AF03FF90BF0F8
:1019600049FD04460D4619EE100A0AF037F92246E1
:101970002B460BF0A3FB0AF067FC6D4B83ED008A4E
:1019800028EE288A586083ED02AA09EE100A18EEA4
:10199000100A0AF023F904460D460BF0A5FA29EEC9
:1019A000289ACDE9020119EE100A0AF017F98046CB
:1019B00089460BF099FACDE90401DDE90423DDE95C
:1019C00002010AF05FF96AEE288ACDE9060118EEF5
:1019D000900A0AF003F906460F460BF085FACDE9A6
:1019E0000001204629460BF0C9FA04460D46404640
:1019F00049460BF0C3FA8046894642464B4620468C
:101A000029460AF03FF9CDE90801304639460BF086
:101A1000B5FADDE9002382468B46DDE906010AF0CE
:101A200031F9524606460F465B46DDE908010AF0E9
:101A300029F902460B463046394609F071FF0AF093
:101A400003FC3C4B29461860DDE9042320460AF0DC
:101A500019F9424604460D464B46DDE902010AF0FB
:101A600011F9DDE9002306460F46204629460AF013
:101A700009F9524680468946304639465B460AF0A7
:101A800001F902460B464046494609F047FF0AF075
:101A9000DBFB294B39461860DDE9002330460AF0AC
:101AA000F1F8524606460F46204629465B460AF0A4
:101AB000E9F802460B463046394609F031FF0AF094
:101AC000C3FB1E4B524618605B46DDE906010AF077
:101AD000D9F8DDE9002304460D46DDE908010AF0E6
:101AE000D1F802460B462046294609F017FF0AF0B6
:101AF000ABFB134B134A1860134B1449C3ED009A08
:101B0000134BC3ED009A134BC3ED009A124B1A60AE
:101B1000124B0B6012490A60124A13600BB0BDEC05
:101B2000068BBDE8F08F00BF00000000DB0F4940CE
:101B300094270020402B0020442B0020482B00201D
:101B40004C2B0020CDCC4C3EDC290020382B002033
:101B50003C26002058270020AC2900206F12033AB1
:101B6000E02900202026002007B5054B054A1B6808
:101B70000093054B002001461B68FFF785FE0EBD54
:101B8000C0270020CDCC1CC1BC27002010B586B0DA
:101B9000089C0094099C01940A9C02940B9C039459
:101BA0000C9C04940D9C0594FFF720FCFFF7E6FDC8
:101BB000024B9A68024B1A6006B010BD94270020B1
:101BC000442700207FB50C4B0C4A59680091996856
:101BD00001910B4908680290486803908968049154
:101BE000084909680591106851681B689268FFF7F9
:101BF000CDFF07B000BD00BF782900208C29002050
:101C000068290020440C002010B5044602F02EFD87
:101C100007EE100AF8EEC77AC4ED017A02F026FD4D
:101C2000404207EE100AF8EEC77AC4ED027A02F0DD
:101C30001DFD07EE100AF8EEC77AC4ED007A10BD5C
:101C4000F8B5474C2DED088B05460E461E200321A6
:101C500002F0E4FC1E210622424804F07DFC2046EE
:101C6000FFF7D2FF1E200221012202F023FD3E4B8E
:101C70003E4AD3ED007AD4ED009A94ED019A79EEC4
:101C8000A79AD3ED017AD4ED028A39EE279AD3EDE3
:101C9000027A374B78EEA78AC2ED009AC3ED008A2C
:101CA000344A354B82ED009AC3ED028AC3ED009AA7
:101CB00083ED019A284609F091FF04460D460BF08A
:101CC00013F90AF0C1FA29460AEE100A20460BF071
:101CD00055F90AF0B9FA0AEE900A304609F07EFF8B
:101CE00006460F460BF000F904460D4630463946CD
:101CF0000BF044F90AF0A8FA29460BEE100A204628
:101D00000AF0A2FA29EE2A8A07EE900A28EE0B8A38
:101D100009EEA78A68EE8A7A68EEAA8A59EE0A8ADC
:101D200007EE8B8A68EEA87A48EE087AF1EE688AA8
:101D300017EE900A09F052FF0BF05CFB0AF084FAF0
:101D400007EE900A88EE277A0C4BC8EEA77A83ED4F
:101D5000007A0B4BC3ED007ABDEC088BF8BD00BFD9
:101D60008C260020842B0020D0270020C4270020B0
:101D7000CC270020C827002068290020BC2700208D
:101D8000C02700200A2008B504F019FA1E2002F02E
:101D900073FC102804D10D4B1A6842F004021A603B
:101DA000012120221E2002F085FC142004F007FAF5
:101DB00002211E20012202F07DFC142004F0FFF914
:101DC00000200146BDE80840FFF73ABF1C2B002069
:101DD000054B93ED007A054BD3ED007A77EE677AE9
:101DE00017EE900A704700BFA8280020B4260020F4
:101DF00010B5C489002224F0FF03C381134651109B
:101E000012F0010F15BF10F8111030F811104B40EF
:101E100083EA1123082113F4004F4FEA430318BF4C
:101E200083F4405301399BB2F5D10132102AE6D137
:101E3000C481180B10BD0000F8B5114F05460024F1
:101E4000A4F160012846C9B202F0E8FB02220D4865
:101E5000294604F081FB022810D102F0F9FB385327
:101E60000234102C064EEBD13046FFF7C1FFF38948
:101E700003F00F03C21A50425041F8BD0020F8BDD4
:101E80009C290020842B00201E2102F0C7BB0000EB
:101E900010B50021044602F0C1FB032221460B4885
:101EA00004F05AFB094804F06AFB03280BD102F046
:101EB000C9FB044602F0C6FB000240EA044402F0FB
:101EC000C1FB204310BD002010BD00BF842B0020AB
:101ED0007620582102F0A2BB2DE9F8437620FFF7C7
:101EE000D7FF1549154A4C890E898B88106024024A
:101EF000041B84FB0667F2094FEA034842EA476283
:101F0000FB114FF0000912EB08020D4D43EB0903E2
:101F1000C5E90023CA884B880A4984FB0245220A86
:101F2000DE0342EA056200272B12921943EB0703F6
:101F3000C1E90023BDE8F8839C290020B0280020D7
:101F4000F8270020102600207620482102F066BBEA
:101F500008B57620FFF79CFF124B134918600B68F9
:101F60004968C217414303FB0212A3FB0001511849
:101F7000420D4B1542EAC1220C49D1E90001121A67
:101F800063EB0103900A40EA835099120AF07CFA4D
:101F9000DFED077A07EE100A27EE277A17EE100A10
:101FA00008BD00BFDC27002010260020F8270020F5
:101FB0000000003D38B5144C2378F3B1FFF7C8FF9B
:101FC000124B134DD3ED007A07EE100A77EE877AA5
:101FD000C3ED007A0F4B1A7801321A702B78142B4C
:101FE00005D1FFF775FF00232B70237001E0FFF789
:101FF000ABFF2B7801332B7038BDFFF76DFFFFF778
:10200000A3FF0123237038BDE22500203C2B0020D4
:10201000242600203A27002070B52F4B1B78002B78
:1020200052D006EE903A2D4E2D4B96ED007AF8EEFA
:10203000E67AC7EE277A9FED2B7AC7EE876AC3ED63
:10204000007A16EE900A09F0C9FD274B044618687D
:102050000D4609F0C3FD02460B46204629460BF00B
:102060002FF802460B4600202049214C09F056FC6F
:1020700017A3D3E9002309F005FE0AF0E5F81D4B8C
:1020800018601D4B197819B1002220601A7005E004
:102090001A4B21681A6802F025FB20600023336088
:1020A000174C0D4B00221A7023786BB9FEF732F9EA
:1020B000144B154A1B68C01A904205D90C4B1A687C
:1020C000124B1A600123237070BD00BFAFF3008074
:1020D0000000000040A5E5403A2700203C2B0020EE
:1020E000A428002080E6C547140C00200000F03F23
:1020F000A8280020842800200C0C00204C0C002074
:10210000DC260020E829002080969800B4260020D4
:1021100008B5FFF74FFFBDE80840FFF77DBF00009F
:1021200038B50D4D2DED028B9FED0C8A1924FFF76C
:10213000EFFFD5ED007A0C2038EE278A04F03FF847
:10214000013CF4D1F3EE097AC8EE277A044BC3EDD3
:10215000007ABDEC028B38BD84280020000000000E
:10216000B426002008B5FEF7D5F81B4B1B4A1860B3
:10217000002313601A4A13601A4A1B4B76201A6018
:10218000FFF782FE032004F01AF87620FFF754FED2
:1021900020B1164B1A6842F008021A60FFF798FE49
:1021A000134A00231370134A0A20137004F007F82F
:1021B000FFF700FF0A2004F002F8FFF7A9FF0A204A
:1021C00003F0FDFFFFF7ACFFFFF7AAFF044B1A680F
:1021D000094B1A6008BD00BFE8290020A428002090
:1021E000B4260020AEDC423E140C00201C2B002044
:1021F000E225002024260020A8280020104B197872
:102200005A780E2907EE100A19460BD902F10E036F
:10221000DBB20E2B01D9531EDBB201EB8303D3EDEE
:10222000017A01E0DFED077A074BD3ED006A77EE24
:10223000A67A064B77EE677AC3ED007A704700BF47
:10224000E026002000000000482800201C26002076
:1022500007EE900AFAEE026AF4EEE67AF1EE10FA70
:1022600010B507EE101A09D4F2EE026AF4EE667A9F
:10227000F1EE10FAC8BFF0EE667A01E0F0EE667A91
:102280002A4B2B4A2B49D3ED005A92ED006A2A4B78
:102290002A4AD3ED006A25EE866A92ED005A46EE90
:1022A000076A25EE855AC3ED006A254B254A93ED52
:1022B000006A05EE076A91ED005A25EE855AD2EDC7
:1022C000005A45EE075A77EEA67AC2ED005A67EE3D
:1022D000877AF6EE006AF0EE465A1B4A47EEA65A97
:1022E000D2ED006A45EE876A76EE277AC2ED006A83
:1022F000164A50781178C3ED007A0B18DBB20E2B1A
:10230000144601D90F3BDBB204EB83030E290F4ABD
:10231000C3ED016A02D80131117010BD431CDBB25C
:102320000E2B88BF0023537010BD00BF1C26002059
:10233000EC29002040260020D0250020302B002052
:10234000A42600204828002058290020E02600204C
:102350000C4B70B51C680C4B18680C4B19680C4B77
:10236000251A1A680B4B20186E1844186D1A411A5A
:10237000B61AAD18A4188A1A1E605D60DC609A60F7
:1023800070BD00BF380C0020B8260020202B002094
:10239000D0290020BC26002010B5314B1B78012B22
:1023A00058D1304B304A1868304B1968FEF7F0F8B6
:1023B00007EE900A2E4BFDEEE77A1C6817EE900AA6
:1023C000A04204DB2B4B1C68A042B8BF044614F5A6
:1023D0007A7F00D13EE0284B284A19680020FEF79A
:1023E000D7F8274B274A1B68D268274907EE100AFF
:1023F0000968981A0028B8BF4042884203DD184A8D
:102400000221117019E0214909685818824208DD3B
:102410001448DFED1F7AD0ED006A76EEA77AC0EDA2
:10242000007A591A8A4208DA0E4ADFED197AD2ED9B
:10243000006A76EEE77AC2ED007A1B1907EE903A51
:10244000F8EEE77A134B77EE877AFDEEE77AC3ED85
:10245000007A10BD0B4BDA680E4B1A6010BD00BF3E
:1024600054280020B0290020B02A00209C260020FB
:10247000480C00203C0C002034270020C82A0020F3
:10248000400C002010280020000C0020080C002028
:102490000AD7233C380C0020F8B52DED028B364BC3
:1024A0001B78012B39D1354D354E2B683268354CB0
:1024B000D31A07EE103A9FED348AF8EEC77A2168F6
:1024C000324A67EE887A17EE900AFEF761F8726872
:1024D0006B6861682E4CD31A07EE103AF8EEC77A93
:1024E000074667EE887A81F0004117EE900A294A84
:1024F000FEF74EF82168284A05463846FEF748F8A8
:1025000007EE100A254B6168254AFDEEC77A28467A
:10251000C3ED007A81F0004122E01D4D214C0020E6
:10252000FEF71EF895ED007AD4ED007A67EE277A73
:102530001D4A17EE901AFEF72BF807EE100A174BFC
:10254000FDEEC77A0120C3ED007AFEF709F895ED9C
:10255000017AD4ED007A67EE677A144A17EE901A82
:10256000FEF716F807EE100A114BFDEEC77AC3ED21
:10257000007ABDEC028BF8BD182B0020C429002086
:1025800010280020B4280020A69BC43A382A002036
:102590008C290020502A0020802A0020202B002097
:1025A000982A0020100C0020F0290020082A002082
:1025B000B826002010B51D4B1A781D4B032A0CD0ED
:1025C000052A19D0012A0CBF4FF4FA624FF47A722F
:1025D0001A605A609A60DA6024E0164A1268B2F50E
:1025E000966FB4BF11464FF49661B2F57A7FACBFD7
:1025F0000A464FF47A72EBE70F48002240F2E734C4
:102600001158A14205DDB1F5966FA8BF4FF4966150
:1026100001E04FF47A71D1500432102AF0D1074B07
:1026200001221A70BDE81040FEF740BE3827002096
:10263000BC260020180C0020AC270020242B0020F2
:10264000074A1368B3F57A7F05DB40F23A718B4293
:10265000A8BF0B4601E04FF47A731360704700BFC8
:10266000380C0020144B15491868154B4FF4FA62CA
:1026700010B51A605A609A60DA60124A08601368EE
:1026800048608860C86051689942B8BF194693682D
:102690009942B8BF1946D3689942B8BF1946C1F5E7
:1026A000FA640023B1F5FA6F02DD985800199850CA
:1026B0000433102BF6D110BD9027002028260020CF
:1026C000B4290020BC260020044B586940F2D56391
:1026D0009842CCBF00200120704700BF1028002086
:1026E00008B5FFF7F1FF104BC8B11B78022B19D0CA
:1026F0000E4B1A787AB90E4A11680E4A11600E4ACA
:102700000020C2F8CC10C2F8D4000C4AD1680C4AA0
:10271000116001221A70044B01221A7008BD034A8D
:102720001870107008BD00BF54280020EC2A00204B
:102730009C260020B0290020F0290020102800202D
:10274000400C002010B5614B1B78012B40F08780B6
:102750005F4BDFED607A93ED007A5F4B67EE277A8F
:102760009FED5E6AC3ED007A5D4B93ED007A77EEE4
:10277000465A77EEC76AF4EEE57AF1EE10FA98BFA2
:10278000DFED585A37EE067A98BF76EEA56A564BBB
:10279000F4EEC77AF1EE10FAC3ED006A08DB524B93
:1027A0009FED507AD3ED006A36EEC77A83ED007A5A
:1027B0004E4AD36840F24C418B424D4B47DD926804
:1027C000A2F2C352322A0FD9454AC2ED007A002242
:1027D0001A60484BC3F88C20474B00221A70474BB5
:1027E0001A68474B1A603AE03F4A92ED007AF5EEDC
:1027F000006AB4EEE67AF1EE10FA07D5FDEE006A53
:10280000B4EEE67AF1EE10FA00DD23E03A4A3C4CF1
:10281000137883B9394B21681B683A48591A8142A9
:102820001DD923602E4B0121C3ED007A304B11706E
:1028300000221A6013E0002017EE101A324AFDF74A
:10284000A7FE2B4B18602D4B1B68236007E0244A22
:10285000C2ED007A00221A60264BC3F88C20234B6D
:102860009A682A4B9B68D31A07EE103A204BF8EE71
:10287000C76ADFED277A93ED007A67EE277A9FED3E
:10288000257A46EE877A9FED247AF4EEC77AF1EE48
:1028900010FA09D49FED217AF4EE477AF1EE10FA9E
:1028A000C8BFF0EE477A01E0F0EE477A1C4B1D4AB4
:1028B000996817EE900AFDF76BFE07EE100A1A4BA7
:1028C000FDEEC77AC3ED007A10BD00BF20270020BF
:1028D00044270020E12E6542B0260020000034434A
:1028E000A42700200000B443E02700201028002087
:1028F00050280020F029002039270020A826002099
:102900009C28002020A10700682A0020C42900205C
:1029100035FA8E3C0BD7A33BDB0F49C0DB0F494098
:102920008C290020202A0020D029002070B5FFF734
:10293000B3FDFFF707FF284B1B68D90703D4FFF748
:102940002BFDFFF77DFE254B1B7823B1244B1B7815
:102950000BB1FFF7FDFCFFF785FE224BDA6840F272
:102960004B439A4205DD2049204D214E00230C4661
:1029700014E0204B1D4D1A681F4B1D4918781F4B42
:102980004FF4FA661C7800235A5110B10CB9CE509E
:1029900000E0CA500433102BF6D1E4E758585A59D6
:1029A000904203DB9A598242A8BF0246E2500433A8
:1029B000102BF3D1094B1A781C460AB9FFF7FAFD20
:1029C0002378012B07D1064B1B78012B03D1BDE8DF
:1029D0007040FEF76BBC70BDC42800201826002094
:1029E000242B002010280020BC26002028260020B0
:1029F000B429002090270020A8270020182B0020B1
:102A000070B5094D86B23146284601F0D5FD002447
:102A1000B11C60F30F0489B2284601F0CDFD60F3CC
:102A20001F44204670BD00BF5C2B002070B5084DD0
:102A300004468EB23146A2B2284601F0C5FDB11C53
:102A4000284689B2220CBDE8704001F0BDBD00BF30
:102A50005C2B002038B50B4B182404FB00340846CF
:102A60000D46FFF7CDFF2060281DFFF7C9FF60600E
:102A700005F10800FFF7C4FF0023A060E360636175
:102A800038BD00BFF029002038B5094B182404FBDD
:102A900000340D462068FFF7C9FF6068291DFFF765
:102AA000C5FFA06805F10801BDE83840FFF7BEBFCB
:102AB000F0290020002010B50146FFF7CBFF0120D0
:102AC0002421FFF7C7FF02201821FFF7C3FF0320CF
:102AD0000C21FFF7BFFF04203021FFF7BBFF0520CB
:102AE0003C21FFF7B7FF06204821FFF7B3FF542131
:102AF0000720FFF7AFFF4FF4A270FFF781FF3E4BB7
:102B00003E4C186060210820FFF7A4FF4FF49C7032
:102B1000FFF776FF3A4B18604FF49E70FFF770FF97
:102B200007EE100A374BFDEEC77A4FF4A070C3EDE5
:102B3000007AFFF765FF07EE100A334BFDEEC77A08
:102B40004FF49A70C3ED007AFFF75AFF07EE100AB0
:102B50002E4BFDEEC77A4FF49870C3ED007AFFF765
:102B60004FFF07EE100A2A4BFDEEC77A09206C21B1
:102B7000C3ED007AFFF76EFF4FF4B070FFF740FF30
:102B800020604FF4B270FFF73BFF60604FF4B47009
:102B9000FFF736FFA0604FF48E70FFF731FF07EEAE
:102BA000100A1C4BFDEEC77A4FF49070C3ED007A0B
:102BB000FFF726FF184B18604FF49270FFF720FFC5
:102BC00007EE900AFCEEE77A144B17EE900A1870A5
:102BD0004FF49670FFF714FF114B18604FF4947088
:102BE000FFF70EFF07EE100ABCEEC77A0D4B17EE8B
:102BF000100A187010BD00BF100C0020D027002054
:102C00004C0C0020080C0020000C0020480C002078
:102C10003C0C0020902700200C280020182B0020BE
:102C200084290020202700202DE9F04172B60020E1
:102C30000146FFF729FF01202421FFF725FF03208C
:102C40000C21FFF721FF04203021FFF71DFF022098
:102C50001821FFF719FF05203C21FFF715FF06207B
:102C60004821FFF711FF07205421FFF70DFF5A4BB2
:102C70005A4C1868DFF8A081594F5A4E4FF4A27190
:102C8000FFF7D4FE08206021FFF7FEFE564B4FF4FD
:102C90009C711868FFF7CAFE544BD3ED007AF8EE2A
:102CA000E77A4FF49E7117EE900AFFF7BFFE504B84
:102CB000D3ED007AF8EEE77A4FF4A07117EE900AA0
:102CC000FFF7B4FE4B4BD3ED007AF8EEE77A4FF402
:102CD0009A7117EE900AFFF7A9FE474BD3ED007AE1
:102CE000F8EEE77A4FF4987117EE900AFFF79EFE20
:102CF00009206C21FFF7C8FE20684FF4B071FFF780
:102D000095FE60684FF4B271FFF790FEA0684FF433
:102D1000B471FFF78BFE394B4FF48C711868FFF7D5
:102D200085FE00252C4608EB040305F19C0118687C
:102D3000FFF77CFE3B1905F1A0011868FFF776FE4E
:102D4000331905F1A40118680434FFF76FFE0C3540
:102D5000202CE8D12A4BD3ED007AF8EEE77A4FF435
:102D60008E7117EE900AFFF761FE264B4FF49071BB
:102D70001868FFF75BFE244B187807EE900AF8EE10
:102D8000677A4FF4927117EE900AFFF74FFE1F4BD0
:102D9000187807EE900AF8EE677A4FF4947117EE00
:102DA000900AFFF743FE1A4B4FF496711868FFF72D
:102DB0003DFE18484FF48A71FFF738FE00204FF4AB
:102DC000BC71FFF733FE00204FF4BE71FFF72EFEFB
:102DD00062B6BDE8F08100BF100C0020D0270020B3
:102DE00060270020442600204C0C0020080C002006
:102DF000000C0020480C00203C0C0020742900200E
:102E0000902700200C280020182B002020270020CD
:102E100084290020CDCC4C40F02A002038B54FF456
:102E20009670FFF7EDFD114B114D18604FF4A67031
:102E3000FFF7E6FD28604FF4A470FFF7E1FD0D4CAD
:102E400020604FF4AA70FFF7DBFD68604FF4A870B4
:102E5000FFF7D6FD60604FF4AE70FFF7D1FDA860BC
:102E60004FF4AC70FFF7CCFDA06038BD8429002082
:102E70003C280020502B002038B5144B144D186806
:102E8000144C4FF49671FFF7D1FD28684FF4A671EA
:102E9000FFF7CCFD20684FF4A471FFF7C7FD686809
:102EA0004FF4AA71FFF7C2FD60684FF4A871FFF7F5
:102EB000BDFDA8684FF4AE71FFF7B8FDA0684FF4F0
:102EC000AC71BDE83840FFF7B1BD00BF84290020D8
:102ED0003C280020502B00202DE9F0413E493F4C7A
:102EE0003F4B6160E1613F493F4AA16421663F4930
:102EF000A3602362C4F89830C4F8B0303C4B21631F
:102F00004FF07E563B49DFF840813B4F2260002561
:102F1000A261C4F89020C4F8A8201E60374A384B3C
:102F2000A167E56425656566A5666763A563C4F862
:102F30007C80C4F88050C4F89450C4F8AC5016603B
:102F40001D6056605D6096609D60FFF795FF2D4B9C
:102F5000C4F8C850C4F8C0302B4BC4F8D850C4F8DB
:102F6000C4302A4BC4F8DC506FF031021A60284B91
:102F7000C4F8E05032221A60264B274CC3F8008078
:102F8000264B5A221A60264BFA221A60FDF7CCFE15
:102F9000244B25481E60254B254940F27E421A608D
:102FA000244B254A1A600023E2181660C2181560E7
:102FB000CA180433202B1660F6D11D4B4FF07C52FB
:102FC0009A601E4B00221A701D4B01221A701D4B75
:102FD0001F60BDE8F08100BF00001643F02900200B
:102FE0000000AFC3000060400000C842000048433A
:102FF000100C0020000040400000A0403C280020B1
:10300000502B00200000C8419A99193F480C00201D
:103010003C0C00204C0C0020F02A0020080C002062
:10302000000C002074290020602700209027002039
:1030300044260020842900200AE81CC1182B002007
:10304000202700200C280020CDCCCC3D274A9168B9
:1030500040F24B43994270B515461E460BDC244C9A
:103060002378012B07D14FF47A70FEF73FF9214AFC
:10307000002323701370AA681C4BB24214DC1A6838
:1030800040F26C718A420FDD5A6840F24B439A421B
:103090000ADCFDF705FDFDF78FFDFFF7EDFEFDF7FF
:1030A000BFFA0320FEF78AF9104B9A6840F26C735E
:1030B0009A4210DD0E490B786BB90F4B1878012836
:1030C00009D10E4B087040F24C421A605A609A6067
:1030D000DA60FDF7A5FA054B9A6840F24C439A4234
:1030E00002DD054B01221A7070BD00BF10280020C0
:1030F00018260020A8270020242B0020BC26002012
:1031000010B5FDF7ADF9174BDA6840F24B439A4220
:1031100001DCFFF79BFF144A124B117849B91349A0
:103120000978012905D1124CD8682468A042C8BF8B
:1031300011701A6940F2DC539A420E4B01DD0122F4
:1031400000E000220C4C1A701B7822789A4204D0BE
:10315000FDF766FA074B1B782370BDE81040FFF7B8
:10316000BFBA00BF10280020A82700201826002082
:1031700090270020182B0020340C00202DE9F0416E
:103180004FF48C70FFF73CFC104B114F114EDFF8E1
:103190004880186000252C4604F19C00FFF730FCA5
:1031A0007B19186004F1A000FFF72AFC731918605E
:1031B00004F1A400FFF724FC0C3408EB05030435EC
:1031C000602C1860E8D1BDE8F08100BF74290020B0
:1031D000F02A00206027002044260020074BD3ED72
:1031E000007AF5EEC07AF1EE10FA44BF9FED047A52
:1031F00077EE877A17EE900A704700BF44270020C9
:10320000DB0FC940F8B50025064605702C464F1E59
:103210000F4802F0ABFF28B90120013502F0CFFFC3
:10322000EDB206E00A4802F0B4FF30550134E4B2D2
:1032300000253CB1331913F8013C3B2B02D100238C
:103240003355F8BD092DFAD8BC42E1DBF7E700BFE2
:10325000802B00201FB500210B2201A8009105F052
:1032600031FB68460F21FFF7CDFF684605F034FAC1
:1032700008F0EAFF05B000BD38B50546002403E0BC
:10328000FFF7E8FF0134E4B2AC42F9D138BD0000E9
:10329000084B10B5182404FB0034FFF7DBFF206057
:1032A000FFF7D8FF6060FFF7D5FF0023A060E36061
:1032B000636110BDF029002010B50446FFF7CAFF76
:1032C000DFED0B7A07EE100AB4EE677AF1EE10FA32
:1032D0004FF00003074A04D1074914700B70012016
:1032E00010BD1370054A4FF47A711160184610BD75
:1032F00066E6F6423827002018260020180C002029
:1033000038B58A4802F032FF002800F087818748EC
:1033100002F03FFF864B18703138292800F27E8179
:10332000DFE810F0370139013E014D0159017C0100
:103330007C017C017C017C017C017C017C017C01A5
:103340007C017C0131003C004C005D008F009B0043
:10335000A900B800CA00DA00DE00EE00F4000201A5
:103360002A0028017C017C017C017C012D012F01B8
:1033700031017C017C016C01FFF76CFFFFF76AFFF4
:10338000FFF768FF16E00020FFF782FF0120FFF73C
:103390007FFFFFF75FFF674B186038BD0320FFF723
:1033A00077FF0420FFF774FF0620FFF771FF072067
:1033B000FFF76EFFBDE83840FFF74CBF0220FFF774
:1033C00067FF0520FFF764FFFFF744FF07EE100AD1
:1033D000BCEEC77A584B17EE100A187038BD08209B
:1033E000FFF756FFFFF736FFFFF734FF07EE100A2F
:1033F000524BFDEEC77AC3ED007AFFF72BFF07EEC5
:10340000100A4F4BFDEEC77AC3ED007AFFF722FF9B
:1034100007EE100A4B4BFDEEC77AC3ED007AFFF7BB
:1034200019FF07EE100A484BFDEEC77AC3ED007A8C
:10343000FFF710FF454B18600920BDE83840FFF743
:1034400027BFFFF707FF424B1860FFF703FF07EEA8
:10345000100A404BFDEEC77AAEE0FFF7FBFE3E4C94
:103460003E4B04F120051860FFF7F4FE44F8040F0A
:10347000AC42F9D138BDFFF7EDFE07EE900A384BAC
:10348000FDEEE77AC3ED007A17EE904AFFF7E2FE11
:10349000344B0DE0FFF7DEFE07EE100A304BBDEEB9
:1034A000C77A83ED007A17EE104AFFF7D3FE2E4B52
:1034B00003EB8404206038BDFFF70EFDFFF7B4FB7B
:1034C000FFF7DAFCFDF7ECFAFDF7AAF8FEF75AFC75
:1034D000BDE83840FEF746BEBDE83840FDF7E0BA2B
:1034E000FFF7B8FE214C2060FFF7B4FEFFF7B2FEF5
:1034F0006060FFF7AFFEFFF7ADFEA060FFF7AAFE2A
:10350000FDF75AFBBDE83840FFF7B6BCFFF7A2FE57
:10351000174C2060FFF79EFE6060FFF79BFEA060E7
:10352000BDE83840FFF780BB032024E0802B00205B
:10353000040C0020100C002020270020080C002084
:10354000000C0020480C00203C0C00204C0C0020FB
:103550000C280020902700204026002074290020FD
:10356000D8290020F02A0020602700203C280020D5
:10357000D02700200D20BDE83840FFF77DBE022097
:10358000F9E70920F7E7FFF74FFBBDE83840FDF703
:1035900047B8012000E00220BDE83840FFF78CBEAC
:1035A0000320FFF789FE002838D0FFF753FE07EE0F
:1035B000100A1B4BFDEEC77AC3ED007A38BD04201C
:1035C000FFF77AFE50B3174B00221A70144B4FF4DA
:1035D0007A721A6038BD0520FFF76EFEF0B1124D09
:1035E0000024FFF737FE07EE100AFDEEC77A17EE4C
:1035F000903A63510434102CF3D138BDFFF72AFE02
:1036000007EE100AF7EE007AB4EE677AF1EE10FAE0
:10361000064B01D1012200E000221A7038BD00BF24
:10362000180C002038270020AC2700208827002015
:1036300001482C2102F018B8802B002008B5014663
:103640000A22034802F087F8BDE80840FFF7F0BF00
:10365000802B002008B501460A22034802F0A2F898
:10366000BDE80840FFF7E4BF802B002038B50546D1
:10367000002404E00020FFF7EDFF0134E4B2AC4287
:10368000F8D138BD07B508F0A9FA0B460221024669
:103690000091044802F040F903B05DF804EBFFF735
:1036A000C7BF00BF802B0020074B10B5182404FBB8
:1036B00000342068FFF7E6FF6068FFF7E3FFA068CB
:1036C000BDE81040FFF7DEBFF029002038B5034603
:1036D0000D460B481946144601F0CBFF084809492E
:1036E00001F0C7FF084B1B681D4203D1044807497E
:1036F00001F0BFFF02482146BDE8384001F0C9BFD4
:10370000802B0020E30002081C2B0020C2FE0108D1
:1037100073B5374C374D0A2220460F2102F049F885
:1037200001262046344901F0A4FF2FA3D3E900234A
:103730002046009602F0F5F82046304901F099FF46
:1037400020462F4901F0A5FF20462E4901F091FFA8
:1037500020462D4901F09DFF20462C4901F089FFAC
:103760000A222046082102F024F82046284901F0C8
:1037700080FF204604210A2202F01BF831462A4627
:103780002448FFF7A3FF02212A462348FFF79EFFA4
:1037900008212A462148FFF799FF2A46204D214853
:1037A0000421FFF793FF10212A461F48FFF78EFFE1
:1037B00020212A461D48FFF789FF40212A461C4840
:1037C000FFF784FF80212A461A48FFF77FFF1A4837
:1037D0004FF480712A46FFF779FF1849204602B05E
:1037E000BDE8704001F055BF000000A09999094064
:1037F000802B002030FF0108C7FE0108DAFE010817
:10380000E7FE0108F2FE010802FF010809FF0108B6
:103810001DFF010826FF010839FF010847FF0108C5
:10382000B3FF010851FF01085EFF01086BFF0108AB
:1038300079FF010889FF01089AFF0108AAFF010822
:10384000F7B5B44C23786B2B00F024812ED8642B71
:1038500000F0A6801AD8362B00F039820ED8232B20
:1038600000F0308203D8212B40F03F8221E2242B4C
:1038700000F01382252B40F0388212E2622B78D0C0
:1038800000F28480612B40F0308267E0672B00F00B
:10389000BE8006D8652B00F0A180662B40F0258203
:1038A000A4E0692B2CD000F2DC80C5E0722B00F084
:1038B0008A8110D86E2B00F0798106D86C2B00F02D
:1038C0001A816D2B40F0118250E1702B00F0728153
:1038D00000F272816CE1752B00F0C88106D8732B61
:1038E00000F08481742B40F00082B6E1792B00F067
:1038F000CD817A2B00F0CC81762B40F0F681BEE1B1
:10390000854C2068FFF7BEFE6068FFF7BBFEA0682D
:10391000824CFFF7B7FE2068FFF7B4FE6068FFF740
:10392000B1FEA0687E4CFFF7ADFED4ED007AFDEE4F
:10393000E77A17EE900AFFF78DFED4ED017AFDEEDF
:10394000E77A17EE900AFFF785FED4ED027AFDEED6
:10395000E77A17EE900AFFF77DFE78E10020FFF787
:10396000A3FE0120FFF7A0FE6E4B1868FFF78AFE4A
:1039700088E10320FFF798FE0420FFF795FE06205C
:10398000FFF792FE0720FFF78FFE72E10220FFF79C
:103990008BFE0520FFF788FE634B644819786AE1C7
:1039A0000820FFF781FE0020FFF754FE604B1868E7
:1039B000FFF750FE5F4B1868FFF74CFE5E4B186830
:1039C000FFF748FE5D4B1868FFF744FE5C4B186834
:1039D000FFF758FE0920FFF767FE53E1594B1868BF
:1039E000FFF750FE584B5148196844E1574B584C6B
:1039F0001868FFF747FE04F1200554F8040FFFF79D
:103A000041FEAC42F9D10220FFF730FE67E1514C94
:103A1000062504F1200654F8040F08F0DFF800959D
:103A200002460B46414801F077FF2C213F4801F048
:103A30001BFEB442EFD152E1474C062504F12006AB
:103A400054F8040F08F0CAF8009502460B463748B0
:103A500001F062FF2C21354801F006FEB442EFD19F
:103A60003DE13E4CD4ED007AFDEEE77A17EE900A88
:103A7000FFF7F0FDD4ED017AFDEEE77A17EE900A3C
:103A8000FFF7E8FDD4ED027AFDEEE77A274817EE5E
:103A9000901A08E1324F334E386808F09FF8062537
:103AA00002460B462148009501F036FFFFF7C0FDA6
:103AB000306808F093F8009502460B461B4801F069
:103AC0002BFFFFF7B5FD786808F088F800950246EF
:103AD0000B46164801F020FFFFF7AAFD706808F0BA
:103AE0007DF8009502460B46104801F015FFFFF7E0
:103AF0009FFDB86848E01C4CFDF72EF8FDF70CF868
:103B00002068FFF7A7FD6068FFF7A4FD0748A168DC
:103B1000C9E000BF040C00208C2900207829002077
:103B200068290020100C002020270020802B002076
:103B3000080C0020000C0020480C00203C0C002049
:103B40004C0C00200C280020902700207429002015
:103B500040260020EC2A00205C2700208C26002034
:103B60003C280020502B002000280020624E3068A6
:103B700008F034F8062502460B466048009501F02F
:103B8000CBFEFFF755FD706808F028F80095024657
:103B90000B465A4801F0C0FEFFF74AFDB06808F036
:103BA0001DF8009502460B46544888E0032067E064
:103BB000042065E00D2063E0514B504819680A224B
:103BC00001F0BCFD80E04F4C2068FFF75BFD6068B2
:103BD000FFF758FDFFF702FB08F000F80B46022143
:103BE00002460091454801F09CFE7EE0464B454C64
:103BF0001878464DFFF722FD2068FFF743FD606807
:103C0000FFF740FDFFF7EAFAFFF73CFD404B18686D
:103C1000FFF738FD3F4B1878FFF71CFD0024605973
:103C20000434FFF717FD202CF9D13B4D00246059D7
:103C30000434FFF70FFD102CF9D10420FFF716FD17
:103C40000020FFF707FD354B1878FFF7F7FC2B48EE
:103C500003B0BDE8F04001F011BD2C4D00246059C7
:103C60000434FFF7F7FC202CF9D1F0E70020FFF730
:103C7000F1FC224800210A2201F09BFD24E00920EA
:103C8000FFF7F4FC1D4801F0F9FC1DE00B2005E0F6
:103C9000FEF79EF8FFF7F6FC03E00320FFF7E6FCD3
:103CA000D5E7164800210A2203B0BDE8F04001F034
:103CB00080BD012300930EA3D3E900230F4801F038
:103CC00030FE01E0FFF724FD582323700DE0124D74
:103CD000002460590434FFF7BDFC102CF9D10748CB
:103CE00001F0CCFC0E4B58221A7003B0F0BD00BF9F
:103CF000000000A099990940D0270020802B0020C7
:103D00001C2B0020B428002018260020102800209A
:103D10009C26002054280020BC260020182B0020C0
:103D2000040C0020AFF3008010B52D484FF4E131B2
:103D300002F01AFA4620002102F04EFA4620002135
:103D400002F0A0FAFEF7B6FE4FF48A70FEF758FEB6
:103D5000DFED247A07EE100AB4EE677AF1EE10FA7E
:103D600005D0FFF7B9F80124FEF75EFF00E000245C
:103D7000FCF782FF0420FDF7D5FA0820FDF78EFA44
:103D8000FFF7FCF9FCF7E0FDFCF78AFE0028FBD00A
:103D9000FCF74CFD1CB1FCF70FFFFEF745FF124C82
:103DA000FCF7A4FCFFF73AF8FDF7B6F9236843F0F7
:103DB00010032360FDF7E6FFFDF7D6FEFEF7D2F90C
:103DC000236843F020032360FCF7A4FA074B01218A
:103DD0001860462002F056FA054B00221A7010BDFA
:103DE000802B0020CDCC4C401C2B0020282B002009
:103DF000242B0020564B1A68564B1968511A06EEB0
:103E0000901ADFED557AB8EE667AF0B5C7EE277AEC
:103E10005249534E534D544F00242DED028B85B023
:103E2000C1ED007A1A60FCF7F5FDFCF795FE07EB93
:103E3000441156F8040FFCF707FC0134032C45F835
:103E4000040FF4D1494C454D6268494B0092A26879
:103E500001922A6802929A68596818682368FDF7E7
:103E600099F9D4ED007AFDEEE77A424B17EE900A0D
:103E7000D3ED008A00F0AAFCD4ED017AFDEEE77ADA
:103E8000064617EE900A00F0A1FC94ED028ABDEE02
:103E9000C87A361817EE100A00F098FC301807EEB2
:103EA000900AF8EEE77A17EE900A00F077FC06EE3B
:103EB000900AF7EE007A48EEE67A2F4B29682F4DEC
:103EC00093ED027A18EE277A17EE100AFEF7C0F982
:103ED0002B4BD5ED007A93ED007A77EE277AC3ED80
:103EE000007A284B1A6801321A60FEF763F8264BF5
:103EF0001B68D80725D4254C254EFEF78DF8FDF715
:103F000067FFFEF77BF994ED007ADFED227A87EE0A
:103F1000278AD6ED007A38EE278AFDF759FFDFEDC4
:103F20001E7A9FED1E7A06EE900A68EE277A46EE1C
:103F3000877A1B4BC3ED007AFDF74AFF2B68306090
:103F4000236005B0BDEC028BBDE8F040FEF7EEBC8F
:103F5000A82600202C2B002000247449440C0020AB
:103F6000DC2A002074290020D8280020782900208D
:103F70008C29002084290020502B0020A42600201A
:103F80000C26002084260020C4280020342700208E
:103F90003C270020000048426666663FCDCCCC3D01
:103FA0009C260020094B1A68094B19681A60511A9F
:103FB00007EE901AB8EE677ADFED067AC7EE277A39
:103FC0000549C1ED007AFFF79BB800BFA826002085
:103FD0008C27002000247449440C002008B50D4BA8
:103FE0001A680D4B19681A60511A07EE901AB8EE4C
:103FF000677ADFED0A7AC7EE277A094B0949186814
:10400000C1ED007A5968FDF71BFEBDE80840FDF7D9
:10401000D9BD00BFA826002098260020002474499E
:10402000B4280020440C002008B50B4B1A680B4B39
:1040300019681A60511A07EE901AB8EE677ADFED28
:10404000087AC7EE277A0749C1ED007AFFF758F9D9
:10405000BDE80840FFF7F4BBA8260020D4290020C3
:1040600000247449440C0020084B1A68084B196856
:104070001A60511A07EE901AB8EE677ADFED057AEA
:10408000C7EE277A0449C1ED007A7047A8260020C0
:10409000C028002000247449440C002010B5FCF70F
:1040A00039F9204B204C1860204B1B68C01A206047
:1040B000FCF75AFE226842F20F739A422AD91C4C2E
:1040C000236801332360FFF795FE2368DB0701D4E3
:1040D000FFF768FF22680A23B2FBF3F103FB112309
:1040E00013B9FFF77BFF11E00E4B1A68114B1968EB
:1040F000114B511A994202D9FFF796FF06E00F497A
:104100000968521A9A4201D9FFF7AEFF054B1A68A7
:10411000064B1A60064B1A68632A01D900221A60FE
:1041200010BD00BFA8260020A0270020282B0020BB
:10413000C4280020D4290020A0860100C028002027
:1041400008B5FFF7F1FDFFF7A9FFFCE710B5164C26
:104150000421204601F002FF204601F0A7FF134A88
:104160006060D2ED007AF0EE086A86EEA77A104A17
:104170000023237282ED007A27EEA77A0D4AC6EE5D
:10418000876A67EE277AB7EE007AC7EE277AC2ED24
:10419000006A094AC2ED007A084A13705370FCF7AE
:1041A000B9F8074B186010BDCC280020300C002057
:1041B00040260020302B0020EC290020E0260020A3
:1041C0009C28002010B50C888068A4B24FF6FF73BD
:1041D0009C420ED00B889BB2934208D109E01A682A
:1041E000013204D104338B42F9D3002010BD832067
:1041F00010BD0B1D0918F6E738B50B889BB20C46AD
:10420000591E89B24FF6FD72914203D84EF6EE6206
:10421000934203D165880135ADB200E00025204608
:10422000FCF724F8052805D1A01C2946BDE8384034
:10423000FCF734B838BD70B505460C461646FFF796
:10424000C1FF60B128462146FFF7D6FF052806D1F9
:10425000284621463246BDE87040FFF7B3BF70BD27
:10426000016840680B8802889BB292B233B94FF65E
:10427000FF7082420CBF0846002070470AB1002040
:1042800070474FF6FF729342F9D17047F0B58568D9
:104290004FF6FF764D190020063111E00C88A4B2CC
:1042A000B4420CD094420AD00B1D04E01F88BFB268
:1042B000A74204D00433AB42F8D3013080B20431BA
:1042C000A942EBD3F0BD2DE9F74F856880460E4635
:1042D00091469B464F190C1D03E02368013340D0E3
:1042E0000434BC42F9D3812140E02B884FF6FF72A1
:1042F0009BB293421FD05B451DD0B11D04E00888DE
:1043000080B2984217D00431A142F8D326E035F8A4
:10431000021C0193204689B2FBF7C0FF0528019BD0
:1043200000D005E0A01C1946FBF7B8FF052801D016
:1043300001461BE00434043D5545D6D84946404665
:104340004FF6FF72FFF777FF014678B93046FBF76B
:10435000A5FF052814BF0146002107E0BC42D6D3C3
:10436000C1E7023D09F1040A4D44E5E70846BDE80E
:10437000FE8F2DE9F04705460F469046FFF770FF88
:104380000446002861D0AB6800EB0309A9F10206DE
:1043900019E033889BB2BB4214D136F8023C9BB281
:1043A000B01E434502D10020BDE8F0874FF6FF72F2
:1043B000934201D0261D1BE04146FBF76FFF052805
:1043C000F8D1F0E7043EA642E3D8F3E733680133BF
:1043D0000DD130464146FBF761FF052839D1B01CAD
:1043E0003946FBF75BFF0528DDD0BDE8F0870436D2
:1043F0004E45EBD3284621463A46FFF747FFAB68C8
:1044000001309B0880B2013B984221D26E68B442D1
:1044100008BF2E684EF6EE613046FBF73FFF0528D9
:1044200017D1301D4146FBF739FF052811D1B01DCA
:104430003946FBF733FF05280BD128463146224683
:104440003B46BDE8F047FFF73EBFAB20BDE8F08735
:104450008120BDE8F08710B50446FBF74BFF2168CB
:1044600020460022FFF7E7FE0146A0B92068028837
:104470004FF6FF7392B29A4205D1FBF70FFF052862
:1044800001D0014607E0616820464FF6FF72BDE8A3
:104490001040FFF7D0BE084610BD2DE9F04104469C
:1044A000FBF728FFAB232268A38117886668BFB299
:1044B00035884EF6EE639F42ADB21DD04FF6FF78C1
:1044C000474502D0002F33D038E015B920461146B9
:1044D0000AE09D420AD100213046FBF7DFFE0528A5
:1044E00000D03DE0216820463A4637E0BD4238D151
:1044F0002046FFF7B0FF33E03DB911462046324673
:104500004FF6FF73FFF7DFFE2AE04FF6FF739D4281
:1045100027D1314620462A46FFF78DFE0146A0816D
:10452000F8B92068FBF7BAFE052808BF002017E09D
:10453000BDB19D42204631460FD1E1E715B9204675
:1045400011460AE09D420CD100213046FBF7A6FE41
:10455000052800D004E0216820464246FFF76BFEA4
:10456000A081A089BDE8F0814FF6FF7370B513807C
:104570008389842B04460E46154604D1FFF78DFF30
:1045800008B1A08970BD2046FFF76AFE90B1A3680C
:10459000023B1B18063009E01A8892B2B24204D1DD
:1045A00033F8023C00202B8070BD043B8342F3D2E1
:1045B000822070BDAB2070BD07B50DF10602FFF77C
:1045C000D3FFBDF806000EBD8389842B70B5044669
:1045D0000D46164604D1FFF760FF08B1A08970BDF3
:1045E0004FF6FF739D4206D0204629463246BDE86D
:1045F0007040FFF7BEBE822070BD0000054B064A2A
:104600001A6002F580425A604FF480429A60842218
:104610009A8170475C2B00200080000838B5084C58
:1046200003460D462046194601F041FF2046294623
:1046300001F096FF2046BDE8384001F0CCBF00BF36
:10464000842B0020014801F0A1BF00BF842B002073
:1046500038B5054C204601F099FF0546204601F08B
:1046600095FF40EA052038BD842B002008B5FFF7F0
:10467000EFFF00B208BD000038B50D4C05462946D5
:10468000204601F014FF0021204601F069FF20467A
:1046900001F0A1FF642001F092FD2046294601228D
:1046A00001F05AFF2046BDE8384001F06FBF00BF5F
:1046B000842B002070B50A4C03460D46204619464F
:1046C000164601F0F4FE2046294601F049FF204637
:1046D000314601F045FF2046BDE8704001F07BBF48
:1046E000842B002007EE102AF7EE006AB4EE667AFB
:1046F000F1EE10FA07EE900A06EE101A07D076EEE9
:10470000C76A66EE266A47EE876AF0EE667A17EEAB
:10471000900A7047F0B594464C1E10E01EB201336B
:1047200050F8262050F82370BA4204DD40F82320C8
:1047300040F826700025DBB2A342EFDB15B9002359
:104740000125F9E7036850F824209B1A002BB8BF15
:104750005B42CCF80030022391FBF3F150F82100CA
:10476000F0BD07EE100AB5EEC07AF1EE10FA07EED2
:10477000901A04DDF5EEC07AF1EE10FA0BD4B5EE26
:10478000C07AF1EE10FA01D400207047F5EEC07A3D
:10479000F1EE10FAF8DD0120704700000A4BA3EBA0
:1047A000600307EE103A07EE900A27EE876AF0EEF4
:1047B000087A46EE477AF6EE006A67EE266A66EEFB
:1047C000A77A17EE900A7047DF59375F404370476A
:1047D00007292FD8DFE801F004090F14191E232937
:1047E00003689A6842F03D0203E00368986840F469
:1047F00074629A6070470368996841F47412F8E72C
:1048000003689A6842F07462F3E70368D86840F07E
:104810003D0208E00368D96841F4746203E003686C
:10482000DA6842F47412DA6070470368D96841F0BC
:104830007460D860704738B54B1C50F8333005466B
:104840000C4633B1984728462146BDE83840FFF76B
:10485000BFBF38BD024B00211868FFF7ECBF00BF97
:10486000E00C0020024B01211868FFF7E4BF00BFF5
:10487000E00C0020024B02211868FFF7DCBF00BFEC
:10488000E00C0020024B03211868FFF7D4BF00BFE3
:10489000E00C0020024B04211868FFF7CCBF00BFDA
:1048A000E00C0020024B05211868FFF7C4BF00BFD1
:1048B000E00C0020024B06211868FFF7BCBF00BFC8
:1048C000E00C0020024B07211868FFF7B4BF00BFBF
:1048D000E00C0020024B00211868FFF7ACBF00BFBE
:1048E000E40C0020024B01211868FFF7A4BF00BFB1
:1048F000E40C0020024B02211868FFF79CBF00BFA8
:10490000E40C0020024B03211868FFF794BF00BF9E
:10491000E40C0020024B04211868FFF78CBF00BF95
:10492000E40C0020024B05211868FFF784BF00BF8C
:10493000E40C0020024B06211868FFF77CBF00BF83
:10494000E40C0020024B07211868FFF774BF00BF7A
:10495000E40C0020024B586100BF00BF704700BF4D
:10496000003C0140074B10B553F8303004463BB1D2
:104970009847012000FA04F0BDE81040FFF7EABFB5
:1049800010BD00BFE80C00200E4B2DE9F0410D4694
:104990005C69064600270DE0012000FA06F818EAD7
:1049A000040F06D0084951F8363013B1984747EA4A
:1049B00008070136AE42EFD93846BDE8F041FFF7AF
:1049C000C9BF00BF003C0140E80C00200020FFF7F9
:1049D000C9BF0120FFF7C6BF0220FFF7C3BF0320F6
:1049E000FFF7C0BF0420FFF7BDBF05200921FFF777
:1049F000CBBF0A200F21FFF7C7BF10B504460079CF
:104A000000F006FA2079BDE8104000F0E5B900009A
:104A100008B50B48FFF7F1FF0A48FFF7EEFF0A4819
:104A2000FFF7EBFF0948FFF7E8FF0948FFF7E5FF4D
:104A30000848FFF7E2FF0848BDE80840FFF7DDBF80
:104A4000680D0020700D0020780D0020800D0020E2
:104A5000880D0020900D0020980D0020036870B58F
:104A60004800032505FA00F402F0030505FA00FCEE
:104A70001E68E4439508264005F0030546EA0C0647
:104A800005FA00FC1E60DE6826404CEA06051609A1
:104A900006F0030606FA00FCDD609D6892092C40D2
:104AA0004CEA040002F0010404FA01F2012404FAC1
:104AB00001FC9860586820EA0C0042EA0001596045
:104AC00070BD0368C80801F0070130B589000F24E4
:104AD00004FA01FC02F00F0202FA01F1083053F867
:104AE000205025EA0C040C4343F8204030BD0368F5
:104AF0001961704703681A6812F4985FFBD119684E
:104B000041F480701860704703681A6812F4985F67
:104B1000FBD1196841F4007018601A6812F4985FAC
:104B2000FBD170470368586841EA00025A60704739
:104B30000368586820EA01025A60704703681868E1
:104B400020F480621A607047014B1868704700BFFC
:104B5000C42C0020016810B58A69044602F4706311
:104B6000002283614A618A61FFF7CEFF20464FF43D
:104B7000E061FFF7DDFFFF23637310BDF8B5036845
:104B800005695F690446AE789B69FFF7DDFF6061E8
:104B9000F80706F0010613D50020E8804FF4806185
:104BA0002046FFF7BFFF26B121680F6847F48062F7
:104BB0000A60B5F800C0236846EA4C001861002777
:104BC000B9071ED5AB8876B1012B17D12046FFF768
:104BD000B5FFE2892046012A02D9FFF78BFF0DE0DD
:104BE000FFF792FF0AE0012B0AD0E888A968471C6A
:104BF000095CEF802046FFF77AFF01E0002700E024
:104C0000374607F0840EBEF1800F1BD1E789AFB1A4
:104C1000EF88A8687A1CC15DEA802046FFF767FF2D
:104C2000B5F806C0AB889C450BD14FF48061204697
:104C3000FFF77EFFE389591EE18102E000F09CFC52
:104C400000E0002707F08402842A17D1E689204675
:104C500056B1FFF74FFF23685F69FA07FCD520695B
:104C600000270C30206109E0FFF74EFF4FF4007180
:104C70002046FFF75DFF0221617337467B0627D58B
:104C80002368E8881969AA68431C1154AA889BB252
:104C9000501E8342EB800ED12046FFF74FFFE18983
:104CA0002046022903D9BDE8F840FFF723BFBDE83D
:104CB000F840FFF729BF93420AD1E3895A1E90B208
:104CC000E08110B902216173F8BD20690C302061C8
:104CD000F8BD00000148FFF751BF00BFA00D002044
:104CE0000148FFF74BBF00BFBC0D00200148FFF794
:104CF00031BF00BFA00D00200148FFF72BBF00BF50
:104D0000BC0D002001EBC001880000F184431A6053
:104D100070470000244B186840F480321A604FF44A
:104D2000A063214A1168890301D4013BF9D11268BB
:104D30001D4B920336D51A6CDFF888C042F08050C4
:104D40001A4A1864116841F48040106099689960AB
:104D5000986840F400429A609968154A41F4A0505E
:104D600098601449144882E80310144A5A6019687C
:104D700041F0807018600C4B19688801FBD5104A0F
:104D800040F205611160986820F0030199609A680B
:104D900042F0020098600448836803F00C0CBCF1F8
:104DA000080FF8D1704700BF003802400070004083
:104DB0006C2B002000BD010580DE800208544007F6
:104DC000003C0240007A030AFFF7A4BF014B13F82E
:104DD00010007047E4FF010838B50446FFF7F6FFFE
:104DE000094B0A4903EB440451F8205064782846E3
:104DF00021460122FFF786FF284621460022BDE812
:104E00003840FFF77FBF00BFE4FF01083C00020805
:104E100010B50446FFF7DAFF0549064A01EB4403E3
:104E200052F8200059780122BDE81040FFF76ABF10
:104E3000E4FF0108D0FF010808B5FFF7C7FF024BE8
:104E400053F8200008BD00BF6C2B002008B5FFF709
:104E5000F3FF400008BD7047014B07221A607047FE
:104E600010E000E0014B5860FFF7F6BF10E000E0F3
:104E700008B572B60548064B1B6801684A1C0260FB
:104E800062B6044B1B6803B1984708BDC42C0020D0
:104E900010E000E07C2B0020002808DB421100F02D
:104EA0001F01012000FA01F0014B43F82200704776
:104EB00000E100E070B54E1E6FF0070501F0010142
:104EC000694308315FFA81FCFF2101FA0CF51343B5
:104ED00003FA0CF100687410183004F0010450F863
:104EE000246026EA05050D4340F8245070BD0231C8
:104EF00038B550F821301546046823B19847236926
:104F000023EA0505256138BD07218022FFF7EFBFA1
:104F100000210122FFF7EBBFF8B505680646EB68F4
:104F20002F691F4017F0400403D0046A0CB1A0475A
:104F30004024BB0604D5F36913B1984744F020041C
:104F4000286920EA04042C61F8BDF8B50768054615
:104F5000FB683E691E4016F0100403D084690CB152
:104F6000A0471024300704D56B6913B1984744F06B
:104F70000804710704D52B6913B1984744F0040461
:104F8000B20704D5EB6813B1984744F002043869BE
:104F900020EA04043C61F8BDF8B507680546FB68E3
:104FA0003E691E4016F0400403D0046A0CB1A047CD
:104FB0004024F30604D5AB6913B1984744F01004BC
:104FC000300704D56B6913B1984744F008047107A2
:104FD00004D52B6913B1984744F00404B20704D5F3
:104FE000EB6813B1984744F00204F30704D5AB68AB
:104FF00013B1984744F00104386920EA04043C6185
:10500000F8BD00210122FFF772BF01EBC00188004B
:1050100000F18440704708B500680C30FFF7F5FFD9
:105020000023036008BD08B50068013920308900FD
:10503000FFF7EBFF0123036008BD10B504460079BC
:10504000FFF7E6FE2079BDE81040FFF7C5BE00007F
:105050000D4A10B504461068A0470C490868A047DF
:105060000B480068A0470B4B1868A0470A4A106815
:10507000A0470A490868A04709480068A047094BAB
:105080001868A04710BD00BF840E0020880E0020C5
:105090008C0E0020900E0020940E0020980E002010
:1050A0009C0E0020A00E002038B58B1C044640F852
:1050B000232000680D460C30FFF7A7FF637901211C
:1050C00001602079002B23D1A0F10A02504240EB6D
:1050D0000200072D3ED8DFE805F00409090909118F
:1050E000111600280CBF2C20192003E000280CBF4B
:1050F0002E201B20BDE83840FFF7CEBE00280CBF95
:105100002D201A20F6E700280CBF2B201820F1E7ED
:105110000B38112816D8DFE800F0090B0D1515150E
:105120001515151515151515150F11131C20E1E78B
:105130001D20DFE71E20DDE73220DBE73620D9E740
:105140003720D7E70448054A40F2DD11BDE8384072
:1051500000F0DCB938BD00BF50000208870002082B
:1051600038B50D4604460235FFF755FF002344F8D5
:10517000253038BD70B50446481EC3B2032B0D461A
:10518000164604D91C48AD211C4A00F0BFF96179CC
:10519000022904D11848B021194A00F0B7F9627900
:1051A000022A27D0012E10D002D3022E22D115E0E0
:1051B00020462946FFF7D4FF2068691E2030890069
:1051C000FFF723FF0023036070BD20462946FFF749
:1051D00022FF204629466022082303E02046294674
:1051E00010220023FFF766FE20462946BDE87040E6
:1051F000FFF719BF70BD00BF500002088900020808
:10520000A5000208014B1868FFF77EBE840E00203F
:10521000014B1868FFF77CBE840E0020014B186814
:10522000FFF77ABE840E0020014B1868FFF78DBE91
:10523000840E0020014B1868FFF7AEBE880E0020D8
:10524000014B1868FFF7A8BE8C0E0020014B1868B0
:10525000FFF7A2BE900E0020014B1868FFF79CBE1E
:10526000940E0020014B1868FFF7CBBE980E00206B
:10527000014B1868FFF7C5BE9C0E0020014B186853
:10528000FFF742BEA00E0020014B1868FFF740BE9A
:10529000A00E0020014B1868FFF73EBEA00E0020B4
:1052A000014B1868FFF751BEA00E0020C38881880B
:1052B0009AB28BB2C188B0F804C0D31A89B21FFA6F
:1052C0008CF2914203D201898AB2501C1B1898B209
:1052D0007047C2888388511C994207D00089904248
:1052E00006D1D3F1010038BF00207047012070477C
:1052F00000207047C3880268D154C38802899A424B
:1053000001D0013300E00023C38070470346828848
:10531000198900689142805C01D0013200E00022CE
:105320009A807047420102F18440C161704738B5EC
:10533000044690F820020D46FFF77EFD19214143F7
:10534000A800B1FBF0F26420B2FBF0F529010D09D1
:1053500000FB15231A013232B2FBF0F303F00F0207
:1053600042EA0100236881B2996038BD00680121DA
:105370000C30FFF7D7BF006800210C30FFF7D2BF19
:1053800037B50368044619680191019A920610D551
:105390005D68041D2046EDB2FFF79BFF10B120466B
:1053A000FFF7B4FF2046294603B0BDE83040FFF7C1
:1053B000A1BF019B1B0610D500F110052846FFF781
:1053C00075FF28B128462468FFF7A0FF606004E05D
:1053D0002046FFF7D0FF00BF00BF03B030BD2DE96E
:1053E000F84304460D4617460026BE4210D004F18D
:1053F0001008404615F80690FFF76BFF40B940468D
:105400004946FFF777FF2046FFF7B0FF0136ECE78C
:105410003046BDE8F88330B5054685B000240A2043
:10542000B1FBF0F300FB131230320DF804201946E3
:105430000134002BF3D10BE01DF804108DF80F1090
:1054400028460DF10F010122FFF7C9FF0028F7D010
:1054500014F1FF34F0D205B030BD0000014B1868E4
:10546000FFF78EBF14110020014B1868FFF788BFAB
:1054700018110020014B1868FFF782BF1C11002093
:10548000014B1868FFF77CBFB0190020014B18686A
:10549000FFF776BFB419002013B504468DF8071046
:1054A00020460DF107010122FFF799FF0028F7D0F0
:1054B0001CBD38B505460C4602E02846FFF7ECFF58
:1054C00014F8011B0029F8D138BD0368202209B166
:1054D0001A8370475A83704738B5054662B6094C3F
:1054E00009492068FFF7E5FF20682946FFF793FF89
:1054F00020680A21FFF7D0FF20680D21FFF7CCFFBD
:10550000FEE700BF18110020BE000208F8B5164ED5
:1055100005460C4630684FF4E1311746FFF707FFA8
:1055200030681249FFF7C5FF30683946FFF7C1FF01
:1055300030680F49FFF7BDFF30682946FFF7B9FF14
:1055400030680C49FFF7B5FF30682146FFF763FF6D
:1055500030680A21FFF7A0FF30680D21FFF79CFF9C
:105560004FF0FF30FFF7B8FF18110020CC00020801
:10557000E2000208E3000208F8B5114B05211C689F
:1055800021222046FFF76AFA00252E460127B6F5AC
:10559000006F03D0002E08BF012701E04FF0FF3756
:1055A000B5F5006F04BFF6190025B542204601D2BB
:1055B000012100E00021FFF788FF0135E7E700BF88
:1055C000CCFF010800000000000000000000000007
:1055D000012007E0022005E0032003E0042001E0B1
:1055E0000520FFE7FEE70D4A0121116072B60C4A63
:1055F00000211160064902B4074902B486B005498A
:105600008E467047AFF30080AFF30080AFF30080A9
:1056100000000061F9FFFFFFD954010814ED00E01C
:1056200010E000E0AFF30080AFF30080AFF3008044
:1056300038B505460C4603E02868036828469847B5
:1056400014F8011B0029F7D138BD70B50446154682
:105650000E4605E0206816F8011B036820469847AF
:1056600015F1FF35F6D270BD026808B5136898478A
:1056700008BD026808B55368984708BD10B50D21EC
:105680000446FFF7F1FF20460A21BDE81040FFF76E
:10569000EBBF10B50446FFF7ECFF2046BDE8104015
:1056A000FFF7ECBF2DE9F04716461F4690B056EACB
:1056B000070282469DF8609005D1302110B0BDE808
:1056C000F047FFF7D1BF00245FFA89F54FF00008DB
:1056D000304639462A46434606F08AFF30460DF8E2
:1056E0000420394643462A4606F082FF06460F4606
:1056F000013456EA0703E7D10DE010AA131913F895
:10570000411C092901D8303100E03731C9B2504677
:10571000FFF7AAFF013C002CEFD110B0BDE8F087E5
:1057200070B5049C24B901680B68D1B2984770BD6C
:10573000E4B20494BDE87040FFF7B4BF13B5002392
:1057400000920A460446FFF7EBFF204602B0BDE890
:105750001040FFF793BF07B500230092CAB2FFF7CE
:10576000DFFF0EBD2DE9F041069F064614461D469B
:105770002FB901680B68D1B29847BDE8F081002CC1
:1057800075F1000305DA2D21FFF76EFF644265EB2A
:105790004505FFB2304622462B460697BDE8F0414C
:1057A000FFF780BF07B5CB1700920A46FFF7DAFF75
:1057B0000EBD10B50446FFF7F5FF2046BDE81040CA
:1057C000FFF75CBF000000002DE9F34D19460746C6
:1057D000164610461C460022002306F0E3FC9DF806
:1057E0002880012538B13046214643A3D3E9002360
:1057F00006F0CEFC06E03046214641A3D3E9002363
:1058000006F0BCFC00B90546EDB230462146002248
:1058100000236DB106F0A8FC18B138462D21FFF722
:1058200023FF3949384602B0BDE8F04DFFF721BFEC
:1058300006F09AFC28B138462D21FFF715FF04F138
:10584000004400250022314B09E010461946002291
:105850002F4B06F041FB013502460B46EDB24545A4
:10586000F3D12146304606F05BF882468B4606F0BF
:10587000D5FE04460D4606F0D7F902460B465046C3
:10588000594606F04BF80A238246009338462246D2
:105890002B468B46FFF766FFB8F1000F1FD0384646
:1058A0001C49FFF7E6FE1AE0194B00225046594604
:1058B00006F0E8F98B46824606F07EFC04460A2292
:1058C00038462146FFF76EFF204606F075F902467E
:1058D0000B465046594606F021F882468B4608F1A1
:1058E000FF305FFA80F8B8F1FF0FDDD102B0BDE8FC
:1058F000F08D00BFAFF30080800350726C92DF43E5
:10590000800350726C92DFC3000102080000E03F88
:10591000000024400F0102089DF800100091FFF7DD
:1059200053BF13B5049904460091FFF7F5FF2046D5
:1059300002B0BDE81040FFF7A1BE01EBC001880036
:1059400000F18440704770B5044600F038FF2046EF
:105950004FF4602100F040FF2668142108363046DD
:10596000FFF7EBFF0125002105603046FFF7E5FF5B
:105970000560204600F05EFF20460521BDE870402E
:1059800000F044BFF8B506460468FFF756FB3568DB
:1059900000212846FFF7D1FF002380220360226008
:1059A0000122A2622361E3607379626113B19342C1
:1059B0002BD102E04FF4004060644FF6FF71E962C2
:1059C0000022012303F001006FF00706704305F188
:1059D000340148F6FF74083041F82240C0B2FF2479
:1059E00004FA00F6571005F118015FFA87FC51F828
:1059F0002C70013327EA0606682707FA00F4013203
:105A00003443052B41F82C40DCD128460021FFF718
:105A100094FF01230360F8BD08B54FF4E0120220A3
:105A20004FF48031FFF7D0F900200146FFF713FA59
:105A300001204FF48061FFF70EFA02200021FFF7EA
:105A40000AFA00210B4800F023FF0B48FFF70AFA7F
:105A5000FEF7DEFF2A20FFF7DBF900F013F800F075
:105A6000EBFE064800F0C0FE0548BDE80840FFF721
:105A7000EFBA00BF000001083F900200475901083B
:105A80008559010870B53A4C0F2125680122284636
:105A9000FFF717F8374A0321146801222046FFF761
:105AA00010F8354902220E680C213046FFF709F83C
:105AB00030460D210222FFF704F830460E21022263
:105AC000FEF7FFFF30460F210222FEF7FAFF2B48B8
:105AD0000921066801223046FEF7F3FF30460B210C
