:020000040801F1
:10000000000002207DD10108115A0108155A01088B
:10001000195A01081D5A0108215A010879D101080D
:1000200079D1010879D1010879D10108DD6A010887
:1000300079D1010879D10108016B0108B952010891
:1000400079D1010879D1010879D1010879D1010864
:1000500079D1010879D10108114E0108174E010824
:100060001D4E0108234E0108294E01089D4C010830
:10007000AD4C0108BD4C0108CD4C0108DD4C010818
:10008000ED4C0108FD4C010879D1010879D1010836
:1000900079D1010879D1010879D101082F4E0108E1
:1000A0004956010855560108615601086D56010868
:1000B0007956010885560108915601081D5101081D
:1000C00035510108295101084151010879D1010830
:1000D00079D10108A1580108AD580108B9580108A3
:1000E000374E010879D1010879D10108C1560108BC
:1000F000CD560108D9560108E55601080D4D0108F5
:1001000079D1010879D101089D56010879D10108FA
:10011000C5580108D1580108A9560108B55601086B
:100120001D4D01082D4D01083D4D01084D4D0108A3
:100130005D4D010879D1010879D1010879D1010813
:1001400079D1010879D1010879D10108E56E01085A
:100150006D4D01087D4D01088D4D010879D10108D3
:1001600079D1010879D1010879D1010879D1010843
:1001700079D1010879D1010879D1010879D1010833
:1001800079D1010879D101080B4BDA68D1030DD47C
:10019000D868C2060CD4D96811F0EF0F0AD1DB6819
:1001A00013F0020F0CBF05200C2070470120704790
:1001B000032070470B207047003C024013B50446F3
:1001C000FFF7E2FF01280FD164B100230193FF2262
:1001D0000192019810B101994A1EF9E7FFF7D4FF87
:1001E000013CEFE7062002E0002C08BF06201CBD02
:1001F00070B5064641B1012908D0022914BF4FF459
:1002000040754FF4007503E00D4601E04FF4807532
:1002100040F6FF70FFF7D2FF052820D1104C23696C
:1002200023F44070206121690D432561226922F089
:10023000F8032361206940F002010E432661226920
:1002400042F48033236140F6FF70FFF7B7FF216966
:1002500021F002022261236923F0F801216170BDBF
:10026000003C024000F17840B0F5803F04DA4FF4E2
:10027000804390FBF3F206E0B0F5003F02DB41144F
:100280000A1D00E00422D0000321FFF7B1BF0000E7
:10029000134B00F178429A4270B505460E461CD8C1
:1002A0001F20FFF78BFF052818D10E4C206920F482
:1002B00040712161226942F480732361206940F01A
:1002C000010121611F202E80FFF778FF062805D04D
:1002D000226922F00103236170BD072070BD00BFB9
:1002E000FEFF0700003C0240044B1A69002A04DAB2
:1002F000034800F18831586059607047003C024063
:10030000230167450B480C4A0368916800688342E3
:10031000F8D11068C00301D591680133C1F52430CC
:100320004030A822B0FBF2F14FF47A7000FB0310CA
:10033000704700BF2831002010E000E005F094BDB8
:1003400070470000224B2349186040F2DC524FF402
:100350007A73CB600B614B618B61CB610B624B623B
:100360000A604A608A600023834206DA1A4A012141
:1003700042F823105B18DBB2F6E7184940F2DC5272
:100380000A604A608A600023834208DA144A02EB5A
:1003900083024FF07E5101331160DBB2F4E700239A
:1003A000834208DA0F4A02EB83024FF07E51013399
:1003B0001160DBB2F4E70023834208DA0A4901EB5B
:1003C00083024FF07E5101331160DBB2F4E77047D6
:1003D000A42D0020182C0020602C0020CC2D002003
:1003E000542F0020F42D002058290020084B0949E3
:1003F00053F8202051F82000131A07EE903A9FED91
:10040000060AB8EEE77A67EE000A10EE900A704727
:10041000182C0020CC2D00200BD7A33B294BD3ED6B
:10042000007A92ED045AB8EE670A01EE900A264867
:1004300007EE101A70EE450ADFED246A017880EEAF
:10044000A61A82ED040A71EEC75A31B192ED052A5F
:1004500005EE812A82ED052A01E000235361D2EDE9
:10046000062A92ED056AB1EE623AB4EEC36AF1EE85
:1004700010FA08D4B4EE626AF1EE10FACCBFB0EE16
:10048000623AB0EE463AD2ED033AD2ED024A37EE86
:10049000634A9FED0F0A64EE247A21EE005AD2EDF2
:1004A000016AC7EE850A82ED037A92ED007A23EEA7
:1004B000261A05EE871A82ED053A71EE201A11EE22
:1004C000900A7047942F0020B42B00200024744918
:1004D0000000C8420B4B0C48D3ED007AB8EE670A17
:1004E0000022426180ED040A026380ED0B0AC264BF
:1004F00080ED120A826680ED190AC0F8842080ED32
:10050000200A7047942F0020202E002091ED005AE1
:100510009FED203A05EE900ADFED1F3A65EE037A73
:1005200045EEA37AD1ED014ADFED1C2A44EEA27A12
:1005300091ED024A44EE037A91ED030A40EE237AEC
:1005400091ED047ADFED160A47EE207AD1ED056AC7
:100550009FED141A46EEC17A91ED066ADFED121A8C
:1005600046EE217A91ED072ADFED103A42EE637AEA
:10057000086081ED034AC1ED024A81ED015A81ED27
:10058000076AC1ED066A81ED057AC1ED047A17EEBE
:10059000900A7047D58111BB7932F83A1A1B5E3B3D
:1005A000382F5740200B89400A771C404CF3063FF8
:1005B0000D4B0E4800221A605A609A60DA601A6188
:1005C0005A619A61DA611A625A629A62DA621A634D
:1005D0005A639A63DA63186458649864D864186537
:1005E00058659865D8657047E82C00206DE71CC1F8
:1005F000F8B504460D460079002116461F4606F060
:1006000079F8237A65F07F0040EA0301C9B22046F9
:1006100005F06EFF3546F219501B002806DD204616
:10062000002105F065FF05F8010BF4E720790121B1
:10063000BDE8F84006F05EB810B5084C01212079FD
:1006400006F058F82079002105F0FEFF204605212C
:1006500001220323BDE8104005F0CCBEDC2C0020B5
:1006600010B50A4C204605F0E3FE2079012106F082
:1006700041F82079002105F0E7FF012120460A46D4
:100680000323BDE8104005F0B5BE00BFDC2C002000
:1006900070B50D4C06460D462079002106F02AF86B
:1006A000237A46EA03012046C9B205F021FF294614
:1006B000204605F01DFF2079012106F01BF80120DE
:1006C000BDE8704005F0B4BFDC2C002013B5012359
:1006D00001460DF107020548FFF78AFF9DF8074024
:1006E000012005F0A5FF20461CBD00BFDC2C00202A
:1006F0001E4B10B51C78002C36D101221A70FFF762
:100700009BFF7520FFF7E2FF00F07E0068282BD1E9
:1007100017490B6843F003020A606B208021FFF742
:10072000B7FF642005F084FF6A201021FFF7B0FFB7
:100730006B200321FFF7ACFF6C202146FFF7A8FFD9
:1007400019202146FFF7A4FF1A200321FFF7A0FF7D
:100750001B201021FFF79CFF1C200821FFF798FFAA
:10076000BDE81040FFF77CBF10BD00BFA82C0020E3
:10077000802F0020022391FBF3F1013902304B1C42
:1007800008D010F8023C10F8012C00F8013C00F8E9
:10079000022CF2E77047000010B5064C06483B21DA
:1007A00022460E23FFF724FF20460E21BDE810400D
:1007B000FFF7E0BF442F0020DC2C0020074A10B5D3
:1007C000074C13682168581C8842106004D0FFF75A
:1007D000E3FF2268531C236010BD00BFA02C002043
:1007E000042B002010B5074C074A23681168581CD9
:1007F0008842206004D0FFF7CFFF2368581C206098
:1008000010BD00BF8C2B0020042B0020024A034B9C
:100810001A60FFF76DBF00BF58A00B3A982F002059
:1008200008B5FFF76FFD134BDFED137A93ED027AF6
:10083000B4EEE77AF1EE10FA06DC9FED100AB4EEA2
:10084000C07AF1EE10FA11D50D4A0E491368C21A9A
:1008500006EE902A9FED0C1AF8EE660A91ED002A3A
:10086000C0EE811A07EE212A81ED002A04490860B2
:1008700008BD00BF982D002035FA8E3C35FA8EBC9D
:10088000942D0020502900200024744910B5FFF752
:10089000A9FF0D4B0D491C680D4AB1F90800106005
:1008A00020181860B1F90A00B1F90C105C685060AA
:1008B00091609A682018586050189860054B197814
:1008C0004A1C1A7010BD00BF8C2C0020442F002041
:1008D000B02C0020D82C002030B51D4B1D481C68C2
:1008E00001781D4A94FBF1F514682D1B5C6806EE37
:1008F000105A94FBF1F554689268641B06EE904A16
:100900009C6894FBF1F1511A0022027002EE101A59
:1009100012481A60D0ED007AB8EEC60AB8EEE61AB0
:10092000B8EEC27A5A609A6060EE270A0C4B61EE0C
:10093000271A67EE272A85B0C3ED000AC3ED011A16
:10094000C3ED022A05B0BDE83040FFF769BF00BF24
:100950008C2C0020D82C00205C2B0020982F00200D
:10096000982D002030B5B3B0002400940025FFF787
:1009700013FF14F0FF0101AB124A02D1B2F90820B3
:1009800005E001290CBFB2F90A20B2F90C205A5136
:100990000A20043505F04CFEC42DE8D1312101A810
:1009A0006A4604F0DDF800990A2907DC064B43F893
:1009B00024000134032CD9D1012000E0002033B001
:1009C00030BD00BF442F00205C2B002008B5FFF78E
:1009D000F5FE0B4B0B4A1968B2F9000008181860B5
:1009E0005968B2F902000818B2F904109A68586000
:1009F00050189860044B19784A1C1A7008BD00BF43
:100A0000082C0020442F0020702B002010B5104B24
:100A10001C7800230F4910485A5892FBF4F207EE55
:100A2000902A0E4AD21892ED007A0D4AD218F8EEAA
:100A3000E76A92ED000A06EE870AC01880ED000A08
:100A40000020585004330C2BE4D10149087010BD2C
:100A5000702B0020082C0020382F0020402C002074
:100A6000B42F002010B50024B4F5C87F09D0FFF7DB
:100A700093FEFFF7ABFF40F6C41005F0D3FD013441
:100A8000F2E700231E481F4A1C5807EE904A9FEDCC
:100A90001E0AB8EEE77A1D4CC7EE000AE418D1181A
:100AA00094ED001A60EE811AC1ED001A0021195070
:100AB00004330C2BE6D192ED024ADFED154A34EEF9
:100AC000C45A144874EE055A92ED002A92ED013A88
:100AD000F5EEC05A0170F1EE10FA0F490F4AF1EE2F
:100AE000422AF1EE433AD8BFF1EE655AC1ED002A31
:100AF000C1ED013A81ED025AC2ED005A10BD00BFAE
:100B0000082C0020382F00200000C843402C002073
:100B10006DE71CC1702B0020B42F00208C2D00200D
:100B200010B54620002105F08FFD0024462004F07A
:100B30000101013405F0DEFDE4B2322005F078FD5C
:100B40000A2CF3D14520002105F07EFD452000212F
:100B500005F0D0FD4520002105F076FD452000215F
:100B600005F0C8FD2020032105F06EFD10200321B3
:100B700005F06AFD2420032105F066FD1120032104
:100B800005F062FD2520032105F05EFD22200321F2
:100B900005F05AFD0321232005F056FD37200021E2
:100BA00005F052FD4020002105F04EFD41200021BE
:100BB00005F04AFD3420002105F046FD03481721C9
:100BC0001622BDE8104005F085BE00BFE82F0020CA
:100BD000074B084A084809491A6058609960084A52
:100BE000084B094809491A6058609960704700BF6E
:100BF000402C0020A8E49C3A17F19DBA91459ABA7E
:100C000000001843DC2B00200000C041000084419C
:100C100038B5074D074C2A682368D01AB0F57A7F9B
:100C200005D3FFF733FEFFF7D1FE2968216038BDF9
:100C3000942F0020242B0020044A05480023136031
:100C40005360936003604360704700BFC82C00206E
:100C5000E82D0020F8B52DED068B9DED0C9A08EEE1
:100C6000103A69EE090A48EE080ADDED0D8A9DED9D
:100C70000E7A48EEA80AF6EE007A27EE270A824B93
:100C8000824C834F834E844D83ED000A0AEE900A16
:100C900010EE900A09EE902A0AEE101A0BF0B6FA3E
:100CA0000CF0C0FD0BF0E8FD01EE100A7B487C4A19
:100CB0007C4989EE012AC8EE812A90ED003AD2EDF6
:100CC000005AC8EE011A286823EE038A15EEA58A99
:100CD00094ED006AD1ED006A06EE468A66EE263A89
:100CE00045EE833A06EEA68A33EEA34A28EE029A30
:100CF00065EE864A14EE229A53EE264AD7ED007A24
:100D000096ED007A34EEA45A49EE077A65EE228A0F
:100D100058EE218A19EE101A24EE218A15EE028A65
:100D2000C7ED007A03F041FF08B100233B605E4C41
:100D30005E4FD4ED000A96ED000A48EE800A38684E
:100D400018EE901A85ED009AC4ED000A03F02DFF0D
:100D500008B100202060564E4E49564D91ED001AC4
:100D6000D6ED001A48EE011A286818EE101AC7EDE1
:100D7000008AC6ED001A03F018FF08B100223260A5
:100D80004D4B4B48424C484F444E3F4993ED002A4F
:100D900042EE089A42EE09AA02EE28AAD0ED006AB5
:100DA00085ED008A394DD4ED002A97ED003A3C4F8D
:100DB0003C4CD5ED004A39EEA64AD7ED003A3AEE62
:100DC000A25A3AEE037A96ED000A24EE841A64EEF3
:100DD000877A03EE851A94ED006A50EE457A06EEA6
:100DE000471A20EE043A46EE447A13EE873AD1EDE4
:100DF000005AF0EE401A20EE077A41EE251A06EE70
:100E0000053A03EE847AF0EE630A47EEA50A04EE93
:100E1000C57AB0EE642A03EE252A21EEA15A00EE2F
:100E2000A05A07EE256A02EE025A06EE065AC7EDF0
:100E3000000A84ED006AC6ED001A85ED002A15EE61
:100E4000100A0BF0E3F90CF0EDFC0BF015FD97ED3B
:100E5000000A04EE100A96ED006AD5ED003AD4EDD2
:100E6000000AC0EE044AC6EE045AC3EE847A80EE4D
:100E7000841AC7ED004AC6ED005AC5ED007A84ED2C
:100E8000001ABDEC068BF8BD4C2C0020F82B00207E
:100E9000202B00205C2C00207C2B0020F42B002039
:100EA000F02B0020FC2B0020782B0020802B002032
:100EB000582B0020842B0020982C00202DE9F0478F
:100EC000DFF8F890DFF8F8A03A4FDFF8F8803A4EF4
:100ED0002DED048B9AED007AD9ED008AD8ED007AD9
:100EE00097ED008A28EE870A08EE270AB7EE009AE7
:100EF00070EE000A10EE900A0BF088F928EEA81A9E
:100F000008EE081A044671EE011A0D4639EE612A00
:100F100012EE100A0BF07AF902460B4620462946DB
:100F20000CF0E8FA0BF0A8FC97ED006A9AED003A95
:100F3000D8ED006AD9ED002A66EE033A56EEA23AE1
:100F4000306033EEA34A14EE100A0BF05FF90CF098
:100F50007FFA0BF091FC97ED005A99ED008AD8EDDD
:100F6000004ADAED008A68EE055A48EEA45A70602D
:100F700075EEA57A17EE900A0BF048F928EEA87ADC
:100F800008EE087A044637EE070A0D4679EE400A65
:100F900010EE900A0BF03AF902460B46204629461D
:100FA0000CF0A8FA0BF068FCB060BDEC048BBDE857
:100FB000F08700BFF42B0020C82C0020F82B002065
:100FC000FC2B0020F02B002008B5FFF735FE0F4B5F
:100FD0000F494FF07E521A600E4A0F4B00200860F6
:100FE000186010600D490E4A0E4B086018601060C2
:100FF0000D490E4A0E4B0860186010600D490E48EE
:101000000E4A0F4B08601A6008BD00BFF02B00208D
:10101000F42B0020F82B0020FC2B0020202B00209C
:10102000782B0020582B00207C2B0020802B0020C8
:10103000842B0020982C0020CDCC4C3E6F12033A1C
:101040005C2C00201FB5069C0094079C0194054C65
:1010500024680294FFF7FEFD04B0BDE81040FFF7DE
:101060002DBF00BF7C0C00202DE9F041069ED06111
:101070000027976213601C68013EB3004FF001081F
:101080001546546008FA03F804F13402D01889B206
:101090004FEA4802A860EF62A9822E626A622B685A
:1010A000187904F0F7F81A49B0FBF1F0421E4FF638
:1010B000FF73A262E3622760E16821F00100E06053
:1010C000226A22EA08032362696A206A012E20EA62
:1010D00001002062D4BF04F1180004F11C0006F0E6
:1010E00001060368F600FF2202FA06F223EA020173
:1010F00001600368612202FA06F61E430660206A58
:10110000012348EA000121622360BDE8F08100BFAD
:1011100040420F0073B50024114B124AE05C0101FC
:1011200055186E68C6B15058297B0A2203F0B8FEE4
:101130006B7B00930C4B302202FB0432204640F2C2
:10114000DC513346FFF790FF084A697B52F82420B0
:101150003046083504F0CAF90134082CDCD17CBDD6
:1011600080090208EC19002080290020000C0020D2
:10117000416A43681A6A81EA02001862704742684D
:1011800083681968126A8BB2416A1142816A10B58C
:1011900014BF0022012281B10AB1C38211E0C48AC6
:1011A000191B8BB26FF4617419198CB240F2AE4105
:1011B0008C4294BF8382826203E012B1C382012316
:1011C0008362BDE81040FFF7D3BF00000148FFF77E
:1011D000D6BF00BF802900200148FFF7D0BF00BF65
:1011E000D02A00200148FFF7CABF00BFA02A002074
:1011F0000148FFF7C4BF00BF702A00200148FFF775
:10120000BEBF00BF402A00200148FFF7B8BF00BFA3
:10121000102A00200148FFF7B2BF00BFE0290020DC
:101220000148FFF7ACBF00BFB029002008B5FFF7A9
:1012300089F8BDE80840FFF76DBF0000064B185C59
:10124000072806DC054A302101FB0023988A80B27A
:10125000704740F2DC50704788090208802900205E
:1012600070B52DED028B0024324B1A68944235DAAA
:10127000314EA5007219204692ED008AFFF7DEFF7D
:1012800001EE100A2D482E4B2E4A411991ED002AED
:10129000F8EEC11A551908EE212A2A68FDEEC22A75
:1012A00012EE906A43F82460274E56F8241003EE9D
:1012B000901AB8EEE23AB8EEE34A13EE100A14EED2
:1012C000101A03F035FC04EE900ABDEEE45A15EE58
:1012D000100A46F824000134E4B2C5E71B4890ED3B
:1012E000007A00231A49184859581858401A06EE2F
:1012F000100A00EE101AF8EEC66AF8EEC07A46EE52
:10130000877A1449FDEEE70A10EE900A585004332C
:101310000C2BE7D10323934208DA0B4951F8230041
:101320000C4941F823000133DBB2F4E7BDEC028B3A
:1013300070BD00BFA42D0020542F0020F42D0020EC
:101340000029002058290020602C0020FC280020C3
:10135000CC2D0020182C002010B50B4B1868002352
:10136000834210DA094A0A4C995C04EB0112516875
:10137000547B0968621E074C343134F82340013332
:1013800041F82240ECE710BD6C2D002090090208C6
:10139000EC190020342B00200A4B30B51C680023C8
:1013A000A3420EDA084A094D995C05EB011201339C
:1013B0005168557B09686A1E343185B241F8225064
:1013C000EEE730BD6C2D002090090208EC190020DA
:1013D000072870B51E4B02DD08221A6000E0186075
:1013E00000241B480268944219DA1A4D1A4E655DB2
:1013F00006EB051601347268107903F04BFF174AAB
:101400007168B0FBF2F00B68411E8AB240F6C4105E
:101410009A620721D862284605F016F9E1E7002311
:1014200093420EDA0B49585C0B4901EB00104168FE
:1014300008681430410101F18441012008601B1843
:10144000EEE74FF47A70BDE87040FFF7A5BF00BF2C
:101450006C2D002090090208EC19002040420F007A
:1014600038B505460024AC4210D040F24C40FFF79E
:1014700093FFFA2005F0DCF84FF47A70FFF78CFF49
:101480000134FA2005F0D4F8E4B2ECE738BD0000EE
:101490002DE9F0412DED108B8EB09DED249A09EED3
:1014A000903A69EE090A49EEA90ADDED258A48EE6F
:1014B000A80ADDED297AB6EE00BA27EE8B0ADFF82E
:1014C00048830B9010EE900A0D9288ED000A0C9163
:1014D0000AF09CFE9DED288ADDED26BA9DED27CA17
:1014E0000CF0A0F90BF0C8F901EE100AC9EE811A50
:1014F000BB4EBC4DBC4CBD4F89EE012AC8EE812AC3
:101500002CEE0C3A0BEEAB3A08EE083ACDED011A90
:1015100013EE100A8DED022ACDED032A0AF076FEB5
:101520000CF080F90BF0A8F90CEE900A8CEE2CCAA6
:10153000CBEEACBA88EE2C4AD6ED006AF0EE4B8AC0
:1015400094ED006A46EEE68AD5ED00EA97ED00EAF2
:101550006EEEAE3A26EE067A26EEAE5A6EEE065ADB
:101560007BEE634A78EEC77A7CEE0CDA75EE65AAFC
:1015700035EE258A3BEEABDA34EEC7AA2DEEA70A8C
:101580002EEE2EFA6EEE86EA2EEE26EA66EE86FA4B
:101590006DEEAA9A0DEE080A74EE04CA7EEECE0A2B
:1015A0004DEE0A9A3FEE8F9A0CEEA00A4CEE899A05
:1015B00020EE001A09EEA91ACDED043A11EE100A38
:1015C000CDED058A0AF022FE0CF02CF9D6ED009A3A
:1015D00097ED009A94ED008AD5ED008A69EEA93A5C
:1015E00059EE093A28EE083A68EE88AA29EE28AAA8
:1015F00019EE88AA68EEA82A49EE29AA8DED093AC3
:1016000033EEE26A9DED097A7AEE0A1A76EE076AFF
:101610003AEEAA2ACDED061A8DED072ACDED082A5D
:10162000CDED0A6A0BF028F99DED032ADDED062ABF
:101630009DED0A0ADDED013A05EE100A6C4B6D498D
:101640006D4A6E483EEE8EEADDED071ADDED020AC8
:1016500022EE823A3FEECFFA10EE233A35EE054AFB
:10166000DDED055A93ED005ADDED044A644B9DED26
:10167000066ADDED026A6DEE8EDA20EE201A21EEAA
:10168000A37A4DEE0FDA11EE821A16EE267A75EE77
:10169000E47A91ED000AD3ED004A9DED0C2A03EEA9
:1016A000050A04EE832A4CEEA7DA9DED0D3AD2ED41
:1016B000007A04EE873A47EE057A9DED087A9DEDB3
:1016C000096A3BEE47BA69EE083A59EEA83A7DEE50
:1016D000ADDA3BEE46BAD0ED005A2DEE8AAA04EE02
:1016E0000BAA6DEEAAAA44EE23AA41EE055A2CEEEF
:1016F0000ACAC0ED005A1BEEAACA424890ED004A41
:10170000DDED0B0A0CEE043A44EE810A33EE275A63
:1017100072EE002A70EEA51AC2ED007A68EE857AA4
:1017200068EEA25A49EE217A59EEE15A48EE627A01
:1017300029EE851A48EE455A19EE221AD8ED006AAC
:10174000F0EE694A69EEA29A47EEA64A08EE211A1F
:1017500049EE059A81ED000AB0EE490A05EEA60AA7
:1017600048EEE19AB0EE682A01EE262A64EEA41A49
:1017700040EE001A09EEA68A42EE021A48EE081A56
:1017800087ED000A11EE900AC6ED004A85ED002AA9
:1017900084ED008A0AF03AFD0CF044F80BF06CF886
:1017A000D7ED003A02EE900A96ED006A95ED005AE8
:1017B000D4ED005A83EEA27A86EE224AC5EE226A62
:1017C00085EEA20A87ED007A86ED004AC5ED006A33
:1017D00084ED000A0EB0BDEC108BBDE8F08100BFB7
:1017E000A82F0020AC2F0020B02F0020A42F002015
:1017F0009C2F002054290020882B0020E42D00205D
:10180000B82D0020F02D0020C02C00202DE9F0473D
:10181000DFF8F890DFF8F8A03A4FDFF8F8803A4E9A
:101820002DED048B9AED007AD9ED008AD8ED007A7F
:1018300097ED008A28EE870A08EE270AB7EE009A8D
:1018400070EE000A10EE900A0AF0E0FC28EEA81AEA
:1018500008EE081A044671EE011A0D4639EE612AA7
:1018600012EE100A0AF0D2FC02460B462046294628
:101870000BF040FE0BF000F897ED006A9AED003A8D
:10188000D8ED006AD9ED002A66EE033A56EEA23A88
:10189000306033EEA34A14EE100A0AF0B7FC0BF0E6
:1018A000D7FD0AF0E9FF97ED005A99ED008AD8EDCF
:1018B000004ADAED008A68EE055A48EEA45A7060D4
:1018C00075EEA57A17EE900A0AF0A0FC28EEA87A29
:1018D00008EE087A044637EE070A0D4679EE400A0C
:1018E00010EE900A0AF092FC02460B46204629466A
:1018F0000BF000FE0AF0C0FFB060BDEC048BBDE849
:10190000F08700BFA82F00209C2B0020AC2F0020C8
:10191000B02F0020A42F00202DE9F04F2DED068BD5
:101920008BB009EE100A1A9808EE102A1E4608EE2F
:10193000901A0AF06BFC044630460D460AF066FC2D
:1019400002460B46204629460BF0D4FD0AF094FFD0
:1019500068EEA87A49EE097A48EE087A0AEE100A8B
:1019600017EE900A0AF052FC0BF05CFF0AF084FFBD
:1019700009EE900A89EE299AC8EEA98AC8EE299A3A
:1019800069EEA9AAB0EE6A0A09EE090A10EE100A79
:101990000AF03CFC0BF046FF07460E4618EE900A94
:1019A0000AF034FC3A4633460BF0A4FD0AF064FF1B
:1019B000F5EEC09AF1EE10FA08EE100ADFED7E9A0D
:1019C00002D5B1EE488A0AE0DFED7C0AF5EEC08A66
:1019D000F1EE10FAACBF38EE608A38EE208A48EE9D
:1019E000A8AAF6EE008A1AEE900A0AF00FFC0BF095
:1019F00019FF04460D4619EE100A0AF007FC2246AC
:101A00002B460BF077FD0AF037FF6D4B83ED008A14
:101A100028EE288A586083ED02AA09EE100A18EE13
:101A2000100A0AF0F3FB04460D460BF07DFC29EE8C
:101A3000289ACDE9020119EE100A0AF0E7FB804668
:101A400089460BF071FCCDE90401DDE90423DDE9F1
:101A500002010AF02FFC6AEE288ACDE9060118EE91
:101A6000900A0AF0D3FB06460F460BF05DFCCDE969
:101A70000001204629460BF09FFC04460D464046D7
:101A800049460BF099FC8046894642464B46204623
:101A900029460AF00FFCCDE90801304639460BF023
:101AA0008BFCDDE9002382468B46DDE906010AF066
:101AB00001FC524606460F465B46DDE908010AF086
:101AC000F9FB02460B46304639460AF041FA0AF065
:101AD000D3FE3C49DDE904230860204629460AF08C
:101AE000E9FB424604460D464B46DDE902010AF099
:101AF000E1FBDDE9002306460F46204629460AF0B1
:101B0000D9FB524680468946304639465B460AF044
:101B1000D1FB02460B46404649460AF017FA0AF046
:101B2000ABFE294A39461060DDE9002330460AF051
:101B3000C1FB524606460F46204629465B460AF040
:101B4000B9FB02460B46304639460AF001FA0AF064
:101B500093FE1E4B524618605B46DDE906010AF013
:101B6000A9FBDDE9002304460D46DDE908010AF082
:101B7000A1FB02460B46204629460AF0E7F90AF087
:101B80007BFE1349134A086013481449144BC0EDF7
:101B9000009A144808601449C2ED009AC3ED009AF7
:101BA000124A134B08601348136003600BB0BDEC7E
:101BB000068BBDE8F08F00BF00000000DB0F49403E
:101BC0009C2B0020A42F0020A82F0020AC2F002049
:101BD000B02F002054290020E42D0020B82D002033
:101BE000882B0020CDCC4C3EF02D00209C2F0020D7
:101BF0006F12033A3829002007B5054B054A1868CB
:101C0000054B0090002001461B68FFF785FE0EBDC6
:101C1000CC2B0020CDCC1CC1C82B002010B586B029
:101C2000089C0094099C01940A9C02940B9C0394C8
:101C30000C9C04940D9C0594FFF72AFCFFF7E6FD2D
:101C4000024B03489A68026006B010BD9C2B00202E
:101C5000742B00207FB50C4B0C4A59680091986892
:101C60000B49019008680290486803908968094808
:101C7000049101680591106851681B689268FFF72C
:101C8000CDFF07B000BD00BF802D0020982D0020A3
:101C9000702D00207C0C002010B5044602F00CFFD3
:101CA00007EE100AF8EEC77AC4ED017A02F004FFDD
:101CB000404200EE100AF8EEC00AC4ED020A02F03B
:101CC000FBFE01EE100AF8EEC11AC4ED001A10BDB9
:101CD000F8B5474C474F2DED088B05460E461E20A4
:101CE000032102F0C1FE1E210622434804F06CFECF
:101CF0002046FFF7D1FF1E200221012202F000FF43
:101D00003E4B3F4A3F484049D3ED007A93ED010AEC
:101D1000D3ED020AD4ED009A94ED019AD4ED028A33
:101D200039EE009A78EEA08A79EEA79AC7ED028A7A
:101D3000C2ED009A80ED009AC1ED008AC7ED009ACD
:101D400087ED019A28460AF061FA04460D460BF029
:101D5000EBFA0AF091FD29460AEE100A20460BF034
:101D60002BFB0AF089FD0AEE900A30460AF04EFA83
:101D700006460F460BF0D8FA04460D463046394663
:101D80000BF01AFB0AF078FD29460BEE100A2046EC
:101D90000AF072FD29EE2A8A01EE100A28EE0B8A5B
:101DA00009EE818A68EE8A1A68EEAA8A59EE0A8AD2
:101DB00001EE8B8A28EEA82A08EE082AF1EE688A3E
:101DC00012EE100A0AF022FA0BF02CFD0AF054FD74
:101DD00002EE900A88EE228A0C4B0D4A88EEA23A57
:101DE00083ED008A82ED003ABDEC088BF8BD00BFA0
:101DF000082B0020702D0020E82F0020DC2B002075
:101E0000D02B0020D42B0020D82B0020C82B002062
:101E1000CC2B00200A2008B504F00AFC1E2002F09A
:101E200051FE102804D10D4B1A6842F004001860CE
:101E3000012120221E2002F063FE142004F0F8FB92
:101E400002211E20012202F05BFE142004F0F0FBB0
:101E500000200146BDE80840FFF73ABF802F002070
:101E6000054B064893ED007AD0ED007A37EE670A0D
:101E700010EE100A704700BFBC2C00202C2B002055
:101E800010B5C489002224F0FF03C38113464FEA32
:101E9000620112F0010F15BF10F8111030F8111087
:101EA0004B4083EA1123082113F4004F4FEA430308
:101EB00018BF83F4405301399BB2F5D10132102A87
:101EC000E5D1C481180B10BD70B506460024A4F1FD
:101ED00060013046C9B202F0C7FD02220D4831460A
:101EE00004F072FD022813D102F0D8FD0A4D2853E8
:101EF0000234102CEBD12846FFF7C2FFEB8903F028
:101F00000F02B0EB020EDEF1000050EB0E0070BDD0
:101F1000002070BDE82F0020A82D00201E2102F017
:101F2000A3BD000010B50021044602F09DFD032270
:101F300021460B4804F048FD094804F058FD0328E9
:101F40000BD102F0A5FD044602F0A2FD000240EA1A
:101F5000044402F09DFD204310BD002010BD00BFD1
:101F6000E82F00207620582102F07EBD2DE9F843AD
:101F70007620FFF7D7FF1549154A4C898F880E89BF
:101F800010602502441B4FEA074884FB0667F309EB
:101F900043EA4762FD114FF0000912EB08020D4EB3
:101FA00045EB0903C6E90023CA88498884FB02453A
:101FB000230ACE0343EA056229120027921941EB56
:101FC00007030549C1E90023BDE8F883A82D0020D7
:101FD000C42C0020002C0020282900207620482135
:101FE00002F042BD08B57620FFF79CFF124B134963
:101FF00018600B684968C217414303FB0212A3FB38
:1020000000015118400D40EAC1224B150C49D1E99D
:102010000001121A63EB0103920A42EA83509912FB
:102020000AF04AFDDFED077A07EE100A27EE270ACD
:1020300010EE100A08BD00BFE82B00202829002060
:10204000002C00200000003D38B5144C2378F3B17B
:10205000134DFFF7C7FF2A781249531C2B70124DFE
:10206000D1ED007A07EE100A287837EE870A142897
:1020700081ED000A05D1FFF775FF0021297021705D
:1020800001E0FFF7ABFF2A78531C2B7038BDFFF738
:102090006DFFFFF7A3FF0120207038BD902B0020BB
:1020A0006F2B0020A02F00203C2900200000000002
:1020B00070B52F4B1878002852D007EE100A2D4E1D
:1020C0002D49F8EEC77A96ED000AC0EE270A9FED7B
:1020D0002B1AC0EE811AC1ED000A11EE900A0AF027
:1020E00095F8274A044610680D460AF08FF8024614
:1020F0000B46204629460BF0FFF902460B4600200E
:102100002049214C09F022FF17A3D3E900230AF04C
:10211000D1F80AF0B1FB1D4B18601D4B197819B1AD
:1021200020600020187005E01A4A2168126802F049
:10213000FFFC20600E4C00212170174C22780023F8
:1021400033606AB9FEF7DEF8144B154A1968401A75
:10215000904205D90C4B1348196801220160227086
:1021600070BD00BFAFF300800000000040A5E54057
:102170006F2B0020A02F0020AC2C002080E6C5474C
:10218000380C00200000F03FBC2C0020882C0020E0
:10219000300C0020800C0020542B00201C2E00202E
:1021A000809698002C2B002008B5FFF74DFFBDE866
:1021B0000840FFF77DBF000010B52DED028B9FEDAD
:1021C0000C8A1924FFF7F0FF0A4BD3ED007A0C209C
:1021D00038EE278A04F02CFA013CF3D1B3EE090A59
:1021E00088EE008A044880ED008ABDEC028B10BDA9
:1021F00000000000882C00202C2B002008B5FEF7E2
:1022000081F81B4B1B4A1C491860002010600860B5
:102210001A4B1B4818607620FFF780FE032004F05D
:1022200007FA7620FFF750FE20B116490A6842F0FF
:1022300008000860FFF796FE1349144A00230A209D
:102240000B70137004F0F4F9FFF7FEFE0A2004F09F
:10225000EFF9FFF7A9FF0A2004F0EAF9FFF7ACFF56
:10226000FFF7AAFF04480A4B0168196008BD00BFC8
:102270001C2E0020AC2C00202C2B0020380C002021
:10228000AEDC423E802F0020902B00203C29002015
:10229000BC2C002007EE100ADFED0B0ADFED0B7AF5
:1022A00027EE201A67EE276A61EE271ABCEEE60ACF
:1022B000BCEEE12A10EE102A054B06491A8012EEF8
:1022C000100A0880704700BFCDCC8C3F0000C84288
:1022D0006C0C00203C0C0020094B197881420DD970
:1022E000084B182202FB00304FF49661002342F2A3
:1022F000AC62C1800281038243824361704700BFA8
:102300006E2B0020540C0020084B182202FB0031D9
:10231000487850B9C888B0F5FA7F05D3B0F5577F33
:102320002CBF03200220704701207047540C00206E
:1023300010B50446FFF7E8FF064A182303FB042103
:10234000054ACB88118848438342ACBF0020012056
:1023500010BD00BF540C00206C0C002010B50446CA
:10236000FFF7D2FF064A182303FB0421054ACB8856
:10237000118848438342ACBF0020012010BD00BF3C
:10238000540C00203C0C00202DE9F0412E4B2F4D29
:1023900080462F4800261E700670A5F10A042D49BC
:1023A0000A7896424EDA15F80A0C04F02DF935F940
:1023B000087C35F8061C78434FF4805390FBF3F00B
:1023C000421897B225F8047C2389A07ABB4288BFC3
:1023D0002781FF2823D004F017F9B4F90C100A2242
:1023E000484302FB00F04FF48057E18990FBF7F37C
:1023F00002FB013290B2B4F91270208203B2B4F938
:1024000010109F42B8BF608208FB01F25B2042437C
:1024100063694FF4004792FBF7F15A186261F7B213
:102420003846FFF785FF10B107490120087038468C
:10243000FFF794FF10B1064B01221A7001361835D0
:102440001834ACE7BDE8F081902D00205E0C002030
:10245000912D00206E2B00200A4B10B518700846F5
:10246000FFF718FF0024074801788C4204DAE0B235
:10247000FFF732FF0134F6E70020BDE81040FFF718
:1024800083BF00BF6E2B00200C4B0D480D49006828
:102490000D4A0968126870B51C680C4B251A201883
:1024A0006E1844186D1A411AB61AAD18A4188A1A73
:1024B0001E605D60DC609A6070BD00BF500C002043
:1024C000302B0020842F0020D82D0020342B00201A
:1024D00010B53F4B1878012874D13E490C68FFF7BE
:1024E000BFFC3D4A01462046FDF798FF06EE900AE4
:1024F0003A4BBDEEE60A1C6810EE102AA24204DB3D
:1025000037480468A242B8BF144614F57A7F59D000
:102510003449354A09680020FDF780FF2F4AD2ED83
:10252000000A07EE100AB8EEE01AF1EE477AF4EE70
:10253000C17AF1EE10FA0CD4294BD3ED001AB8EEA3
:10254000E12AF4EE427AF1EE10FAC8BFF0EE427AD8
:1025500001E0F0EE417A254825490368CA6825491B
:10256000981A09680028B8BF4042884203DD18491C
:102570000220087019E0204801685818824208DDDE
:1025800014489FED1E3AD0ED002A72EE833AC0ED5A
:10259000003A591A8A4208DA0E4ADFED184A92EDDB
:1025A000004A34EE645A82ED005A1C1905EE904A36
:1025B000B8EEE56A124B76EE276ABDEEE60A83EDC9
:1025C000000A10BD0A4A0E49D068086010BD00BF5D
:1025D0007C2D00209C2C0020002F0020440C00208B
:1025E0004C0C0020342900201C2F0020740C0020EB
:1025F000182C0020200C00202C0C00200AD7233C93
:10260000500C0020F8B52DED028B364B18780128C0
:1026100039D1354D354E2C683268171B03EE107AD0
:102620009FED338AF8EEC33A324C334A216823EEE9
:10263000884A14EE100AFDF7F1FE6B6865682F4AB0
:102640002F4C07467068C11A04EE901AB8EEE45A8F
:1026500085F0004165EE085A15EE900AFDF7DEFEA2
:102660002168284A05463846FDF7D8FE06EE100ACE
:10267000254A6368FDEEC66A2846C2ED006A83F00B
:102680000041224A22E01E4D214C0020FDF7AEFE03
:1026900095ED007AD4ED007A27EE270A1D4A10EE58
:1026A000101AFDF7BBFE00EE900A1749BDEEE01AC6
:1026B000012081ED001AFDF799FED5ED011A94ED88
:1026C000002A61EEC22A144A12EE901AFDF7A6FE05
:1026D00007EE100A1148FDEEC77AC0ED007ABDEC96
:1026E000028BF8BD7C2F0020CC2D0020182C002060
:1026F000A69BC43AC82C0020742E0020902E0020E7
:10270000982D0020C82E0020842F0020E42E0020C9
:10271000340C0020202E00203C2E0020302B0020E6
:102720001C4B1D48197803290CD0052919D0012903
:102730000CBF4FF4FA614FF47A710160416081601F
:10274000C16024E015490B68B3F5966FB4BF1A4613
:102750004FF49662B3F57A7FACBF11464FF47A71AD
:10276000EBE700230E4A9858B0F57A7F05DBB0F509
:10277000966FA8BF4FF4966001E04FF47A70064957
:1027800058500433102BEDD1064801220270FEF799
:10279000E3BD00BF6C2B0020342B0020400C002038
:1027A000B82B0020882F0020074A1368B3F57A7FE2
:1027B00005DB40F23A718B42A8BF0B4601E04FF4B3
:1027C0007A731360704700BF500C0020154B1649F8
:1027D0001868164B10B5086048608860C8601448D7
:1027E0004FF4FA621A605A609A60DA6041680268CF
:1027F0008368C0689142A8BF0A469A42B8BF1A4689
:102800008242B8BF02460023B2F5FA6F05DD0849DF
:102810005858C2F5FA64001958500433102BF3D1FC
:1028200010BD00BF982B002040290020BC2D0020A7
:10283000342B0020044B586940F2D5618842CCBF4C
:1028400000200120704700BF182C002010B5FFF7B2
:10285000F1FF104BC8B11878022819D00E4C21781E
:1028600079B9FFF7FDFA0D490D4BC1F8EC0018607E
:102870000C480D4B0022C1F8F420C16801221960F8
:10288000227004490120087010BD034A18701070AE
:1028900010BD00BF7C2D0020542C0020202E0020D5
:1028A0009C2C0020182C0020740C002010B5604BCC
:1028B0001878012840F086805E495F4B5F4A604887
:1028C000D3ED000A9FED5F6A91ED007ADFED5E7A4D
:1028D00070EEC65A27EE270A30EE861AB4EEE50AE5
:1028E000F1EE10FA70EE606A98BFDFED585AB4EE60
:1028F000C10A98BF76EEA56AF1EE10FA82ED000AE1
:10290000C0ED006A08DB4E499FED502AD1ED001A58
:1029100071EEC22AC1ED002A4D4A4E49D36840F2F9
:102920004C40834246DD9368A3F2C35032280FD94E
:102930004148494B002280ED000A0A60C3F8A020FC
:102940004648474A474B002101701168196039E039
:102950003B4A92ED003AF5EE003AB4EEE33AF1EE7E
:1029600010FA06D5BDEE004AB4EEC43AF1EE10FA04
:1029700023DC3A4A3B4C117881B9394920680B680D
:10298000191A394881421DD90121117023602A4A40
:10299000304B002082ED000A186013E0334A00201B
:1029A00013EE101AFDF73AFD2A4B18602C48026806
:1029B000226007E0204A82ED000A00220A602649D0
:1029C000C1F8A02022482A4982688B68D01A214A7F
:1029D00004EE900A92ED007ADFED267AB8EEE45A22
:1029E0009FED250A27EE276A05EE006ADFED230A30
:1029F000B4EEE06AF1EE10FA09D4DFED216AB4EE2C
:102A0000666AF1EE10FAC8BFB0EE666A01E0B0EE99
:102A1000606A1C491C4A896816EE100AFDF7FEFC24
:102A200005EE900A194BBDEEE51A83ED001A10BDB4
:102A3000552B0020742B0020B02B0020282B0020C9
:102A4000EC2B002000003443E12E65420000B4432B
:102A5000182C0020502C0020202E00206D2B002050
:102A6000942F0020A42C002020A10700AC2E0020D1
:102A7000CC2D002035FA8E3C0BD7A33BDB0F49C091
:102A8000DB0F4940982D0020582E0020D82D002023
:102A900038B5FFF7B7FDFFF709FF284B1868C307E4
:102AA00003D4FFF715FDFFF77FFE25490A7822B111
:102AB000244C23780BB1FFF7E7FCFFF787FE224891
:102AC000C16840F24B42914201DD002318E01F4CE7
:102AD0001F49204B22680C78187800231E495A5051
:102AE0001E4920B11CB94FF4FA65CD5000E0CA5020
:102AF0000433102BF2D1E8E7E2500433102B0BD053
:102B0000174C154A18599A589042F5DB13495A58F0
:102B10008242A8BF0246EFE7094C207808B9FFF7C8
:102B2000FFFD2178012907D1064A1378012B03D133
:102B3000BDE83840FEF710BC38BD00BF582C00205F
:102B400030290020882F0020182C0020982B0020EE
:102B50007C2F0020B42B002040290020BC2D002019
:102B6000342B002070B5094D86B23146284601F05D
:102B700049FF0024B11C60F30F0489B2284601F01C
:102B800041FF60F31F44204670BD00BFC02F0020EE
:102B900070B5084D04468EB23146A2B2284601F007
:102BA00039FFB11C284689B2220CBDE8704001F003
:102BB00031BF00BFC02F002038B50B4B1C2404FBD5
:102BC000003408460D46FFF7CDFF2060281DFFF7B3
:102BD000C9FF606005F10800FFF7C4FFA060002096
:102BE000E060606138BD00BF202E002038B5094B81
:102BF0001C2404FB00340D462068FFF7C9FF606801
:102C0000291DFFF7C5FFA06805F10801BDE83840A0
:102C1000FFF7BEBF202E0020F8B5474C474B484A6F
:102C2000A36063624748484EC4F8B030C4F8CC3063
:102C3000464B22604FF08141E261C4F8A820C4F8FD
:102C4000C420434A61652167A0634249C4F88C608F
:102C5000C4F8E0304FF07E563F48C4F8F8303F4F9C
:102C60003F4B166000256FF03102C4F89010C4F895
:102C7000E40065602562A565E5656567A567E763AE
:102C80002564C4F89450C4F8AC50C4F8C850C4F8D3
:102C9000E850C4F8FC50C4F80051C4F804511A605C
:102CA000304A314B322019601060304B30485A2185
:102CB000FA2201601A60FDF78BFF2E492E482F4A39
:102CC000016016602E4B2F482F4AA1616163216578
:102CD000E166C4F88810C4F8A410C4F8C010C4F8A1
:102CE000DC10C4F8141140F27E411960106000231A
:102CF0002649274AC818D118066026480D60C21810
:102D00000433182B1660F3D14FF07C51224A234B29
:102D1000816000200121197010702149214A224848
:102D20000A60224B224907604EF6602240F2AA5008
:102D300018600A60F8BD00BF202E0020000096C376
:102D40000000C84200004843000040400000C84165
:102D5000340C0020CDCCCC3D9A99193F0000A04006
:102D6000440C00204C0C0020800C0020200C002083
:102D70002C0C002000007A44682D0020FC28002044
:102D8000982B00200AE81CC18C2D0020542F002015
:102D9000F42D0020582900207C2F0020552B0020E6
:102DA000700C0020B81E5540142C0020240C00206C
:102DB000780C0020002038B50146FFF7FDFE012009
:102DC0002421FFF7F9FE02201821FFF7F5FE03206A
:102DD0000C21FFF7F1FE04203021FFF7EDFE052066
:102DE0003C21FFF7E9FE06204821FFF7E5FE5421CC
:102DF0000720FFF7E1FE4FF4A670FFF7B3FE594B33
:102E0000594C186060210820FFF7D6FE4FF4A070DF
:102E1000FFF7A8FEC4F8F8004FF49E70FFF7A2FE7B
:102E20005249534D08604FF4A270FFF79BFE07EE26
:102E3000100A5048FDEEC77AC0ED007A4FF4A47036
:102E4000FFF790FE00EE100A4B4AFDEEC00A4FF469
:102E50009C70C2ED000AFFF785FE01EE100AFDEE40
:102E6000C11A4FF49A70C5ED001AFFF77BFE02EE0F
:102E7000100A424B424DFDEEC22A09206C21C3EDDF
:102E8000002AFFF799FE4FF4B470FFF76BFE28603D
:102E90004FF4B670FFF766FE68604FF4B870FFF746
:102EA00061FEA8604FF4BA70FFF75CFE3549086018
:102EB0004FF4BC70FFF756FE03EE100A3248FDEEE9
:102EC000C33AC0ED003A4FF4BE70FFF74BFE04EE7C
:102ED000100A2E4AFCEEC44A4FF48C70C2ED004A30
:102EE000FFF740FE2A4BA061186060632065E06632
:102EF000C4F88800C4F8A400C4F8C000C4F8DC001A
:102F0000C4F814014FF49070FFF72CFE05EE100A80
:102F10002049FDEEC55A4FF49270C1ED005AFFF7FB
:102F200021FE1D4A10604FF49470FFF71BFE06EE61
:102F3000100AFCEEC66A194B16EE900A18704FF490
:102F40009870FFF70FFE164908604FF49670FFF770
:102F500009FE07EE100AFCEEC77A124817EE902A17
:102F6000027038BD340C0020202E0020800C002080
:102F7000440C00202C0C0020200C00204C0C0020C5
:102F8000DC2B0020700C0020240C0020780C00208A
:102F9000682D0020982B0020142C00207C2F00206E
:102FA0008C2D0020552B002038B572B6002001462C
:102FB000FFF71CFE01202421FFF718FE03200C213F
:102FC000FFF714FE04203021FFF710FE0220182125
:102FD000FFF70CFE05203C21FFF708FE06204821E4
:102FE000FFF704FE07205421FFF700FE6C4B6D4CE9
:102FF00018686D4D4FF4A671FFF7CAFD08206021D7
:10300000FFF7F4FD69484FF4A071D0F8F800FFF71E
:10301000BFFD674908684FF49E71FFF7B9FD654A27
:10302000D2ED007AB8EEE70A4FF4A27110EE100A62
:10303000FFF7AEFDD4ED000AB8EEE01A4FF4A4712C
:1030400011EE100AFFF7A4FDD5ED001AB8EEE12A43
:103050004FF49C7112EE100AFFF79AFD564B574C35
:10306000D3ED002AB8EEE23A4FF49A7113EE100A4B
:10307000FFF78EFD09206C21FFF7B8FD20684FF4A3
:10308000B471FFF785FD60684FF4B671FFF780FDFE
:10309000A0684FF4B871FFF77BFD49484FF48C717D
:1030A0000068FFF775FD474908684FF48E71FFF718
:1030B0006FFD00252C46444A131905F19C01186840
:1030C000FFF766FD41480119086805F1A001FFF707
:1030D0005FFD3F4A131905F1A40118680434FFF796
:1030E00057FD0C35182CE6D13A48D0ED003AB8EE31
:1030F000E34A4FF4907114EE100AFFF749FD364988
:1031000008684FF49271FFF743FD344A137804EED8
:10311000903AB8EE645A4FF4947115EE100AFFF726
:1031200037FD2F48017805EE901AB8EE656A4FF426
:10313000967116EE100AFFF72BFD2A4A4FF498718C
:103140001068FFF725FD28484FF48A71FFF720FD2E
:10315000264B4FF4BA711868FFF71AFD2448D0EDDA
:10316000006AB8EEE67A4FF4BC7117EE100AFFF76A
:103170000FFD2049D1ED007AB8EE670A4FF4BE7119
:1031800010EE100AFFF704FD00204FF4C071FFF7A6
:10319000FFFC00204FF4C271FFF7FAFC62B638BDA5
:1031A000340C0020200C0020440C0020202E002095
:1031B000800C00202C0C00204C0C0020DC2B00206C
:1031C000682D0020FC280020542F0020F42D002022
:1031D00058290020982B0020142C00207C2F002040
:1031E000552B00208C2D0020CDCC4C40700C0020A5
:1031F000240C0020780C002038B54FF49870FFF7AD
:10320000B1FC114B114D18604FF4AA70FFF7AAFCE6
:1032100028604FF4A870FFF7A5FC0D4C20604FF418
:10322000AE70FFF79FFC68604FF4AC70FFF79AFC3C
:1032300060604FF4B270FFF795FCA8604FF4B07077
:10324000FFF790FCA06038BD8C2D0020402C0020A2
:10325000B42F002038B5144B144D1868144C4FF49B
:103260009871FFF795FC28684FF4AA71FFF790FC5E
:1032700020684FF4A871FFF78BFC68684FF4AE71BB
:10328000FFF786FC60684FF4AC71FFF781FCA8681B
:103290004FF4B271FFF77CFCA0684FF4B071BDE849
:1032A0003840FFF775BC00BF8C2D0020402C00205B
:1032B000B42F0020274A916840F24B43994270B5E1
:1032C00015461E460BDC244C2078012807D14FF40C
:1032D0007A70FEF761F8214A002323701370A96801
:1032E0001C48B14214DC036840F26C7293420FDD5B
:1032F000406840F24B4188420ADCFDF733FBFDF7A2
:10330000B1FBFFF7A7FFFDF7E5F80320FEF7A8F8EC
:10331000104B9A6840F26C70824210DD0E490B78B7
:103320006BB90F4A1078012809D10E4B087040F292
:103330004C421A605A609A60DA60FDF7CBF8054992
:10334000886840F24C43984202DD054901220A7028
:1033500070BD00BF182C002030290020B42B0020A5
:10336000882F0020342B002038B5FDF779FF164B4D
:10337000DA6840F24B40824201DCFFF79BFF134AC0
:10338000114B117849B9124C2178012905D1114C02
:10339000D8682468A042C8BF11701A690E490F4C42
:1033A00040F2DC539A4203DD01220A70227006E0EB
:1033B000207800250D7010B1FDF78CF82570BDE860
:1033C0003840FFF743BA00BF182C0020B42B002070
:1033D00030290020982B00207C2F0020002B00207B
:1033E00038B54FF48E70FFF7BDFB0F4B002518600A
:1033F0002C4604F19C00FFF7B5FB0C494A191060FC
:1034000004F1A000FFF7AEFB094B5919086004F165
:10341000A400FFF7A7FB074A0C3453190435482CC6
:103420001860E6D138BD00BFFC280020542F0020D2
:10343000F42D00205829002008B5124B12481A78A4
:1034400022B10278452002F004010CE00F4909780E
:1034500041B1037813F00F0F4FF0450014BF002166
:10346000012100E0452003F045F909480178452095
:10347000012918BF002103F03DF903490B785A1CBC
:103480000A7008BD902D0020AC2B0020912D00204B
:103490007C2F0020074BD3ED007AF5EEC07AF1EED9
:1034A00010FA44BF9FED047A77EE877A17EE900A00
:1034B000704700BF742B0020DB0FC940F8B5002512
:1034C00006460F4605702C460F4803F079F828B9D8
:1034D0000120013503F0ACF8EDB206E00A4803F034
:1034E00082F830550134E4B200253CB1331913F8A9
:1034F000010C3B2802D100223255F8BD092DFAD823
:10350000791E8C42E0DBF6E7E42F00201FB5002196
:103510000B2201A8009105F031FC68460F21FFF74E
:10352000CDFF684605F022FB09F0A6F905B000BD05
:1035300038B505460024AC4204D00134FFF7E6FF5D
:10354000E4B2F8E738BD0000084B10B51C2404FBBA
:103550000034FFF7DBFF2060FFF7D8FF6060FFF764
:10356000D5FFA0600020E060606110BD202E00202B
:1035700010B50446FFF7CAFFDFED0B7A07EE100A1D
:10358000B4EE677AF1EE10FA4FF00003074A04D167
:10359000074914700B70012010BD064813704FF4DA
:1035A0007A710160184610BD66E6F6426C2B002069
:1035B00030290020400C002038B58C4803F000F87A
:1035C000002800F0AA81894803F00DF8884B187094
:1035D0003138292800F2A181DFE810F05A015C019E
:1035E000610170017C019F019F019F019F019F016B
:1035F0009F019F019F019F019F019F0134003E0099
:103600004F0060009500A100AF00BE00D000E000B8
:10361000E400F400FA0030012A004B019F019F01F1
:103620009F019F014D01520154019F019F018F0194
:10363000FFF76CFFFFF76AFFFFF768FFBDE8384050
:10364000FFF764BF0020FFF77FFF0120FFF77CFF3B
:10365000FFF75CFF674A0EE00320FFF775FF0420C9
:10366000FFF772FF0620FFF76FFF0720FFF76CFFE1
:10367000FFF74CFF604A106038BD0220FFF764FF7F
:103680000520FFF761FFFFF741FF00EE900ABCEE57
:10369000E01A5A4B11EE100A187038BD0820FFF7D7
:1036A00053FFFFF733FF564AC2F8F800FFF72EFF2B
:1036B00004EE900A5348BDEEE45A80ED005AFFF73D
:1036C00025FF05EE900A5049BDEEE56A81ED006ADE
:1036D000FFF71CFF06EE900A4C4BFDEEE67AC3EDB9
:1036E000007AFFF713FF07EE100A494ABDEEC70A3A
:1036F00082ED000AFFF70AFF464908600920BDE88D
:103700003840FFF721BFFFF701FF434B1860FFF779
:10371000FDFE04EE100A414ABDEEC43ACBE0FFF7CD
:10372000F5FE3F4D3F4C286004F11805FFF7EEFE13
:1037300044F8040FAC42F9D138BDFFF7E7FE03EEC1
:10374000100A3949FDEEC33A13EE904AC1ED003A32
:10375000FFF7DCFE354A0DE0FFF7D8FE02EE100A57
:103760003148FDEEC22A12EE904AC0ED002AFFF762
:10377000CDFE2F4A02EB8404206038BDFFF74CFADF
:10378000FFF712FCFFF766FDFDF7ECF8FCF7A2FE71
:10379000FEF740FBBDE83840FEF730BDBDE83840DD
:1037A000FDF7E0B8FFF7B2FE224C2060FFF7AEFE57
:1037B000FFF7ACFE6060FFF7A9FEFFF7A7FEA06071
:1037C000FFF7A4FEFDF74EF9BDE83840FFF742BD14
:1037D000FFF79CFE184C2060FFF798FE6060FFF733
:1037E00095FEA060BDE83840FFF7DEBBE42F002067
:1037F000280C0020340C0020682D0020552B0020C0
:10380000202E00202C0C0020200C0020440C002036
:103810004C0C0020800C0020142C0020982B002041
:10382000FC28002054290020E02D0020542F0020E7
:10383000F42D0020402C0020DC2B0020FFF766FE3A
:10384000364C2060FFF762FE00EE100A3449FDEEB0
:10385000C00AC1ED000AFFF759FE01EE100A314B14
:103860002068FCEEC11AC3ED001ABDE83840FEF72F
:1038700011BD0D2000E00220BDE83840FFF758BE22
:103880000920F9E7FFF790FBBDE83840FCF722BEBE
:10389000012000E00220BDE83840FFF769BE0320A8
:1038A000FFF766FE002838D0FFF730FE02EE900AE0
:1038B0001D4ABDEEE23A82ED003A38BD0420FFF722
:1038C00057FE50B3194B184800224FF47A711A7002
:1038D000016038BD0520FFF74BFEF0B10024FFF773
:1038E00015FE01EE900ABDEEE12A114912EE100A12
:1038F00060500434102CF2D138BDFFF707FE07EEFC
:10390000100AF7EE007AB4EE677AF1EE10FA094881
:1039100001D1012200E00022027038BD700C0020AD
:10392000240C0020780C0020400C00206C2B002080
:10393000B82B0020912B002001482C2102F0B4B8B4
:10394000E42F002008B501460A22034802F02AF9B4
:10395000BDE80840FFF7F0BFE42F002008B501469E
:103960000A22034802F017F9BDE80840FFF7E4BF58
:10397000E42F002008B501460A22034802F039F975
:10398000BDE80840FFF7D8BFE42F002038B5054652
:103990000024AC4205D000200134FFF7EBFFE4B275
:1039A000F7E738BD07B508F031FC0B4602210246A7
:1039B0000091044802F0D8F903B05DF804EBFFF77A
:1039C000BBBF00BFE42F0020074B10B51C2404FB35
:1039D00000342068FFF7E6FF6068FFF7E3FFA068A8
:1039E000BDE81040FFF7DEBF202E002038B50346AB
:1039F0000D460B481946144602F05BF80848094981
:103A000002F057F8084801680D4203D104480749FD
:103A100002F04FF802482146BDE8384002F059B89C
:103A2000E42F0020D20B0208802F00209809020802
:103A300073B5374C374D0A2220460F2102F0E0F8CB
:103A400001262046344902F034F82FA3D3E900239D
:103A50002046009602F08DF92046304902F029F800
:103A600020462F4902F035F820462E4902F021F871
:103A700020462D4902F02DF820462C4902F019F875
:103A80000A222046062102F0BBF82046284902F00F
:103A900010F8204604210A2202F0B2F831462A46E4
:103AA0002448FFF7A3FF02212A462348FFF79EFF81
:103AB00008212A462148FFF799FF2A46204D214830
:103AC0000421FFF793FF10212A461F48FFF78EFFBE
:103AD00020212A461D48FFF789FF40212A461C481D
:103AE000FFF784FF80212A461A48FFF77FFF1A4814
:103AF0004FF480712A46FFF779FF1849204602B03B
:103B0000BDE8704001F0E5BF000000A099990940B0
:103B1000E42F0020060A02089D090208B0090208E5
:103B2000BD090208C8090208D8090208DF0902080D
:103B3000F3090208FC0902080F0A02081D0A02081C
:103B4000890A0208270A0208340A0208410A020800
:103B50004F0A02085F0A0208700A0208800A020877
:103B6000F0B52DED028BC04C23786B2B83B000F0A9
:103B700045814BD8642B00F0CF802DD8362B00F038
:103B80009F8216D8232B00F0968209D8212B40F073
:103B9000A58201200090B2A3D3E90023B34887E2B5
:103BA000242B00F05682252B40F09882AF4800214C
:103BB00076E2622B00F0918000F2A480612B40F04D
:103BC0008D820020FFF700FF0120FFF7FDFEA84BCC
:103BD0001868FFF7E7FE2CE2672B00F0CF800DD8C6
:103BE000652B00F0B980662B40F07882A14C2068EC
:103BF000A14CFFF7D7FE04F11805B5E0692B40D0C2
:103C000000F2E3809D4C04F11805CCE0722B00F02B
:103C1000A1811FD86E2B00F0878114D86C2B00F087
:103C200053816D2B40F05A82954E306808F0EEFAC1
:103C3000062502460B468D48009502F095F8FFF7E1
:103C40007BFE70685EE1702B00F07B8100F27B816F
:103C50000420ECE1752B00F0E18107D8732B00F014
:103C60008C81742B40F03A820024CFE1792B00F054
:103C7000E4817A2B00F0E581762B40F02F82092039
:103C8000D5E1804C2068FFF78DFE6068FFF78AFE63
:103C9000A0687D4CFFF786FE2068FFF783FE606812
:103CA000FFF780FEA068794CFFF77CFED4ED007A28
:103CB000BDEEE70A10EE100AFFF75CFED4ED010A34
:103CC000BDEEE01A11EE100AFFF754FED4ED021A11
:103CD000BDEEE12A12EE100AB8E10320FFF774FEF0
:103CE0000420FFF771FE0620FFF76EFE0720FFF7A6
:103CF0006BFE6748006808F089FA0B46022102460D
:103D000000910FE10220FFF75FFE0520FFF75CFE48
:103D100060495648097886E10820FFF755FE5E485D
:103D2000D0F8F800FFF73EFE5C490868FFF722FE76
:103D30005B4A1068FFF71EFE5A4B1868FFF71AFE21
:103D400059480068FFF716FE58490868FFF72AFE31
:103D50000920FFF739FE6CE1554B1868FFF722FE8A
:103D60005449424809685EE154F8040FFFF71AFE0F
:103D7000AC42F9D10420FFF709FEA9E14E4C04F151
:103D8000180554F8040F08F041FA0B4606210246C4
:103D90000091364801F0E8FF2C21344801F084FE00
:103DA000AC42EED194E154F8040F08F02FFA024629
:103DB00006200B4600902D4801F0D6FF2C212B4801
:103DC00001F072FEAC42EED182E13C4C94ED004A2F
:103DD000FDEEC44A14EE900AFFF7CCFD94ED015AB3
:103DE000FDEEC55A15EE900AFFF7C4FD94ED026A88
:103DF000FDEEC66A1D4816EE901A51E1304F314E65
:103E0000386808F003FA062502460B461748009565
:103E100001F0AAFFFFF790FD306808F0F7F9009570
:103E200002460B46114801F09FFFFFF785FD7868B9
:103E300008F0ECF9009502460B460C4801F094FF9F
:103E4000FFF77AFD706808F0E1F9009502460B462D
:103E5000064801F089FFFFF76FFDB86852E000BF28
:103E6000000000A099990940280C0020E42F0020B0
:103E7000340C0020FC28002054290020F02D0020C4
:103E8000DC2B0020982D0020802D0020702D00209C
:103E9000682D0020552B0020202E00202C0C002007
:103EA000200C0020440C00204C0C0020800C002032
:103EB000142C0020982B0020502F0020082B0020CD
:103EC000402C0020B42F0020864C874DFCF77EFD4F
:103ED00022682E7892FBF6F0FFF74CFD6368287895
:103EE000002693FBF0F02660FFF744FDA2682978D6
:103EF0007E48666092FBF1F10A2201F081FEA66025
:103F00002E70EBE008F082F9009502460B467748E8
:103F100001F02AFFFFF710FDB06808F077F900956F
:103F200002460B467148C3E071480068FFF73AFD4E
:103F300070490868FFF71EFD6F4A1068FFF70EFD15
:103F400077E00D2073E06D4B684819680A2201F094
:103F500015FEB2E06A4C2068FFF724FD6068FFF7A9
:103F600021FDFFF797FA08F051F902460220009070
:103F70000B465E4801F0FDFEB0E0624C2078604CDC
:103F8000FFF7E0FC2068FFF70DFD6068FFF70AFD12
:103F9000FFF780FAFFF706FDFDF762FFFFF702FD6E
:103FA00059480078FFF7E6FC0024E1B205299ABFE2
:103FB000564951F8240000200134FFF7DBFC082C9F
:103FC000F3D10024524AA0580434FFF7D3FC102C3C
:103FD000F8D10420FFF7DAFC4E4BD88807EE100A20
:103FE0009FED4D3AF8EE472AC2EE833A13EE900A5F
:103FF000FFF7D8FC49490878FFF7A4FC3B4803B019
:10400000BDEC028BBDE8F04001F058BD3F4BE058DD
:104010000434FFF7AFFC182CF8D1EFE70020FFF7CE
:10402000A9FC324800210A2201F0EAFD45E0FFF731
:10403000ADFC2E4801F042FD3FE00B20FFF7A6FC4F
:10404000DCE7FDF70DFFFFF7ADFC0020FFF792FC6A
:10405000D4E7304CE18807EE901A9FED2F8AB8EE36
:10406000670AC0EE080A10EE900AFFF79BFCB4F94D
:10407000102001EE102AF8EEC11A81EE882A12EE05
:10408000100AFFF78FFC94ED057A9FED253AF8EEC4
:10409000C72AC2EE833A13EE900AFFF783FCADE71E
:1040A0000A2203B0BDEC028BBDE8F04001F0A8BDD0
:1040B00001F05FFE01E0FFF7BBFC582222700DE02B
:1040C0000024134AA0580434FFF754FC102CF8D1F4
:1040D000064801F0F3FC134B58221A7003B0BDECF4
:1040E000028BF0BD082C0020702B0020E42F002054
:1040F000700C0020240C0020780C0020802F002061
:10410000C82C0020302900207C2D0020182C0020F5
:10411000342B0020540C00200000C8427C2F0020CB
:1041200000007A44280C002010B535484FF4E131E6
:1041300002F044FA4620002102F086FA46200021CF
:1041400002F0D8FAFEF736FE4FF48A70FEF70AFD49
:10415000DFED2C7A07EE100AB4EE677AF1EE10FA72
:1041600005D0FEF759FD0124FEF71EFF00E00024F4
:10417000FCF7D6FC0420FDF72BF90620FDF756F8D6
:10418000FFF72EF9FCF742FBFCF7ECFB0028FBD015
:10419000FCF7AEFA1CB1FCF765FCFEF705FFFCF777
:1041A00007FAFFF729F8184B184C4FF07B52DA66E4
:1041B000C3F88820FCF708FF206840F01001216058
:1041C000FDF728FEFDF718FDFEF718F823681049E3
:1041D00043F02002096822600120FEF73DF92068C3
:1041E00040F040032360FCF78DF80A4A012110607B
:1041F000462002F07FFA08480021017010BD00BF80
:10420000E42F0020CDCC4C40202E0020802F002019
:10421000700C00208C2F0020882F00206548664BF2
:1042200001681A682DE9F041541A07EE904A9FED93
:10423000637AB8EE670A2DED048BC0EE070A604D75
:10424000026084B05F4E604F0024C5ED000AFCF7A9
:1042500043FBFCF7DBFB5D4B56F8040F03EB44110B
:10426000FCF754F90134032C47F8040FF3D1584CF0
:1042700053496268574D0092A068DFF87C81019035
:104280000E680296AA68696823682868524EFCF78F
:10429000D9FE94ED001AFDEEC11A98ED009A11EEC8
:1042A000900A00F0B7FC94ED012AFDEEC22A074601
:1042B00012EE900A00F0AEFC94ED028ABDEEC83A10
:1042C0003D1813EE100A00F0A5FC2B1803EE903AEF
:1042D000B8EEE34AF7EE008A14EE100A00F082FC12
:1042E00005EE100AF0EE684A49EE454A3B4F3C4D58
:1042F0003C4A2878D7ED025A58EE245A96ED006AC7
:1043000075EEC66AC2ED006A88BB94ED008AFDEEC8
:10431000C87A98ED009A17EE900A00F07BFC94EDB5
:10432000010ABDEEC07A804617EE100A00F072FC5A
:1043300094ED028AFDEEC80A804410EE900A00F067
:1043400069FC08EB000101EE101AF8EEC11A11EE3B
:10435000900A00F047FC02EE100A49EE428AD7EDBF
:10436000022A58EE282A0123C6ED002A2B701E4887
:104370001C4A1E4B1E4992ED003A90ED004A93ED07
:10438000005A73EE044AD1ED003A64EE855A43EECA
:10439000235AC0ED005AFDF757FE164A1068C207AF
:1043A00001D4FDF785FE04B0BDEC048BBDE8F041FF
:1043B000FEF76EBB902F0020942F0020002474493C
:1043C0007C0C0020342F00207C2D0020E82C0020C5
:1043D000802D0020982D00201C2B0020B42F0020C1
:1043E000F8280020682B002034290020142B0020FE
:1043F000480C0020582C00208C2D002009480A4B26
:1044000001681A68531A07EE903A9FED087AB8EEE1
:10441000670A07490260C0EE070AC1ED000AFEF70D
:10442000A3BF00BF942B0020942F002000247449C8
:104430007C0C002008B50D480D4B01681A68531A12
:1044400007EE903A9FED0B7AB8EE670A0260C0EE75
:10445000070A094A09491068C1ED000A5168FDF7C9
:1044600037FCBDE80840FDF7F5BB00BF182B002066
:10447000942F002000247449C82C00207C0C0020BC
:1044800008B51148114B01681A68531A07EE903AA3
:104490009FED0F7AB8EE670A9FED0E1AC0EE070A7D
:1044A00002600D4960EE811AC1ED000ABCEEE12AFE
:1044B00012EE102A90B2FDF767FFFFF77DF8BDE816
:1044C0000840FFF74DBB00BFDC2D0020942F0020DB
:1044D0000024744900007A447C0C002009480A4BEF
:1044E00001681A68531A07EE903A9FED087AB8EE01
:1044F000670A07490260C0EE070AC1ED000AFEF72D
:104500009BBF00BFD42C0020942F002000247449AE
:104510007C0C002010B5FBF7F5FE2049204B0A6803
:10452000204C1860801A2060FCF772FB216842F270
:104530000F7399422AD91C4C2268501C2060FFF747
:104540006DFE2168C90701D4FFF758FF22680A23CE
:10455000B2FBF3F003FB102111B9FFF76BFF11E081
:104560000F4A124B10681968114B421A9A4202D92D
:10457000FFF786FF06E00F490A68801A984201D9C2
:10458000FFF7ACFF064B054A19681160064803683F
:10459000632B01D90021016010BD00BF8C2F0020CA
:1045A000942F0020A82B0020582C0020DC2D002068
:1045B000A0860100D42C002008B5FFF7B5FDFFF759
:1045C000A9FFFCE70F49104B104810B5D1ED007A58
:1045D000B7EE007A37EE670A0D4C1A7884ED000AC0
:1045E0000C4C02700421204601F0DEFE204601F052
:1045F00088FF002360602372FBF784FE064A106088
:1046000010BD00BF480C00207C2F0020002B002094
:10461000142B0020DC2C0020A42C002010B50C88CA
:104620008068A4B24FF6FF739C4205D00B889BB202
:10463000934201D0832010BD0B1D0A18934204D26F
:104640001A680132F6D10433F7E7002010BD38B5FF
:104650000B8898B20C46411E8DB24FF6FD72954202
:1046600003D84EF6EE63984203D16088411C8DB2A8
:1046700000E000252046FBF7F5FD052805D1A01C2C
:104680002946BDE83840FBF703BE38BD70B5054686
:104690000C461646FFF7C2FF60B128462146FFF7D9
:1046A000D6FF052806D1284621463246BDE870408F
:1046B000FFF7B4BF70BD016840680B8802889BB2E9
:1046C00092B233B94FF6FF7082420CBF0846002009
:1046D00070470AB1002070474FF6FF718B42F9D145
:1046E000704770B5856800204D190631A94214D273
:1046F0000C884FF6FF73A4B29C420CD094420AD0AF
:104700000B1DAB4205D21E88B6B2A64203D00433BD
:10471000F7E7013080B20431E8E770BD2DE9F74FCB
:10472000856881460E4692469B4601EB05080C1DA6
:10473000444524D22368013323D00434F8E735F804
:10474000023C204699B2FBF7A3FD052835D1A01CF9
:104750003946FBF79DFD05282FD10434043D01990E
:104760008D421AD92F884FF6FF72BFB29742F5D00B
:104770005F45F3D0B21DA24209D34445DFD3812166
:104780001CE00AF10400023D01905544E7E710885F
:1047900081B2B942E2D00432EDE7514648464FF6C5
:1047A000FF72FFF773FF014640B93046FBF770FD1B
:1047B000052814BF0146002100E001460846BDE877
:1047C000FE8F2DE9F04705460F469046FFF773FF31
:1047D0000446002861D0AB6800EB0309A9F102068A
:1047E000A64210D9308881B2B94214D136F8022CD1
:1047F00093B2B01E434502D10020BDE8F0874FF6CA
:10480000FF718B4201D0261D0BE04146FBF740FDB6
:104810000528F8D1F0E7043EE2E73268531C03D0E4
:1048200004364E45F9D30DE030464146FBF730FDE6
:10483000052836D1B01C3946FBF72AFD0528DBD008
:10484000BDE8F08721463A462846FFF74AFFAB68A5
:104850000130990882B2481E824221D26E68B44269
:1048600008BF2E684EF6EE613046FBF711FD0528B5
:1048700017D1301D4146FBF70BFD052811D1B01DA6
:104880003946FBF705FD05280BD12846314622465F
:104890003B46BDE8F047FFF741BFAB20BDE8F087DE
:1048A0008120BDE8F08710B50446FBF71DFD2168A7
:1048B00020460022FFF7EAFE0146A0B920680288E0
:1048C0004FF6FF7392B29A4205D1FBF7E1FC05283F
:1048D00001D0014607E0616820464FF6FF72BDE84F
:1048E0001040FFF7D3BE084610BD2DE9F041044645
:1048F000FBF7FAFCAB232268A38117886668BFB276
:1049000035884EF6EE639F42ADB21CD04FF6FF786D
:10491000474502D0002F32D037E015B92046114666
:1049200009E09D4209D100213046FBF7B1FC052882
:104930003CD1216820463A4636E0BD4237D1204678
:10494000FFF7B1FF32E03DB91146204632464FF63F
:10495000FF73FFF7E3FE29E04FF6FF70854226D193
:10496000314620462A46FFF791FE0146A081F0B964
:104970002068FBF78DFC052808BF002016E0B5B1C4
:104980009D42204631460ED1E1E715B92046114639
:1049900009E09D420BD100213046FBF779FC052848
:1049A00004D1216820464246FFF770FEA081A0890D
:1049B000BDE8F0814FF6FF7370B513800E46818914
:1049C00084290446154604D1FFF78FFF08B1A0895A
:1049D00070BD2046FFF76FFE90B1A268931E1B18B2
:1049E000063083420AD319888AB2B24204D133F81E
:1049F000020C2880002070BD043BF2E7822070BDCD
:104A0000AB2070BD07B50DF10602FFF7D3FFBDF86F
:104A100006000EBD8389842B70B504460D461646EC
:104A200004D1FFF762FF08B1A08970BD4FF6FF7097
:104A3000854206D0204629463246BDE87040FFF741
:104A4000C0BE822070BD0000054B064A4FF4804175
:104A500002F580401A608422586099609A817047FC
:104A6000C02F00200080000838B5084C03460D46D2
:104A70002046194601F053FF2046294601F0A8FFC1
:104A80002046BDE8384001F0DEBF00BFE82F00201F
:104A9000014801F0B3BF00BFE82F002038B5054C36
:104AA000204601F0ABFF0546204601F0A7FF40EA93
:104AB000052038BDE82F002008B5FFF7EFFF00B252
:104AC00008BD000038B50D4C05462946204601F0CA
:104AD00026FF0021204601F07BFF204601F0B3FFB6
:104AE000642001F0A5FD20462946012201F06CFF5B
:104AF0002046BDE8384001F081BF00BFE82F00200C
:104B000070B50A4C03460D4620461946164601F07C
:104B100006FF2046294601F05BFF2046314601F0A2
:104B200057FF2046BDE8704001F08DBFE82F002000
:104B300007EE102AF7EE006AB4EE667AF1EE10FA8C
:104B400007EE900A06EE101A07D036EEC70A66EE98
:104B5000000A47EE870AF0EE607A17EE900A704777
:104B6000F0B5002301254C1EA3420EDA1CB201331E
:104B700050F8247050F82360B74204DD40F82370E9
:104B800040F824600025DBB2EDE7002DE9D0036892
:104B900050F824401B1B002BB8BF5B42136002225D
:104BA00091FBF2F150F82100F0BD07EE100AB5EECE
:104BB000C07AF1EE10FA07EE901A04DDF5EEC07A35
:104BC000F1EE10FA0BD4B5EEC07AF1EE10FA01D482
:104BD00000207047F5EEC07AF1EE10FAF8DD012002
:104BE000704700000A4BA3EB600107EE101A07EEB6
:104BF000900A27EE876AF0EE080A46EE470AF6EEBC
:104C0000006A27EE260A20EE201A11EE100A7047DD
:104C1000DF59375F4043704707292FD8DFE801F09D
:104C200004090F14191E232903689A6842F03D02F3
:104C300003E00368986840F474629A607047036800
:104C4000996841F47412F8E703689A6842F0746254
:104C5000F3E70368D86840F03D0208E00368D968CC
:104C600041F4746203E00368DA6842F47412DA60B3
:104C700070470368D96841F07460D860704738B5F0
:104C80004B1C50F8333005460C4633B19847284644
:104C90002146BDE83840FFF7BFBF38BD024B0021B9
:104CA0001868FFF7ECBF00BF140D0020024B012174
:104CB0001868FFF7E4BF00BF140D0020024B02216B
:104CC0001868FFF7DCBF00BF140D0020024B032162
:104CD0001868FFF7D4BF00BF140D0020024B042159
:104CE0001868FFF7CCBF00BF140D0020024B052150
:104CF0001868FFF7C4BF00BF140D0020024B062147
:104D00001868FFF7BCBF00BF140D0020024B07213D
:104D10001868FFF7B4BF00BF140D0020024B00213C
:104D20001868FFF7ACBF00BF180D0020024B01212F
:104D30001868FFF7A4BF00BF180D0020024B022126
:104D40001868FFF79CBF00BF180D0020024B03211D
:104D50001868FFF794BF00BF180D0020024B042114
:104D60001868FFF78CBF00BF180D0020024B05210B
:104D70001868FFF784BF00BF180D0020024B062102
:104D80001868FFF77CBF00BF180D0020024B0721F9
:104D90001868FFF774BF00BF180D0020024B586160
:104DA00000BF00BF704700BF003C0140064B10B57C
:104DB00053F83030044633B198470120A040BDE895
:104DC0001040FFF7EBBF10BD1C0D00200E4B2DE96E
:104DD000F0410D465C69064600270EE04FF00100E9
:104DE00000FA06F818EA040F06D0084951F83630E0
:104DF00013B1984747EA08070136AE42EED9384664
:104E0000BDE8F041FFF7CABF003C01401C0D002087
:104E10000020FFF7CBBF0120FFF7C8BF0220FFF73C
:104E2000C5BF0320FFF7C2BF0420FFF7BFBF0520A7
:104E30000921FFF7CBBF0A200F21FFF7C7BF10B52D
:104E40000446007900F008FA2079BDE8104000F02F
:104E5000E7B9000008B50B48FFF7F1FF0A48FFF774
:104E6000EEFF0A48FFF7EBFF0948FFF7E8FF0948A4
:104E7000FFF7E5FF0848FFF7E2FF0848BDE80840F4
:104E8000FFF7DDBF9C0D0020A40D0020AC0D00201D
:104E9000B40D0020BC0D0020C40D0020CC0D00205E
:104EA000036870B54800032616FA00F41D68E44351
:104EB00002F0030604EA050C16FA00F54CEA0506B2
:104EC000950805F0030585401E60DE6804EA060CBF
:104ED00045EA0C051609DD6006F003069D6816FA22
:104EE00000F0920904EA050C02F0010414FA01F240
:104EF000012414FA01F140EA0C009860586820EA95
:104F0000010042EA0001596070BD0368C80801F061
:104F1000070130B589000F248C4002F00F0212FA0D
:104F200001F1083053F8205025EA04040C4343F8FB
:104F3000204030BD03681961704703681A6812F495
:104F4000985FFBD1196841F480701860704703685E
:104F50001A6812F4985FFBD1196841F40070186068
:104F60001A6812F4985FFBD170470368586841EAE9
:104F700000025A6070470368586820EA01025A60CC
:104F800070470368186820F480621A607047000058
:104F9000014B1868704700BF28310020016810B528
:104FA0008A69044602F47063002283614A618A615F
:104FB000FFF7CDFF20464FF4E061FFF7DCFFFF2352
:104FC000637310BDF8B5036805695F690446AE7880
:104FD0009B69FFF7DDFF6061F80706F0010613D556
:104FE0000020E8804FF480612046FFF7BEFF26B125
:104FF00021680F6847F480620A60B5F800C0236832
:1050000046EA4C0018610027B9071ED5AB8876B177
:10501000012B17D12046FFF7B4FFE2892046012A71
:1050200002D9FFF78AFF0DE0FFF791FF0AE0012B9D
:105030000AD0E888A968471C095CEF802046FFF782
:1050400079FF01E0002700E0374607F0840EBEF14B
:10505000800F1BD1E789AFB1EF88A8687A1CC15DCA
:10506000EA802046FFF766FFB5F806C0AB889C458E
:105070000BD14FF480612046FFF77DFFE389591E75
:10508000E18102E000F09AFC00E0002707F08402D2
:10509000842A17D1E689204656B1FFF74EFF2368D0
:1050A0005F69FA07FCD5206900270C30206109E010
:1050B000FFF74DFF4FF400712046FFF75CFF022120
:1050C000617337467B0627D52368E8881969AA6883
:1050D000431C1154AA889BB2501E8342EB800ED110
:1050E0002046FFF74EFFE1892046022903D9BDE89B
:1050F000F840FFF722BFBDE8F840FFF728BF934212
:105100000AD1E3895A1E90B2E08110B9022161737D
:10511000F8BD20690C302061F8BD00000148FFF7A0
:1051200051BF00BFD40D00200148FFF74BBF00BFA7
:10513000F00D00200148FFF731BF00BFD40D002063
:105140000148FFF72BBF00BFF00D002001EBC001AD
:10515000880000F184431A6070470000244B1868EF
:1051600040F480321A604FF4A063214A1168890329
:1051700001D4013BF9D112681D4B920336D51A6C4C
:10518000DFF888C042F080501A4A1864116841F470
:105190008040106099689960986840F400429A6075
:1051A0009968154A41F4A05098601449144882E85F
:1051B0000310144A5A60196841F0807018600C4B53
:1051C00019688801FBD5104A40F2056111609868A2
:1051D00020F0030199609A6842F002009860044848
:1051E000836803F00C0CBCF1080FF8D1704700BFC6
:1051F0000038024000700040D02F002000BD0105A3
:1052000080DE800208544007003C0240007A030A16
:10521000FFF7A4BF014B13F810007047BC0A020847
:1052200038B50446FFF7F6FF094B0A4903EB44047F
:1052300051F820506478284621460122FFF786FF66
:10524000284621460022BDE83840FFF77FBF00BF57
:10525000BC0A0208140B020810B50446FFF7DAFF77
:105260000549064A01EB440352F82000597801220F
:10527000BDE81040FFF76ABFBC0A0208A80A02088E
:1052800008B5FFF7C7FF024B53F8200008BD00BF69
:10529000D02F002008B5FFF7F3FF400008BD70478E
:1052A000014B07221A60704710E000E0014B586084
:1052B000FFF7F6BF10E000E008B572B60548064BF0
:1052C0001B6801684A1C026062B6044B1B6803B18C
:1052D000984708BD2831002010E000E0E02F0020B2
:1052E000002807DB421100F01F0101208840024B1B
:1052F00043F82200704700BF00E100E070B54E1E89
:105300006FF0070501F0010169430831C9B2FF25BB
:105310008D40134313FA01F100687410183004F043
:10532000010450F8246026EA05050D4340F8245096
:1053300070BD023138B550F821301546046823B1EC
:105340009847236923EA0505256138BD0721802296
:10535000FFF7EFBF00210122FFF7EBBFF8B50568AB
:105360000646EB682F691F4017F0400403D0046A1B
:105370000CB1A0474024BB0604D5F36913B198478C
:1053800044F02004286920EA04042C61F8BDF8B533
:1053900007680546FB683E691E4016F0100403D0FE
:1053A00084690CB1A0471024300704D56B6913B190
:1053B000984744F00804710704D52B6913B1984746
:1053C00044F00404B20704D5EB6813B1984744F0E5
:1053D0000204386920EA04043C61F8BDF8B50768A6
:1053E0000546FB683E691E4016F0400403D0046A7F
:1053F0000CB1A0474024F30604D5AB6913B198471C
:1054000044F01004300704D56B6913B1984744F099
:105410000804710704D52B6913B1984744F00404BC
:10542000B20704D5EB6813B1984744F00204F307C0
:1054300004D5AB6813B1984744F00104386920EAF9
:1054400004043C61F8BD00210122FFF772BF01EBAB
:10545000C001880000F18440704708B500680C3036
:10546000FFF7F5FF0023036008BD08B500680139A8
:1054700020308900FFF7EBFF0123036008BD10B562
:1054800004460079FFF7E8FE2079BDE81040FFF7F9
:10549000C7BE00000D4A10B504461068A0470C496D
:1054A0000868A0470B480068A0470B4B1868A04746
:1054B0000A4A1068A0470A490868A04709480068D6
:1054C000A047094B1868A04710BD00BFB80E0020C8
:1054D000BC0E0020C00E0020C40E0020C80E00200C
:1054E000CC0E0020D00E0020D40E002038B58B1C2E
:1054F000044640F8232000680D460C30FFF7A7FF54
:105500006379012101602079002B23D1A0F10A02E7
:10551000504240EB0200072D3ED8DFE805F00409B9
:1055200009090911111600280CBF2C20192003E0CD
:1055300000280CBF2E201B20BDE83840FFF7D0BE4E
:1055400000280CBF2D201A20F6E700280CBF2B20C6
:105550001820F1E70B38112816D8DFE800F0090B06
:105560000D1515151515151515151515150F1113FF
:105570001C20E1E71D20DFE71E20DDE73220DBE70E
:105580003620D9E73720D7E70448054A40F2DD1135
:10559000BDE8384000F0DCB938BD00BF280B020878
:1055A000760B020838B50D4604460235FFF755FF65
:1055B000002344F8253038BD70B50446481EC3B2F8
:1055C000032B0D46164604D91C48AD211C4A00F099
:1055D000BFF96179022904D11848B021194A00F0B5
:1055E000B7F96279022A27D0012E10D002D3022EF9
:1055F00022D115E020462946FFF7D4FF2068691E16
:1056000020308900FFF723FF0023036070BD204690
:105610002946FFF722FF204629466022082303E09F
:105620002046294610220023FFF768FE204629461F
:10563000BDE87040FFF719BF70BD00BF280B02081E
:10564000780B0208940B0208014B1868FFF77EBE26
:10565000B80E0020014B1868FFF77CBEB80E002082
:10566000014B1868FFF77ABEB80E0020014B18688E
:10567000FFF78DBEB80E0020014B1868FFF7AEBED5
:10568000BC0E0020014B1868FFF7A8BEC00E00201A
:10569000014B1868FFF7A2BEC40E0020014B18682A
:1056A000FFF79CBEC80E0020014B1868FFF7CBBE69
:1056B000CC0E0020014B1868FFF7C5BED00E0020AD
:1056C000014B1868FFF742BED40E0020014B18684A
:1056D000FFF740BED40E0020014B1868FFF73EBE16
:1056E000D40E0020014B1868FFF751BED40E0020E5
:1056F000C38881889AB28BB2C188B0F804C0D31A2B
:1057000089B21FFA8CF2914203D201898AB2501CED
:105710001B1898B27047C2888388511C994207D0E1
:105720000089904206D1D3F1010038BF00207047B4
:105730000120704700207047C3880268D154C38895
:1057400002899A4201D0013300E00023C3807047F0
:1057500003468288198900689142805C01D0013239
:1057600000E000229A807047420102F18440C1614A
:10577000704738B5044690F820020D46FFF780FDCB
:1057800019214143A800B1FBF0F26420B2FBF0F50F
:1057900029010D0900FB15231A013232B2FBF0F387
:1057A00003F00F0242EA0100236881B2996038BD1C
:1057B000006801210C30FFF7D7BF006800210C30D2
:1057C000FFF7D2BF37B50368044619680191019A03
:1057D000920610D55D68041D2046EDB2FFF79BFFD1
:1057E00010B12046FFF7B4FF2046294603B0BDE8BC
:1057F0003040FFF7A1BF019B1B0610D500F110053B
:105800002846FFF775FF28B128462468FFF7A0FF58
:10581000606004E02046FFF7D0FF00BF00BF03B088
:1058200030BD2DE9F84304460D4617460026BE421A
:1058300010D004F11008404615F80690FFF76BFFF2
:1058400040B940464946FFF777FF2046FFF7B0FFD3
:105850000136ECE73046BDE8F88330B5054685B043
:1058600000240A20B1FBF0F300FB131230320DF8D4
:10587000042019460134002BF3D10BE01DF804106D
:105880008DF80F1028460DF10F010122FFF7C9FF17
:105890000028F7D014F1FF34F0D205B030BD00007D
:1058A000014B1868FFF78EBF48110020014B1868A4
:1058B000FFF788BF4C110020014B1868FFF782BF2B
:1058C00050110020014B1868FFF77CBFE41900203D
:1058D000014B1868FFF776BFE819002013B504469E
:1058E0008DF8071020460DF107010122FFF799FFFF
:1058F0000028F7D01CBD38B505460C4602E0284606
:10590000FFF7ECFF14F8011B0029F8D138BD202364
:1059100009B10383704743837047000038B50546DB
:1059200062B6094C09492068FFF7E5FF206829465F
:10593000FFF793FF20680A21FFF7D0FF20680D21B1
:10594000FFF7CCFFFEE700BF4C110020AD0B0208B3
:10595000F8B5164E05460C4630684FF4E13117464F
:10596000FFF707FF30681249FFF7C5FF3068394677
:10597000FFF7C1FF30680F49FFF7BDFF30682946C8
:10598000FFF7B9FF30680C49FFF7B5FF30682146D3
:10599000FFF763FF30680A21FFF7A0FF30680D2191
:1059A000FFF79CFF4FF0FF30FFF7B8FF4C110020CE
:1059B000BB0B0208D10B0208D20B0208F8B5114B41
:1059C00005211C6821222046FFF76AFA00252E4691
:1059D0000127B6F5006F03D0002E08BF012701E0B4
:1059E0004FF0FF37B5F5006F04BFF6190025B5423B
:1059F000206801D2012100E00021FFF788FF013576
:105A0000E7E700BFA40A0208000000000000000051
:105A1000012007E0022005E0032003E0042001E06C
:105A20000520FFE7FEE70D4A0121116072B60C4A1E
:105A300000211160064902B4074902B486B0054945
:105A40008E467047AFF30080AFF30080AFF3008065
:105A500000000061F9FFFFFF1D59010814ED00E08F
:105A600010E000E0AFF30080AFF30080AFF3008000
:105A700038B505460C4603E0286803682846984771
:105A800014F8011B0029F7D138BD70B5044615463E
:105A90000E4605E0206816F8011B0368204698476B
:105AA00015F1FF35F6D270BD026808B51368984746
:105AB00008BD026808B55368984708BD10B50D21A8
:105AC0000446FFF7F1FF20460A21BDE81040FFF72A
:105AD000EBBF10B50446FFF7ECFF2046BDE81040D1
